{
  "_format": "hh-sol-artifact-1",
  "contractName": "realEstate",
  "sourceName": "contracts/realEstate.sol",
  "abi": [
    {
      "inputs": [],
      "stateMutability": "payable",
      "type": "constructor"
    },
    {
      "anonymous": false,
      "inputs": [
        {
          "indexed": false,
          "internalType": "address payable",
          "name": "_landlordAddress",
          "type": "address"
        },
        {
          "indexed": false,
          "internalType": "address payable",
          "name": "_buyerAddress",
          "type": "address"
        },
        {
          "indexed": false,
          "internalType": "uint256",
          "name": "_agreementId",
          "type": "uint256"
        },
        {
          "indexed": false,
          "internalType": "uint256",
          "name": "_propertyID",
          "type": "uint256"
        }
      ],
      "name": "agreementDraftSubmitted",
      "type": "event"
    },
    {
      "anonymous": false,
      "inputs": [
        {
          "indexed": false,
          "internalType": "address payable",
          "name": "_landlordAddress",
          "type": "address"
        },
        {
          "indexed": false,
          "internalType": "uint256",
          "name": "_propertyId",
          "type": "uint256"
        },
        {
          "indexed": false,
          "internalType": "enum realEstate.AgreementStatus",
          "name": "_status",
          "type": "uint8"
        }
      ],
      "name": "agreementStatusChanged",
      "type": "event"
    },
    {
      "anonymous": false,
      "inputs": [
        {
          "indexed": false,
          "internalType": "address",
          "name": "_to",
          "type": "address"
        },
        {
          "indexed": false,
          "internalType": "uint256",
          "name": "_amount",
          "type": "uint256"
        }
      ],
      "name": "amountTransfered",
      "type": "event"
    },
    {
      "anonymous": false,
      "inputs": [
        {
          "indexed": false,
          "internalType": "address",
          "name": "_landlordAddress",
          "type": "address"
        },
        {
          "indexed": false,
          "internalType": "uint256",
          "name": "_landlordId",
          "type": "uint256"
        }
      ],
      "name": "newLandlordAdded",
      "type": "event"
    },
    {
      "anonymous": false,
      "inputs": [
        {
          "indexed": false,
          "internalType": "address payable",
          "name": "landlordAddress",
          "type": "address"
        },
        {
          "indexed": false,
          "internalType": "uint256",
          "name": "_propertyId",
          "type": "uint256"
        },
        {
          "indexed": false,
          "internalType": "uint256",
          "name": "titleDeedNo",
          "type": "uint256"
        },
        {
          "indexed": false,
          "internalType": "uint256",
          "name": "titleDeedYear",
          "type": "uint256"
        },
        {
          "indexed": false,
          "internalType": "string",
          "name": "propertyType",
          "type": "string"
        },
        {
          "indexed": false,
          "internalType": "string",
          "name": "streetName",
          "type": "string"
        },
        {
          "indexed": false,
          "internalType": "uint256",
          "name": "area",
          "type": "uint256"
        },
        {
          "indexed": false,
          "internalType": "string",
          "name": "apartmentNum",
          "type": "string"
        },
        {
          "indexed": false,
          "internalType": "uint256",
          "name": "listedPrice",
          "type": "uint256"
        },
        {
          "indexed": false,
          "internalType": "enum realEstate.properyStatus",
          "name": "propStatus",
          "type": "uint8"
        },
        {
          "indexed": false,
          "internalType": "string",
          "name": "ipfsHash",
          "type": "string"
        },
        {
          "indexed": false,
          "internalType": "uint256",
          "name": "facilities",
          "type": "uint256"
        }
      ],
      "name": "newPropertyAdded",
      "type": "event"
    },
    {
      "anonymous": false,
      "inputs": [
        {
          "indexed": false,
          "internalType": "address",
          "name": "_landlordAddress",
          "type": "address"
        },
        {
          "indexed": false,
          "internalType": "address",
          "name": "_buyerAddress",
          "type": "address"
        },
        {
          "indexed": false,
          "internalType": "uint256",
          "name": "_propertyID",
          "type": "uint256"
        },
        {
          "indexed": false,
          "internalType": "uint256",
          "name": "_price",
          "type": "uint256"
        }
      ],
      "name": "propertTransfered",
      "type": "event"
    },
    {
      "anonymous": false,
      "inputs": [
        {
          "indexed": false,
          "internalType": "address payable",
          "name": "_landlordAddress",
          "type": "address"
        },
        {
          "indexed": false,
          "internalType": "uint256",
          "name": "_propertyId",
          "type": "uint256"
        },
        {
          "indexed": false,
          "internalType": "enum realEstate.properyStatus",
          "name": "_status",
          "type": "uint8"
        }
      ],
      "name": "propertyStatusChanged",
      "type": "event"
    },
    {
      "stateMutability": "payable",
      "type": "fallback"
    },
    {
      "inputs": [
        {
          "internalType": "address payable",
          "name": "_landlordAddress",
          "type": "address"
        }
      ],
      "name": "addLandlord",
      "outputs": [],
      "stateMutability": "nonpayable",
      "type": "function"
    },
    {
      "inputs": [
        {
          "internalType": "address payable",
          "name": "_landlordAddress",
          "type": "address"
        },
        {
          "internalType": "uint256",
          "name": "_propertyId",
          "type": "uint256"
        },
        {
          "internalType": "bool",
          "name": "decision",
          "type": "bool"
        }
      ],
      "name": "agreementDecision",
      "outputs": [],
      "stateMutability": "nonpayable",
      "type": "function"
    },
    {
      "inputs": [
        {
          "internalType": "address payable",
          "name": "_landlordAddress",
          "type": "address"
        },
        {
          "internalType": "address payable",
          "name": "_buyerAddress",
          "type": "address"
        },
        {
          "internalType": "uint256",
          "name": "_propertyId",
          "type": "uint256"
        },
        {
          "internalType": "string",
          "name": "_buyerSignedHash",
          "type": "string"
        }
      ],
      "name": "buyerSignedAgreement",
      "outputs": [],
      "stateMutability": "nonpayable",
      "type": "function"
    },
    {
      "inputs": [
        {
          "internalType": "address payable",
          "name": "_landlordAddress",
          "type": "address"
        },
        {
          "internalType": "uint256",
          "name": "_propertyId",
          "type": "uint256"
        }
      ],
      "name": "cancelAgreement",
      "outputs": [],
      "stateMutability": "nonpayable",
      "type": "function"
    },
    {
      "inputs": [
        {
          "internalType": "address",
          "name": "newOwner",
          "type": "address"
        }
      ],
      "name": "changeOwner",
      "outputs": [],
      "stateMutability": "nonpayable",
      "type": "function"
    },
    {
      "inputs": [
        {
          "internalType": "address payable",
          "name": "_landlordAddress",
          "type": "address"
        },
        {
          "internalType": "uint256",
          "name": "_propertyId",
          "type": "uint256"
        }
      ],
      "name": "checkPropertyExists",
      "outputs": [
        {
          "internalType": "bool",
          "name": "",
          "type": "bool"
        }
      ],
      "stateMutability": "view",
      "type": "function"
    },
    {
      "inputs": [
        {
          "internalType": "address payable",
          "name": "_landlordAddress",
          "type": "address"
        },
        {
          "internalType": "address payable",
          "name": "_buyerAddress",
          "type": "address"
        },
        {
          "internalType": "uint256",
          "name": "_propertyId",
          "type": "uint256"
        }
      ],
      "name": "completeAgreement",
      "outputs": [],
      "stateMutability": "payable",
      "type": "function"
    },
    {
      "inputs": [
        {
          "internalType": "address payable",
          "name": "_landlordAddress",
          "type": "address"
        },
        {
          "internalType": "string",
          "name": "_propertyType",
          "type": "string"
        },
        {
          "internalType": "uint256",
          "name": "_titleDeedNo",
          "type": "uint256"
        },
        {
          "internalType": "uint256",
          "name": "_titleDeedYear",
          "type": "uint256"
        },
        {
          "internalType": "string",
          "name": "_streetName",
          "type": "string"
        },
        {
          "internalType": "uint256",
          "name": "_area",
          "type": "uint256"
        },
        {
          "internalType": "string",
          "name": "_apartmentNum",
          "type": "string"
        },
        {
          "internalType": "uint256",
          "name": "_listedPrice",
          "type": "uint256"
        },
        {
          "internalType": "string",
          "name": "_ipfsHash",
          "type": "string"
        },
        {
          "internalType": "uint256",
          "name": "_facilities",
          "type": "uint256"
        }
      ],
      "name": "createPropertyListing",
      "outputs": [],
      "stateMutability": "payable",
      "type": "function"
    },
    {
      "inputs": [
        {
          "internalType": "address payable",
          "name": "_landlordAddress",
          "type": "address"
        },
        {
          "internalType": "uint256",
          "name": "_propertyId",
          "type": "uint256"
        }
      ],
      "name": "getAgreement",
      "outputs": [
        {
          "internalType": "uint256",
          "name": "",
          "type": "uint256"
        },
        {
          "internalType": "address",
          "name": "",
          "type": "address"
        },
        {
          "internalType": "address",
          "name": "",
          "type": "address"
        },
        {
          "internalType": "uint256",
          "name": "",
          "type": "uint256"
        },
        {
          "internalType": "string",
          "name": "",
          "type": "string"
        }
      ],
      "stateMutability": "view",
      "type": "function"
    },
    {
      "inputs": [
        {
          "internalType": "address payable",
          "name": "_landlordAddress",
          "type": "address"
        },
        {
          "internalType": "uint256",
          "name": "_propertyId",
          "type": "uint256"
        }
      ],
      "name": "getAgreementStatus",
      "outputs": [
        {
          "internalType": "enum realEstate.AgreementStatus",
          "name": "",
          "type": "uint8"
        }
      ],
      "stateMutability": "view",
      "type": "function"
    },
    {
      "inputs": [],
      "name": "getBalance",
      "outputs": [
        {
          "internalType": "uint256",
          "name": "",
          "type": "uint256"
        }
      ],
      "stateMutability": "view",
      "type": "function"
    },
    {
      "inputs": [
        {
          "internalType": "address",
          "name": "_landlordAddress",
          "type": "address"
        }
      ],
      "name": "getLandlordCounter",
      "outputs": [
        {
          "internalType": "uint256",
          "name": "",
          "type": "uint256"
        }
      ],
      "stateMutability": "view",
      "type": "function"
    },
    {
      "inputs": [
        {
          "internalType": "address payable",
          "name": "_landlordAddress",
          "type": "address"
        },
        {
          "internalType": "uint256",
          "name": "_propertyID",
          "type": "uint256"
        }
      ],
      "name": "getPropertyDetails",
      "outputs": [
        {
          "internalType": "string",
          "name": "",
          "type": "string"
        },
        {
          "internalType": "uint256",
          "name": "",
          "type": "uint256"
        },
        {
          "internalType": "uint256",
          "name": "",
          "type": "uint256"
        },
        {
          "internalType": "uint256",
          "name": "",
          "type": "uint256"
        }
      ],
      "stateMutability": "view",
      "type": "function"
    },
    {
      "inputs": [
        {
          "internalType": "address payable",
          "name": "_landlordAddress",
          "type": "address"
        },
        {
          "internalType": "uint256",
          "name": "_propertyID",
          "type": "uint256"
        }
      ],
      "name": "getPropertyListedPrice",
      "outputs": [
        {
          "internalType": "uint256",
          "name": "",
          "type": "uint256"
        }
      ],
      "stateMutability": "view",
      "type": "function"
    },
    {
      "inputs": [
        {
          "internalType": "address payable",
          "name": "_landlordAddress",
          "type": "address"
        },
        {
          "internalType": "uint256",
          "name": "_propertyID",
          "type": "uint256"
        }
      ],
      "name": "getPropertyLocationDetails",
      "outputs": [
        {
          "internalType": "string",
          "name": "",
          "type": "string"
        },
        {
          "internalType": "uint256",
          "name": "",
          "type": "uint256"
        },
        {
          "internalType": "string",
          "name": "",
          "type": "string"
        },
        {
          "internalType": "string",
          "name": "",
          "type": "string"
        }
      ],
      "stateMutability": "view",
      "type": "function"
    },
    {
      "inputs": [
        {
          "internalType": "address payable",
          "name": "_landlordAddress",
          "type": "address"
        },
        {
          "internalType": "uint256",
          "name": "_propertyId",
          "type": "uint256"
        }
      ],
      "name": "getPropertyStatus",
      "outputs": [
        {
          "internalType": "enum realEstate.properyStatus",
          "name": "",
          "type": "uint8"
        }
      ],
      "stateMutability": "view",
      "type": "function"
    },
    {
      "inputs": [
        {
          "internalType": "address payable",
          "name": "_landlordAddress",
          "type": "address"
        },
        {
          "internalType": "uint256",
          "name": "_propertyId",
          "type": "uint256"
        },
        {
          "internalType": "string",
          "name": "_landlordSignedHash",
          "type": "string"
        }
      ],
      "name": "landlordSignedAgreement",
      "outputs": [],
      "stateMutability": "nonpayable",
      "type": "function"
    },
    {
      "inputs": [],
      "name": "owner",
      "outputs": [
        {
          "internalType": "address",
          "name": "",
          "type": "address"
        }
      ],
      "stateMutability": "view",
      "type": "function"
    },
    {
      "inputs": [
        {
          "internalType": "address payable",
          "name": "_landlordAddress",
          "type": "address"
        },
        {
          "internalType": "uint256",
          "name": "_propertyId",
          "type": "uint256"
        },
        {
          "internalType": "address payable",
          "name": "_buyerAddress",
          "type": "address"
        },
        {
          "internalType": "string",
          "name": "otherTerms",
          "type": "string"
        }
      ],
      "name": "submitDraft",
      "outputs": [],
      "stateMutability": "payable",
      "type": "function"
    },
    {
      "inputs": [
        {
          "internalType": "address payable",
          "name": "_landlordAddress",
          "type": "address"
        },
        {
          "internalType": "uint256",
          "name": "_amount",
          "type": "uint256"
        }
      ],
      "name": "transferAmount",
      "outputs": [],
      "stateMutability": "payable",
      "type": "function"
    },
    {
      "inputs": [
        {
          "internalType": "address payable",
          "name": "_landlordAddress",
          "type": "address"
        },
        {
          "internalType": "uint256",
          "name": "_propertyID",
          "type": "uint256"
        }
      ],
      "name": "transferAmountUsingPropertyID",
      "outputs": [],
      "stateMutability": "payable",
      "type": "function"
    },
    {
      "inputs": [
        {
          "internalType": "address payable",
          "name": "_landlordAddress",
          "type": "address"
        },
        {
          "internalType": "uint256",
          "name": "_propertyID",
          "type": "uint256"
        },
        {
          "internalType": "address payable",
          "name": "_buyerAddress",
          "type": "address"
        }
      ],
      "name": "transferProperty",
      "outputs": [],
      "stateMutability": "payable",
      "type": "function"
    },
    {
      "stateMutability": "payable",
      "type": "receive"
    }
  ],
  "bytecode": "0x6080604052336000806101000a81548173ffffffffffffffffffffffffffffffffffffffff021916908373ffffffffffffffffffffffffffffffffffffffff16021790555060006002819055506000600381905550615615806100636000396000f3fe6080604052600436106101395760003560e01c806369326796116100ab5780638e7fb8561161006f5780638e7fb85614610420578063a6f9dae11461045d578063b0a5ec2414610486578063d7081e03146104c7578063f32e47e1146104e3578063fc3beec51461050c57610140565b80636932679614610336578063753ccc8e14610352578063843258371461037b5780638b3a8703146103b85780638da5cb5b146103f557610140565b806330f3c3e8116100fd57806330f3c3e81461021b5780634844f490146102445780634b59654a1461028457806357184c9c146102c157806357460009146102fe57806361352d5e1461031a57610140565b806301c9a259146101425780630a59daec1461016b57806312065fe0146101ab5780631ea42f9f146101d657806320efab55146101ff57610140565b3661014057005b005b34801561014e57600080fd5b5061016960048036038101906101649190614039565b610528565b005b34801561017757600080fd5b50610192600480360381019061018d919061409c565b61068d565b6040516101a29493929190614184565b60405180910390f35b3480156101b757600080fd5b506101c0610ac6565b6040516101cd91906141de565b60405180910390f35b3480156101e257600080fd5b506101fd60048036038101906101f8919061432e565b610ace565b005b6102196004803603810190610214919061439d565b610dd9565b005b34801561022757600080fd5b50610242600480360381019061023d9190614524565b61125d565b005b34801561025057600080fd5b5061026b6004803603810190610266919061409c565b61167c565b60405161027b9493929190614577565b60405180910390f35b34801561029057600080fd5b506102ab60048036038101906102a6919061409c565b61199f565b6040516102b8919061463a565b60405180910390f35b3480156102cd57600080fd5b506102e860048036038101906102e3919061409c565b611ab5565b6040516102f59190614664565b60405180910390f35b6103186004803603810190610313919061409c565b611b20565b005b610334600480360381019061032f919061467f565b611e21565b005b610350600480360381019061034b91906146d2565b6124eb565b005b34801561035e57600080fd5b5061037960048036038101906103749190614725565b6128ac565b005b34801561038757600080fd5b506103a2600480360381019061039d91906147e6565b612bb8565b6040516103af91906141de565b60405180910390f35b3480156103c457600080fd5b506103df60048036038101906103da919061409c565b612c01565b6040516103ec919061485b565b60405180910390f35b34801561040157600080fd5b5061040a612d17565b6040516104179190614885565b60405180910390f35b34801561042c57600080fd5b506104476004803603810190610442919061409c565b612d40565b60405161045491906141de565b60405180910390f35b34801561046957600080fd5b50610484600480360381019061047f91906147e6565b612ece565b005b34801561049257600080fd5b506104ad60048036038101906104a8919061409c565b612f9f565b6040516104be9594939291906148a0565b60405180910390f35b6104e160048036038101906104dc919061409c565b6132d5565b005b3480156104ef57600080fd5b5061050a6004803603810190610505919061409c565b6134d2565b005b610526600480360381019061052191906148fa565b613805565b005b806000600460008373ffffffffffffffffffffffffffffffffffffffff1673ffffffffffffffffffffffffffffffffffffffff16815260200190815260200160002054146105ab576040517f08c379a00000000000000000000000000000000000000000000000000000000081526004016105a2906149c9565b60405180910390fd5b6000600560008473ffffffffffffffffffffffffffffffffffffffff1673ffffffffffffffffffffffffffffffffffffffff168152602001908152602001600020819055506002600081548092919061060390614a18565b9190505550600254600460008473ffffffffffffffffffffffffffffffffffffffff1673ffffffffffffffffffffffffffffffffffffffff168152602001908152602001600020819055507f4b8a2c1adb48c4fb8ef27deeb62aad4916e397585148ca87fc9970a648aea42f82600254604051610681929190614ac0565b60405180910390a15050565b60606000606080856000600460008373ffffffffffffffffffffffffffffffffffffffff1673ffffffffffffffffffffffffffffffffffffffff168152602001908152602001600020541415610718576040517f08c379a000000000000000000000000000000000000000000000000000000000815260040161070f90614b35565b60405180910390fd5b868660011515600660008473ffffffffffffffffffffffffffffffffffffffff1673ffffffffffffffffffffffffffffffffffffffff168152602001908152602001600020600083815260200190815260200160002060080160009054906101000a900460ff161515146107c1576040517f08c379a00000000000000000000000000000000000000000000000000000000081526004016107b890614bc7565b60405180910390fd5b600660008a73ffffffffffffffffffffffffffffffffffffffff1673ffffffffffffffffffffffffffffffffffffffff1681526020019081526020016000206000898152602001908152602001600020600401600660008b73ffffffffffffffffffffffffffffffffffffffff1673ffffffffffffffffffffffffffffffffffffffff16815260200190815260200160002060008a815260200190815260200160002060050154600660008c73ffffffffffffffffffffffffffffffffffffffff1673ffffffffffffffffffffffffffffffffffffffff16815260200190815260200160002060008b8152602001908152602001600020600601600660008d73ffffffffffffffffffffffffffffffffffffffff1673ffffffffffffffffffffffffffffffffffffffff16815260200190815260200160002060008c815260200190815260200160002060090183805461091a90614c16565b80601f016020809104026020016040519081016040528092919081815260200182805461094690614c16565b80156109935780601f1061096857610100808354040283529160200191610993565b820191906000526020600020905b81548152906001019060200180831161097657829003601f168201915b505050505093508180546109a690614c16565b80601f01602080910402602001604051908101604052809291908181526020018280546109d290614c16565b8015610a1f5780601f106109f457610100808354040283529160200191610a1f565b820191906000526020600020905b815481529060010190602001808311610a0257829003601f168201915b50505050509150808054610a3290614c16565b80601f0160208091040260200160405190810160405280929190818152602001828054610a5e90614c16565b8015610aab5780601f10610a8057610100808354040283529160200191610aab565b820191906000526020600020905b815481529060010190602001808311610a8e57829003601f168201915b50505050509050965096509650965050505092959194509250565b600047905090565b828260011515600760008473ffffffffffffffffffffffffffffffffffffffff1673ffffffffffffffffffffffffffffffffffffffff168152602001908152602001600020600083815260200190815260200160002060070160019054906101000a900460ff16151514610b77576040517f08c379a0000000000000000000000000000000000000000000000000000000008152600401610b6e90614c94565b60405180910390fd5b84846001806006811115610b8e57610b8d6145c3565b5b600760008573ffffffffffffffffffffffffffffffffffffffff1673ffffffffffffffffffffffffffffffffffffffff168152602001908152602001600020600084815260200190815260200160002060070160009054906101000a900460ff166006811115610c0157610c006145c3565b5b14610c41576040517f08c379a0000000000000000000000000000000000000000000000000000000008152600401610c3890614d00565b60405180910390fd5b8773ffffffffffffffffffffffffffffffffffffffff163373ffffffffffffffffffffffffffffffffffffffff1614610caf576040517f08c379a0000000000000000000000000000000000000000000000000000000008152600401610ca690614db8565b60405180910390fd5b85600760008a73ffffffffffffffffffffffffffffffffffffffff1673ffffffffffffffffffffffffffffffffffffffff16815260200190815260200160002060008981526020019081526020016000206005019080519060200190610d16929190613e57565b506003600760008a73ffffffffffffffffffffffffffffffffffffffff1673ffffffffffffffffffffffffffffffffffffffff168152602001908152602001600020600089815260200190815260200160002060070160006101000a81548160ff02191690836006811115610d8e57610d8d6145c3565b5b02179055507f7aa644fa41c34822ba1ee2f1822620f973997f15c9e06bf2125442b1d4a7653088886003604051610dc793929190614de7565b60405180910390a15050505050505050565b8973ffffffffffffffffffffffffffffffffffffffff163373ffffffffffffffffffffffffffffffffffffffff1614610e47576040517f08c379a0000000000000000000000000000000000000000000000000000000008152600401610e3e90614eb6565b60405180910390fd5b6000600460008c73ffffffffffffffffffffffffffffffffffffffff1673ffffffffffffffffffffffffffffffffffffffff168152602001908152602001600020541415610f6e576000600560008c73ffffffffffffffffffffffffffffffffffffffff1673ffffffffffffffffffffffffffffffffffffffff1681526020019081526020016000208190555060026000815480929190610ee790614a18565b9190505550600254600460008c73ffffffffffffffffffffffffffffffffffffffff1673ffffffffffffffffffffffffffffffffffffffff168152602001908152602001600020819055507f4b8a2c1adb48c4fb8ef27deeb62aad4916e397585148ca87fc9970a648aea42f8a600254604051610f65929190614ac0565b60405180910390a15b600560008b73ffffffffffffffffffffffffffffffffffffffff1673ffffffffffffffffffffffffffffffffffffffff1681526020019081526020016000206000815480929190610fbe90614a18565b91905055506000600560008c73ffffffffffffffffffffffffffffffffffffffff1673ffffffffffffffffffffffffffffffffffffffff1681526020019081526020016000205490506040518061018001604052808281526020018b81526020018a8152602001898152602001888152602001878152602001868152602001858152602001600115158152602001600060038111156110605761105f6145c3565b5b815260200184815260200183815250600660008d73ffffffffffffffffffffffffffffffffffffffff1673ffffffffffffffffffffffffffffffffffffffff16815260200190815260200160002060008381526020019081526020016000206000820151816000015560208201518160010190805190602001906110e5929190613e57565b5060408201518160020155606082015181600301556080820151816004019080519060200190611116929190613e57565b5060a0820151816005015560c082015181600601908051906020019061113d929190613e57565b5060e082015181600701556101008201518160080160006101000a81548160ff0219169083151502179055506101208201518160080160016101000a81548160ff02191690836003811115611195576111946145c3565b5b02179055506101408201518160090190805190602001906111b7929190613e57565b5061016082015181600a01559050507f775a814133db64b272f053cebe7e3f81af7fbc555cb07ee614a9303eb06c8ee58b8260006040516111fa93929190614ed6565b60405180910390a17fa1d859071aebc8c98cf9a4b83dbe91f41d34d1a28bea38abeb9fdb2dffda5bfc8b828b8b8e8c8c8c8c60008d8d6040516112489c9b9a99989796959493929190614f0d565b60405180910390a15050505050505050505050565b828260011515600760008473ffffffffffffffffffffffffffffffffffffffff1673ffffffffffffffffffffffffffffffffffffffff168152602001908152602001600020600083815260200190815260200160002060070160019054906101000a900460ff16151514611306576040517f08c379a00000000000000000000000000000000000000000000000000000000081526004016112fd90614c94565b60405180910390fd5b8484600080600681111561131d5761131c6145c3565b5b600760008573ffffffffffffffffffffffffffffffffffffffff1673ffffffffffffffffffffffffffffffffffffffff168152602001908152602001600020600084815260200190815260200160002060070160009054906101000a900460ff1660068111156113905761138f6145c3565b5b146113d0576040517f08c379a00000000000000000000000000000000000000000000000000000000081526004016113c790614d00565b60405180910390fd5b8773ffffffffffffffffffffffffffffffffffffffff163373ffffffffffffffffffffffffffffffffffffffff161461143e576040517f08c379a0000000000000000000000000000000000000000000000000000000008152600401611435906150a1565b60405180910390fd5b85156115b9576001600760008a73ffffffffffffffffffffffffffffffffffffffff1673ffffffffffffffffffffffffffffffffffffffff168152602001908152602001600020600089815260200190815260200160002060070160006101000a81548160ff021916908360068111156114bb576114ba6145c3565b5b02179055506002600660008a73ffffffffffffffffffffffffffffffffffffffff1673ffffffffffffffffffffffffffffffffffffffff168152602001908152602001600020600089815260200190815260200160002060080160016101000a81548160ff02191690836003811115611537576115366145c3565b5b02179055507f775a814133db64b272f053cebe7e3f81af7fbc555cb07ee614a9303eb06c8ee58888600260405161157093929190614ed6565b60405180910390a17f7aa644fa41c34822ba1ee2f1822620f973997f15c9e06bf2125442b1d4a76530888860016040516115ac93929190614de7565b60405180910390a1611672565b6005600760008a73ffffffffffffffffffffffffffffffffffffffff1673ffffffffffffffffffffffffffffffffffffffff168152602001908152602001600020600089815260200190815260200160002060070160006101000a81548160ff021916908360068111156116305761162f6145c3565b5b02179055507f7aa644fa41c34822ba1ee2f1822620f973997f15c9e06bf2125442b1d4a765308888600560405161166993929190614de7565b60405180910390a15b5050505050505050565b60606000806000856000600460008373ffffffffffffffffffffffffffffffffffffffff1673ffffffffffffffffffffffffffffffffffffffff168152602001908152602001600020541415611707576040517f08c379a00000000000000000000000000000000000000000000000000000000081526004016116fe90614b35565b60405180910390fd5b868660011515600660008473ffffffffffffffffffffffffffffffffffffffff1673ffffffffffffffffffffffffffffffffffffffff168152602001908152602001600020600083815260200190815260200160002060080160009054906101000a900460ff161515146117b0576040517f08c379a00000000000000000000000000000000000000000000000000000000081526004016117a790614bc7565b60405180910390fd5b600660008a73ffffffffffffffffffffffffffffffffffffffff1673ffffffffffffffffffffffffffffffffffffffff1681526020019081526020016000206000898152602001908152602001600020600101600660008b73ffffffffffffffffffffffffffffffffffffffff1673ffffffffffffffffffffffffffffffffffffffff16815260200190815260200160002060008a815260200190815260200160002060030154600660008c73ffffffffffffffffffffffffffffffffffffffff1673ffffffffffffffffffffffffffffffffffffffff16815260200190815260200160002060008b815260200190815260200160002060070154600660008d73ffffffffffffffffffffffffffffffffffffffff1673ffffffffffffffffffffffffffffffffffffffff16815260200190815260200160002060008c8152602001908152602001600020600a015483805461190b90614c16565b80601f016020809104026020016040519081016040528092919081815260200182805461193790614c16565b80156119845780601f1061195957610100808354040283529160200191611984565b820191906000526020600020905b81548152906001019060200180831161196757829003601f168201915b50505050509350965096509650965050505092959194509250565b6000828260011515600760008473ffffffffffffffffffffffffffffffffffffffff1673ffffffffffffffffffffffffffffffffffffffff168152602001908152602001600020600083815260200190815260200160002060070160019054906101000a900460ff16151514611a4a576040517f08c379a0000000000000000000000000000000000000000000000000000000008152600401611a4190614c94565b60405180910390fd5b600760008673ffffffffffffffffffffffffffffffffffffffff1673ffffffffffffffffffffffffffffffffffffffff168152602001908152602001600020600085815260200190815260200160002060070160009054906101000a900460ff169250505092915050565b6000600660008473ffffffffffffffffffffffffffffffffffffffff1673ffffffffffffffffffffffffffffffffffffffff168152602001908152602001600020600083815260200190815260200160002060080160009054906101000a900460ff16905092915050565b60008054906101000a900473ffffffffffffffffffffffffffffffffffffffff1673ffffffffffffffffffffffffffffffffffffffff163373ffffffffffffffffffffffffffffffffffffffff1614611bae576040517f08c379a0000000000000000000000000000000000000000000000000000000008152600401611ba590615133565b60405180910390fd5b816000600460008373ffffffffffffffffffffffffffffffffffffffff1673ffffffffffffffffffffffffffffffffffffffff168152602001908152602001600020541415611c32576040517f08c379a0000000000000000000000000000000000000000000000000000000008152600401611c2990614b35565b60405180910390fd5b828260011515600660008473ffffffffffffffffffffffffffffffffffffffff1673ffffffffffffffffffffffffffffffffffffffff168152602001908152602001600020600083815260200190815260200160002060080160009054906101000a900460ff16151514611cdb576040517f08c379a0000000000000000000000000000000000000000000000000000000008152600401611cd290614bc7565b60405180910390fd5b6000600660008773ffffffffffffffffffffffffffffffffffffffff1673ffffffffffffffffffffffffffffffffffffffff168152602001908152602001600020600086815260200190815260200160002060070154905060008673ffffffffffffffffffffffffffffffffffffffff1682604051611d5990615184565b60006040518083038185875af1925050503d8060008114611d96576040519150601f19603f3d011682016040523d82523d6000602084013e611d9b565b606091505b5050905080611ddf576040517f08c379a0000000000000000000000000000000000000000000000000000000008152600401611dd6906151e5565b60405180910390fd5b7fb513ce46aec727e4d32cc9b305fc53369326c8c65e4ab9b94bc5877c7add82908783604051611e10929190614ac0565b60405180910390a150505050505050565b826000600460008373ffffffffffffffffffffffffffffffffffffffff1673ffffffffffffffffffffffffffffffffffffffff168152602001908152602001600020541415611ea5576040517f08c379a0000000000000000000000000000000000000000000000000000000008152600401611e9c90614b35565b60405180910390fd5b816000600460008373ffffffffffffffffffffffffffffffffffffffff1673ffffffffffffffffffffffffffffffffffffffff168152602001908152602001600020541415611f29576040517f08c379a0000000000000000000000000000000000000000000000000000000008152600401611f2090614b35565b60405180910390fd5b848460011515600660008473ffffffffffffffffffffffffffffffffffffffff1673ffffffffffffffffffffffffffffffffffffffff168152602001908152602001600020600083815260200190815260200160002060080160009054906101000a900460ff16151514611fd2576040517f08c379a0000000000000000000000000000000000000000000000000000000008152600401611fc990614bc7565b60405180910390fd5b8673ffffffffffffffffffffffffffffffffffffffff163373ffffffffffffffffffffffffffffffffffffffff1614612040576040517f08c379a00000000000000000000000000000000000000000000000000000000081526004016120379061529d565b60405180910390fd5b8473ffffffffffffffffffffffffffffffffffffffff168773ffffffffffffffffffffffffffffffffffffffff1614156120af576040517f08c379a00000000000000000000000000000000000000000000000000000000081526004016120a69061537b565b60405180910390fd5b600560008673ffffffffffffffffffffffffffffffffffffffff1673ffffffffffffffffffffffffffffffffffffffff16815260200190815260200160002060008154809291906120ff90614a18565b91905055506000600560008773ffffffffffffffffffffffffffffffffffffffff1673ffffffffffffffffffffffffffffffffffffffff168152602001908152602001600020549050600660008973ffffffffffffffffffffffffffffffffffffffff1673ffffffffffffffffffffffffffffffffffffffff1681526020019081526020016000206000888152602001908152602001600020600660008873ffffffffffffffffffffffffffffffffffffffff1673ffffffffffffffffffffffffffffffffffffffff168152602001908152602001600020600083815260200190815260200160002060008201548160000155600182018160010190805461220690614c16565b612211929190613edd565b506002820154816002015560038201548160030155600482018160040190805461223a90614c16565b612245929190613edd565b5060058201548160050155600682018160060190805461226490614c16565b61226f929190613edd565b50600782015481600701556008820160009054906101000a900460ff168160080160006101000a81548160ff0219169083151502179055506008820160019054906101000a900460ff168160080160016101000a81548160ff021916908360038111156122df576122de6145c3565b5b021790555060098201816009019080546122f890614c16565b612303929190613edd565b50600a82015481600a0155905050600660008973ffffffffffffffffffffffffffffffffffffffff1673ffffffffffffffffffffffffffffffffffffffff168152602001908152602001600020600088815260200190815260200160002060008082016000905560018201600061237a9190613f6a565b6002820160009055600382016000905560048201600061239a9190613f6a565b60058201600090556006820160006123b29190613f6a565b60078201600090556008820160006101000a81549060ff02191690556008820160016101000a81549060ff02191690556009820160006123f29190613f6a565b600a8201600090555050600560008973ffffffffffffffffffffffffffffffffffffffff1673ffffffffffffffffffffffffffffffffffffffff168152602001908152602001600020600081548092919061244c9061539b565b91905055507f8bea23a38d8f27c2a4ececcbb2e39dd389c7371d71f1d3d21345fa25d5665abb888789600660008b73ffffffffffffffffffffffffffffffffffffffff1673ffffffffffffffffffffffffffffffffffffffff1681526020019081526020016000206000868152602001908152602001600020600701546040516124d994939291906153c5565b60405180910390a15050505050505050565b60008054906101000a900473ffffffffffffffffffffffffffffffffffffffff1673ffffffffffffffffffffffffffffffffffffffff163373ffffffffffffffffffffffffffffffffffffffff1614612579576040517f08c379a000000000000000000000000000000000000000000000000000000000815260040161257090615133565b60405180910390fd5b828160011515600760008473ffffffffffffffffffffffffffffffffffffffff1673ffffffffffffffffffffffffffffffffffffffff168152602001908152602001600020600083815260200190815260200160002060070160019054906101000a900460ff16151514612622576040517f08c379a000000000000000000000000000000000000000000000000000000000815260040161261990614c94565b60405180910390fd5b84836002806006811115612639576126386145c3565b5b600760008573ffffffffffffffffffffffffffffffffffffffff1673ffffffffffffffffffffffffffffffffffffffff168152602001908152602001600020600084815260200190815260200160002060070160009054906101000a900460ff1660068111156126ac576126ab6145c3565b5b146126ec576040517f08c379a00000000000000000000000000000000000000000000000000000000081526004016126e390614d00565b60405180910390fd5b6006600760008a73ffffffffffffffffffffffffffffffffffffffff1673ffffffffffffffffffffffffffffffffffffffff168152602001908152602001600020600088815260200190815260200160002060070160006101000a81548160ff02191690836006811115612763576127626145c3565b5b02179055506003600660008a73ffffffffffffffffffffffffffffffffffffffff1673ffffffffffffffffffffffffffffffffffffffff168152602001908152602001600020600088815260200190815260200160002060080160016101000a81548160ff021916908360038111156127df576127de6145c3565b5b02179055507f775a814133db64b272f053cebe7e3f81af7fbc555cb07ee614a9303eb06c8ee58887600360405161281893929190614ed6565b60405180910390a17f7aa644fa41c34822ba1ee2f1822620f973997f15c9e06bf2125442b1d4a765308887600660405161285493929190614de7565b60405180910390a17f8bea23a38d8f27c2a4ececcbb2e39dd389c7371d71f1d3d21345fa25d5665abb88888861288a8c8b612d40565b60405161289a94939291906153c5565b60405180910390a15050505050505050565b838260011515600760008473ffffffffffffffffffffffffffffffffffffffff1673ffffffffffffffffffffffffffffffffffffffff168152602001908152602001600020600083815260200190815260200160002060070160019054906101000a900460ff16151514612955576040517f08c379a000000000000000000000000000000000000000000000000000000000815260040161294c90614c94565b60405180910390fd5b8584600380600681111561296c5761296b6145c3565b5b600760008573ffffffffffffffffffffffffffffffffffffffff1673ffffffffffffffffffffffffffffffffffffffff168152602001908152602001600020600084815260200190815260200160002060070160009054906101000a900460ff1660068111156129df576129de6145c3565b5b14612a1f576040517f08c379a0000000000000000000000000000000000000000000000000000000008152600401612a1690614d00565b60405180910390fd5b8773ffffffffffffffffffffffffffffffffffffffff163373ffffffffffffffffffffffffffffffffffffffff1614612a8d576040517f08c379a0000000000000000000000000000000000000000000000000000000008152600401612a8490614db8565b60405180910390fd5b85600760008b73ffffffffffffffffffffffffffffffffffffffff1673ffffffffffffffffffffffffffffffffffffffff16815260200190815260200160002060008981526020019081526020016000206006019080519060200190612af4929190613e57565b506002600760008b73ffffffffffffffffffffffffffffffffffffffff1673ffffffffffffffffffffffffffffffffffffffff168152602001908152602001600020600089815260200190815260200160002060070160006101000a81548160ff02191690836006811115612b6c57612b6b6145c3565b5b02179055507f7aa644fa41c34822ba1ee2f1822620f973997f15c9e06bf2125442b1d4a7653089886002604051612ba593929190614de7565b60405180910390a1505050505050505050565b6000600560008373ffffffffffffffffffffffffffffffffffffffff1673ffffffffffffffffffffffffffffffffffffffff168152602001908152602001600020549050919050565b6000828260011515600660008473ffffffffffffffffffffffffffffffffffffffff1673ffffffffffffffffffffffffffffffffffffffff168152602001908152602001600020600083815260200190815260200160002060080160009054906101000a900460ff16151514612cac576040517f08c379a0000000000000000000000000000000000000000000000000000000008152600401612ca390614bc7565b60405180910390fd5b600660008673ffffffffffffffffffffffffffffffffffffffff1673ffffffffffffffffffffffffffffffffffffffff168152602001908152602001600020600085815260200190815260200160002060080160019054906101000a900460ff169250505092915050565b60008060009054906101000a900473ffffffffffffffffffffffffffffffffffffffff16905090565b6000826000600460008373ffffffffffffffffffffffffffffffffffffffff1673ffffffffffffffffffffffffffffffffffffffff168152602001908152602001600020541415612dc6576040517f08c379a0000000000000000000000000000000000000000000000000000000008152600401612dbd90614b35565b60405180910390fd5b838360011515600660008473ffffffffffffffffffffffffffffffffffffffff1673ffffffffffffffffffffffffffffffffffffffff168152602001908152602001600020600083815260200190815260200160002060080160009054906101000a900460ff16151514612e6f576040517f08c379a0000000000000000000000000000000000000000000000000000000008152600401612e6690614bc7565b60405180910390fd5b600660008773ffffffffffffffffffffffffffffffffffffffff1673ffffffffffffffffffffffffffffffffffffffff168152602001908152602001600020600086815260200190815260200160002060070154935050505092915050565b60008054906101000a900473ffffffffffffffffffffffffffffffffffffffff1673ffffffffffffffffffffffffffffffffffffffff163373ffffffffffffffffffffffffffffffffffffffff1614612f5c576040517f08c379a0000000000000000000000000000000000000000000000000000000008152600401612f5390615133565b60405180910390fd5b806000806101000a81548173ffffffffffffffffffffffffffffffffffffffff021916908373ffffffffffffffffffffffffffffffffffffffff16021790555050565b6000806000806060868660011515600760008473ffffffffffffffffffffffffffffffffffffffff1673ffffffffffffffffffffffffffffffffffffffff168152602001908152602001600020600083815260200190815260200160002060070160019054906101000a900460ff16151514613050576040517f08c379a000000000000000000000000000000000000000000000000000000000815260040161304790614c94565b60405180910390fd5b600760008a73ffffffffffffffffffffffffffffffffffffffff1673ffffffffffffffffffffffffffffffffffffffff168152602001908152602001600020600089815260200190815260200160002060000154600760008b73ffffffffffffffffffffffffffffffffffffffff1673ffffffffffffffffffffffffffffffffffffffff16815260200190815260200160002060008a815260200190815260200160002060010160009054906101000a900473ffffffffffffffffffffffffffffffffffffffff16600760008c73ffffffffffffffffffffffffffffffffffffffff1673ffffffffffffffffffffffffffffffffffffffff16815260200190815260200160002060008b815260200190815260200160002060020160009054906101000a900473ffffffffffffffffffffffffffffffffffffffff16600760008d73ffffffffffffffffffffffffffffffffffffffff1673ffffffffffffffffffffffffffffffffffffffff16815260200190815260200160002060008c815260200190815260200160002060030154600760008e73ffffffffffffffffffffffffffffffffffffffff1673ffffffffffffffffffffffffffffffffffffffff16815260200190815260200160002060008d815260200190815260200160002060040180805461323f90614c16565b80601f016020809104026020016040519081016040528092919081815260200182805461326b90614c16565b80156132b85780601f1061328d576101008083540402835291602001916132b8565b820191906000526020600020905b81548152906001019060200180831161329b57829003601f168201915b505050505090509650965096509650965050509295509295909350565b60008054906101000a900473ffffffffffffffffffffffffffffffffffffffff1673ffffffffffffffffffffffffffffffffffffffff163373ffffffffffffffffffffffffffffffffffffffff1614613363576040517f08c379a000000000000000000000000000000000000000000000000000000000815260040161335a90615133565b60405180910390fd5b816000600460008373ffffffffffffffffffffffffffffffffffffffff1673ffffffffffffffffffffffffffffffffffffffff1681526020019081526020016000205414156133e7576040517f08c379a00000000000000000000000000000000000000000000000000000000081526004016133de90614b35565b60405180910390fd5b60008373ffffffffffffffffffffffffffffffffffffffff168360405161340d90615184565b60006040518083038185875af1925050503d806000811461344a576040519150601f19603f3d011682016040523d82523d6000602084013e61344f565b606091505b5050905080613493576040517f08c379a000000000000000000000000000000000000000000000000000000000815260040161348a906151e5565b60405180910390fd5b7fb513ce46aec727e4d32cc9b305fc53369326c8c65e4ab9b94bc5877c7add829084846040516134c4929190614ac0565b60405180910390a150505050565b818160011515600760008473ffffffffffffffffffffffffffffffffffffffff1673ffffffffffffffffffffffffffffffffffffffff168152602001908152602001600020600083815260200190815260200160002060070160019054906101000a900460ff1615151461357b576040517f08c379a000000000000000000000000000000000000000000000000000000000815260040161357290614c94565b60405180910390fd5b83836000600760008473ffffffffffffffffffffffffffffffffffffffff1673ffffffffffffffffffffffffffffffffffffffff168152602001908152602001600020600083815260200190815260200160002060070160009054906101000a900460ff169050600460068111156135f6576135f56145c3565b5b816006811115613609576136086145c3565b5b14806136385750600680811115613623576136226145c3565b5b816006811115613636576136356145c3565b5b145b80613667575060026006811115613652576136516145c3565b5b816006811115613665576136646145c3565b5b145b80613696575060056006811115613681576136806145c3565b5b816006811115613694576136936145c3565b5b145b156136d6576040517f08c379a00000000000000000000000000000000000000000000000000000000081526004016136cd90615456565b60405180910390fd5b8673ffffffffffffffffffffffffffffffffffffffff163373ffffffffffffffffffffffffffffffffffffffff1614613744576040517f08c379a000000000000000000000000000000000000000000000000000000000815260040161373b9061550e565b60405180910390fd5b6004600760008973ffffffffffffffffffffffffffffffffffffffff1673ffffffffffffffffffffffffffffffffffffffff168152602001908152602001600020600088815260200190815260200160002060070160006101000a81548160ff021916908360068111156137bb576137ba6145c3565b5b02179055507f7aa644fa41c34822ba1ee2f1822620f973997f15c9e06bf2125442b1d4a76530878760046040516137f493929190614de7565b60405180910390a150505050505050565b836000600460008373ffffffffffffffffffffffffffffffffffffffff1673ffffffffffffffffffffffffffffffffffffffff168152602001908152602001600020541415613889576040517f08c379a000000000000000000000000000000000000000000000000000000000815260040161388090614b35565b60405180910390fd5b826000600460008373ffffffffffffffffffffffffffffffffffffffff1673ffffffffffffffffffffffffffffffffffffffff16815260200190815260200160002054141561390d576040517f08c379a000000000000000000000000000000000000000000000000000000000815260040161390490614b35565b60405180910390fd5b858560011515600660008473ffffffffffffffffffffffffffffffffffffffff1673ffffffffffffffffffffffffffffffffffffffff168152602001908152602001600020600083815260200190815260200160002060080160009054906101000a900460ff161515146139b6576040517f08c379a00000000000000000000000000000000000000000000000000000000081526004016139ad90614bc7565b60405180910390fd5b8787600060038111156139cc576139cb6145c3565b5b600660008473ffffffffffffffffffffffffffffffffffffffff1673ffffffffffffffffffffffffffffffffffffffff168152602001908152602001600020600083815260200190815260200160002060080160019054906101000a900460ff166003811115613a3f57613a3e6145c3565b5b14613a4957600080fd5b898960001515600760008473ffffffffffffffffffffffffffffffffffffffff1673ffffffffffffffffffffffffffffffffffffffff168152602001908152602001600020600083815260200190815260200160002060070160019054906101000a900460ff16151514613af2576040517f08c379a0000000000000000000000000000000000000000000000000000000008152600401613ae99061557a565b60405180910390fd5b60036000815480929190613b0590614a18565b919050555060405180610120016040528060035481526020018d73ffffffffffffffffffffffffffffffffffffffff1681526020018b73ffffffffffffffffffffffffffffffffffffffff168152602001613b608e8e612d40565b81526020018a815260200160405180602001604052806000815250815260200160405180602001604052806000815250815260200160006006811115613ba957613ba86145c3565b5b815260200160011515815250600760008e73ffffffffffffffffffffffffffffffffffffffff1673ffffffffffffffffffffffffffffffffffffffff16815260200190815260200160002060008d81526020019081526020016000206000820151816000015560208201518160010160006101000a81548173ffffffffffffffffffffffffffffffffffffffff021916908373ffffffffffffffffffffffffffffffffffffffff16021790555060408201518160020160006101000a81548173ffffffffffffffffffffffffffffffffffffffff021916908373ffffffffffffffffffffffffffffffffffffffff160217905550606082015181600301556080820151816004019080519060200190613cc3929190613e57565b5060a0820151816005019080519060200190613ce0929190613e57565b5060c0820151816006019080519060200190613cfd929190613e57565b5060e08201518160070160006101000a81548160ff02191690836006811115613d2957613d286145c3565b5b02179055506101008201518160070160016101000a81548160ff0219169083151502179055509050506001600660008e73ffffffffffffffffffffffffffffffffffffffff1673ffffffffffffffffffffffffffffffffffffffff16815260200190815260200160002060008d815260200190815260200160002060080160016101000a81548160ff02191690836003811115613dc957613dc86145c3565b5b02179055507f775a814133db64b272f053cebe7e3f81af7fbc555cb07ee614a9303eb06c8ee58c8c6001604051613e0293929190614ed6565b60405180910390a17fe42073240d6159ea89d9b22dcb029a8f621bf9508949b85e09e3f1e70c41c0e58c8b6003548e604051613e41949392919061559a565b60405180910390a1505050505050505050505050565b828054613e6390614c16565b90600052602060002090601f016020900481019282613e855760008555613ecc565b82601f10613e9e57805160ff1916838001178555613ecc565b82800160010185558215613ecc579182015b82811115613ecb578251825591602001919060010190613eb0565b5b509050613ed99190613faa565b5090565b828054613ee990614c16565b90600052602060002090601f016020900481019282613f0b5760008555613f59565b82601f10613f1c5780548555613f59565b82800160010185558215613f5957600052602060002091601f016020900482015b82811115613f58578254825591600101919060010190613f3d565b5b509050613f669190613faa565b5090565b508054613f7690614c16565b6000825580601f10613f885750613fa7565b601f016020900490600052602060002090810190613fa69190613faa565b5b50565b5b80821115613fc3576000816000905550600101613fab565b5090565b6000604051905090565b600080fd5b600080fd5b600073ffffffffffffffffffffffffffffffffffffffff82169050919050565b600061400682613fdb565b9050919050565b61401681613ffb565b811461402157600080fd5b50565b6000813590506140338161400d565b92915050565b60006020828403121561404f5761404e613fd1565b5b600061405d84828501614024565b91505092915050565b6000819050919050565b61407981614066565b811461408457600080fd5b50565b60008135905061409681614070565b92915050565b600080604083850312156140b3576140b2613fd1565b5b60006140c185828601614024565b92505060206140d285828601614087565b9150509250929050565b600081519050919050565b600082825260208201905092915050565b60005b838110156141165780820151818401526020810190506140fb565b83811115614125576000848401525b50505050565b6000601f19601f8301169050919050565b6000614147826140dc565b61415181856140e7565b93506141618185602086016140f8565b61416a8161412b565b840191505092915050565b61417e81614066565b82525050565b6000608082019050818103600083015261419e818761413c565b90506141ad6020830186614175565b81810360408301526141bf818561413c565b905081810360608301526141d3818461413c565b905095945050505050565b60006020820190506141f36000830184614175565b92915050565b600080fd5b600080fd5b7f4e487b7100000000000000000000000000000000000000000000000000000000600052604160045260246000fd5b61423b8261412b565b810181811067ffffffffffffffff8211171561425a57614259614203565b5b80604052505050565b600061426d613fc7565b90506142798282614232565b919050565b600067ffffffffffffffff82111561429957614298614203565b5b6142a28261412b565b9050602081019050919050565b82818337600083830152505050565b60006142d16142cc8461427e565b614263565b9050828152602081018484840111156142ed576142ec6141fe565b5b6142f88482856142af565b509392505050565b600082601f830112614315576143146141f9565b5b81356143258482602086016142be565b91505092915050565b60008060006060848603121561434757614346613fd1565b5b600061435586828701614024565b935050602061436686828701614087565b925050604084013567ffffffffffffffff81111561438757614386613fd6565b5b61439386828701614300565b9150509250925092565b6000806000806000806000806000806101408b8d0312156143c1576143c0613fd1565b5b60006143cf8d828e01614024565b9a505060208b013567ffffffffffffffff8111156143f0576143ef613fd6565b5b6143fc8d828e01614300565b995050604061440d8d828e01614087565b985050606061441e8d828e01614087565b97505060808b013567ffffffffffffffff81111561443f5761443e613fd6565b5b61444b8d828e01614300565b96505060a061445c8d828e01614087565b95505060c08b013567ffffffffffffffff81111561447d5761447c613fd6565b5b6144898d828e01614300565b94505060e061449a8d828e01614087565b9350506101008b013567ffffffffffffffff8111156144bc576144bb613fd6565b5b6144c88d828e01614300565b9250506101206144da8d828e01614087565b9150509295989b9194979a5092959850565b60008115159050919050565b614501816144ec565b811461450c57600080fd5b50565b60008135905061451e816144f8565b92915050565b60008060006060848603121561453d5761453c613fd1565b5b600061454b86828701614024565b935050602061455c86828701614087565b925050604061456d8682870161450f565b9150509250925092565b60006080820190508181036000830152614591818761413c565b90506145a06020830186614175565b6145ad6040830185614175565b6145ba6060830184614175565b95945050505050565b7f4e487b7100000000000000000000000000000000000000000000000000000000600052602160045260246000fd5b60078110614603576146026145c3565b5b50565b6000819050614614826145f2565b919050565b600061462482614606565b9050919050565b61463481614619565b82525050565b600060208201905061464f600083018461462b565b92915050565b61465e816144ec565b82525050565b60006020820190506146796000830184614655565b92915050565b60008060006060848603121561469857614697613fd1565b5b60006146a686828701614024565b93505060206146b786828701614087565b92505060406146c886828701614024565b9150509250925092565b6000806000606084860312156146eb576146ea613fd1565b5b60006146f986828701614024565b935050602061470a86828701614024565b925050604061471b86828701614087565b9150509250925092565b6000806000806080858703121561473f5761473e613fd1565b5b600061474d87828801614024565b945050602061475e87828801614024565b935050604061476f87828801614087565b925050606085013567ffffffffffffffff8111156147905761478f613fd6565b5b61479c87828801614300565b91505092959194509250565b60006147b382613fdb565b9050919050565b6147c3816147a8565b81146147ce57600080fd5b50565b6000813590506147e0816147ba565b92915050565b6000602082840312156147fc576147fb613fd1565b5b600061480a848285016147d1565b91505092915050565b60048110614824576148236145c3565b5b50565b600081905061483582614813565b919050565b600061484582614827565b9050919050565b6148558161483a565b82525050565b6000602082019050614870600083018461484c565b92915050565b61487f816147a8565b82525050565b600060208201905061489a6000830184614876565b92915050565b600060a0820190506148b56000830188614175565b6148c26020830187614876565b6148cf6040830186614876565b6148dc6060830185614175565b81810360808301526148ee818461413c565b90509695505050505050565b6000806000806080858703121561491457614913613fd1565b5b600061492287828801614024565b945050602061493387828801614087565b935050604061494487828801614024565b925050606085013567ffffffffffffffff81111561496557614964613fd6565b5b61497187828801614300565b91505092959194509250565b7f4c616e646c6f726420616c7265616479206578697374732e0000000000000000600082015250565b60006149b36018836140e7565b91506149be8261497d565b602082019050919050565b600060208201905081810360008301526149e2816149a6565b9050919050565b7f4e487b7100000000000000000000000000000000000000000000000000000000600052601160045260246000fd5b6000614a2382614066565b91507fffffffffffffffffffffffffffffffffffffffffffffffffffffffffffffffff821415614a5657614a556149e9565b5b600182019050919050565b6000819050919050565b6000614a86614a81614a7c84613fdb565b614a61565b613fdb565b9050919050565b6000614a9882614a6b565b9050919050565b6000614aaa82614a8d565b9050919050565b614aba81614a9f565b82525050565b6000604082019050614ad56000830185614ab1565b614ae26020830184614175565b9392505050565b7f4c616e646c6f726420646f6573206e6f742065786973742e0000000000000000600082015250565b6000614b1f6018836140e7565b9150614b2a82614ae9565b602082019050919050565b60006020820190508181036000830152614b4e81614b12565b9050919050565b7f50726f706572747920646f6573206e6f7420657869737420666f72207468697360008201527f206c616e646c6f72642e00000000000000000000000000000000000000000000602082015250565b6000614bb1602a836140e7565b9150614bbc82614b55565b604082019050919050565b60006020820190508181036000830152614be081614ba4565b9050919050565b7f4e487b7100000000000000000000000000000000000000000000000000000000600052602260045260246000fd5b60006002820490506001821680614c2e57607f821691505b60208210811415614c4257614c41614be7565b5b50919050565b7f41677265656d656e7420646f6573206e6f742065786973742e00000000000000600082015250565b6000614c7e6019836140e7565b9150614c8982614c48565b602082019050919050565b60006020820190508181036000830152614cad81614c71565b9050919050565b7f41677265656d656e742073746174757320696e76616c69642e00000000000000600082015250565b6000614cea6019836140e7565b9150614cf582614cb4565b602082019050919050565b60006020820190508181036000830152614d1981614cdd565b9050919050565b7f596f752063616e6e6f74207369676e207468652061677265656d656e7421204f60008201527f6e6c7920746865206f776e65722063616e207369676e2074686520616772656560208201527f6d656e742e000000000000000000000000000000000000000000000000000000604082015250565b6000614da26045836140e7565b9150614dad82614d20565b606082019050919050565b60006020820190508181036000830152614dd181614d95565b9050919050565b614de181613ffb565b82525050565b6000606082019050614dfc6000830186614dd8565b614e096020830185614175565b614e16604083018461462b565b949350505050565b7f596f752063616e6e6f742063726561746520612070726f706572747920666f7260008201527f20746865207573657221204f6e6c7920746865206f776e65722063616e20637260208201527f65617465207468652070726f70657274792e0000000000000000000000000000604082015250565b6000614ea06052836140e7565b9150614eab82614e1e565b606082019050919050565b60006020820190508181036000830152614ecf81614e93565b9050919050565b6000606082019050614eeb6000830186614dd8565b614ef86020830185614175565b614f05604083018461484c565b949350505050565b600061018082019050614f23600083018f614dd8565b614f30602083018e614175565b614f3d604083018d614175565b614f4a606083018c614175565b8181036080830152614f5c818b61413c565b905081810360a0830152614f70818a61413c565b9050614f7f60c0830189614175565b81810360e0830152614f91818861413c565b9050614fa1610100830187614175565b614faf61012083018661484c565b818103610140830152614fc2818561413c565b9050614fd2610160830184614175565b9d9c50505050505050505050505050565b7f596f752063616e6e6f74206d616b652061206465636973696f6e206f6e20746860008201527f652061677265656d656e7421204f6e6c7920746865206f776e65722063616e2060208201527f6d616b652061206465636973696f6e206f6e207468652061677265656d656e7460408201527f2e00000000000000000000000000000000000000000000000000000000000000606082015250565b600061508b6061836140e7565b915061509682614fe3565b608082019050919050565b600060208201905081810360008301526150ba8161507e565b9050919050565b7f4f6e6c7920746865206f776e65722063616e2072756e20746869732066756e6360008201527f74696f6e2e000000000000000000000000000000000000000000000000000000602082015250565b600061511d6025836140e7565b9150615128826150c1565b604082019050919050565b6000602082019050818103600083015261514c81615110565b9050919050565b600081905092915050565b50565b600061516e600083615153565b91506151798261515e565b600082019050919050565b600061518f82615161565b9150819050919050565b7f4661696c656420746f2073656e6420616d6f756e742100000000000000000000600082015250565b60006151cf6016836140e7565b91506151da82615199565b602082019050919050565b600060208201905081810360008301526151fe816151c2565b9050919050565b7f596f752063616e6e6f74207472616e73666572207468652070726f706572747960008201527f21204f6e6c7920746865206f776e65722063616e207472616e7366657220746860208201527f652070726f70657274792e000000000000000000000000000000000000000000604082015250565b6000615287604b836140e7565b915061529282615205565b606082019050919050565b600060208201905081810360008301526152b68161527a565b9050919050565b7f596f752063616e6e6f74207472616e73666572207468652070726f706572747960008201527f20746f207468652073616d6520616464726573732120427579657220616e642060208201527f4c616e646c6f726420416464726573732073686f756c6420626520646966666560408201527f72656e742e000000000000000000000000000000000000000000000000000000606082015250565b60006153656065836140e7565b9150615370826152bd565b608082019050919050565b6000602082019050818103600083015261539481615358565b9050919050565b60006153a682614066565b915060008214156153ba576153b96149e9565b5b600182039050919050565b60006080820190506153da6000830187614ab1565b6153e76020830186614ab1565b6153f46040830185614175565b6154016060830184614175565b95945050505050565b7f41677265656d656e742063616e6e6f742062652063616e63656c6c65642e0000600082015250565b6000615440601e836140e7565b915061544b8261540a565b602082019050919050565b6000602082019050818103600083015261546f81615433565b9050919050565b7f596f752063616e6e6f742063616e63656c207468652061677265656d656e742160008201527f204f6e6c7920746865206f776e65722063616e2063616e63656c20746865206160208201527f677265656d656e742e0000000000000000000000000000000000000000000000604082015250565b60006154f86049836140e7565b915061550382615476565b606082019050919050565b60006020820190508181036000830152615527816154eb565b9050919050565b7f41677265656d656e7420616c7265616479206578697374732e00000000000000600082015250565b60006155646019836140e7565b915061556f8261552e565b602082019050919050565b6000602082019050818103600083015261559381615557565b9050919050565b60006080820190506155af6000830187614dd8565b6155bc6020830186614dd8565b6155c96040830185614175565b6155d66060830184614175565b9594505050505056fea264697066735822122002c6c1a0d5021c1d1a58276aceab79bb5401e9212f4c4b15154d0a9ab6a09dcb64736f6c63430008090033",
  "linkReferences": {},
  "deployedLinkReferences": {}
}