{
  "_format": "hh-sol-artifact-1",
  "contractName": "realEstate",
  "sourceName": "contracts/realEstate.sol",
  "abi": [
    {
      "inputs": [],
      "stateMutability": "payable",
      "type": "constructor"
    },
    {
      "anonymous": false,
      "inputs": [
        {
          "indexed": false,
          "internalType": "address payable",
          "name": "_landlordAddress",
          "type": "address"
        },
        {
          "indexed": false,
          "internalType": "address payable",
          "name": "_buyerAddress",
          "type": "address"
        },
        {
          "indexed": false,
          "internalType": "uint256",
          "name": "_agreementId",
          "type": "uint256"
        },
        {
          "indexed": false,
          "internalType": "uint256",
          "name": "_propertyID",
          "type": "uint256"
        }
      ],
      "name": "agreementDraftSubmitted",
      "type": "event"
    },
    {
      "anonymous": false,
      "inputs": [
        {
          "indexed": false,
          "internalType": "address payable",
          "name": "_landlordAddress",
          "type": "address"
        },
        {
          "indexed": false,
          "internalType": "uint256",
          "name": "_propertyId",
          "type": "uint256"
        },
        {
          "indexed": false,
          "internalType": "enum realEstate.AgreementStatus",
          "name": "_status",
          "type": "uint8"
        }
      ],
      "name": "agreementStatusChanged",
      "type": "event"
    },
    {
      "anonymous": false,
      "inputs": [
        {
          "indexed": false,
          "internalType": "address",
          "name": "_to",
          "type": "address"
        },
        {
          "indexed": false,
          "internalType": "uint256",
          "name": "_amount",
          "type": "uint256"
        }
      ],
      "name": "amountTransfered",
      "type": "event"
    },
    {
      "anonymous": false,
      "inputs": [
        {
          "indexed": false,
          "internalType": "address",
          "name": "_landlordAddress",
          "type": "address"
        },
        {
          "indexed": false,
          "internalType": "uint256",
          "name": "_landlordId",
          "type": "uint256"
        }
      ],
      "name": "newLandlordAdded",
      "type": "event"
    },
    {
      "anonymous": false,
      "inputs": [
        {
          "indexed": false,
          "internalType": "address payable",
          "name": "landlordAddress",
          "type": "address"
        },
        {
          "indexed": false,
          "internalType": "uint256",
          "name": "_propertyId",
          "type": "uint256"
        },
        {
          "indexed": false,
          "internalType": "string",
          "name": "streetName",
          "type": "string"
        },
        {
          "indexed": false,
          "internalType": "uint256",
          "name": "area",
          "type": "uint256"
        },
        {
          "indexed": false,
          "internalType": "string",
          "name": "apartmentNum",
          "type": "string"
        },
        {
          "indexed": false,
          "internalType": "uint256",
          "name": "listedPrice",
          "type": "uint256"
        },
        {
          "indexed": false,
          "internalType": "enum realEstate.properyStatus",
          "name": "propStatus",
          "type": "uint8"
        },
        {
          "indexed": false,
          "internalType": "string",
          "name": "ipfsHash",
          "type": "string"
        }
      ],
      "name": "newPropertyAdded",
      "type": "event"
    },
    {
      "anonymous": false,
      "inputs": [
        {
          "indexed": false,
          "internalType": "address",
          "name": "_landlordAddress",
          "type": "address"
        },
        {
          "indexed": false,
          "internalType": "address",
          "name": "_buyerAddress",
          "type": "address"
        },
        {
          "indexed": false,
          "internalType": "uint256",
          "name": "_propertyID",
          "type": "uint256"
        },
        {
          "indexed": false,
          "internalType": "uint256",
          "name": "_price",
          "type": "uint256"
        }
      ],
      "name": "propertTransfered",
      "type": "event"
    },
    {
      "anonymous": false,
      "inputs": [
        {
          "indexed": false,
          "internalType": "address payable",
          "name": "_landlordAddress",
          "type": "address"
        },
        {
          "indexed": false,
          "internalType": "uint256",
          "name": "_propertyId",
          "type": "uint256"
        },
        {
          "indexed": false,
          "internalType": "enum realEstate.properyStatus",
          "name": "_status",
          "type": "uint8"
        }
      ],
      "name": "propertyStatusChanged",
      "type": "event"
    },
    {
      "stateMutability": "payable",
      "type": "fallback"
    },
    {
      "inputs": [
        {
          "internalType": "address payable",
          "name": "_landlordAddress",
          "type": "address"
        }
      ],
      "name": "addLandlord",
      "outputs": [],
      "stateMutability": "nonpayable",
      "type": "function"
    },
    {
      "inputs": [
        {
          "internalType": "address payable",
          "name": "_landlordAddress",
          "type": "address"
        },
        {
          "internalType": "uint256",
          "name": "_propertyId",
          "type": "uint256"
        },
        {
          "internalType": "bool",
          "name": "decision",
          "type": "bool"
        }
      ],
      "name": "agreementDecision",
      "outputs": [],
      "stateMutability": "nonpayable",
      "type": "function"
    },
    {
      "inputs": [
        {
          "internalType": "address payable",
          "name": "_landlordAddress",
          "type": "address"
        },
        {
          "internalType": "address payable",
          "name": "_buyerAddress",
          "type": "address"
        },
        {
          "internalType": "uint256",
          "name": "_propertyId",
          "type": "uint256"
        },
        {
          "internalType": "string",
          "name": "_buyerSignedHash",
          "type": "string"
        }
      ],
      "name": "buyerSignedAgreement",
      "outputs": [],
      "stateMutability": "nonpayable",
      "type": "function"
    },
    {
      "inputs": [
        {
          "internalType": "address payable",
          "name": "_landlordAddress",
          "type": "address"
        },
        {
          "internalType": "uint256",
          "name": "_propertyId",
          "type": "uint256"
        }
      ],
      "name": "cancelAgreement",
      "outputs": [],
      "stateMutability": "nonpayable",
      "type": "function"
    },
    {
      "inputs": [
        {
          "internalType": "address",
          "name": "newOwner",
          "type": "address"
        }
      ],
      "name": "changeOwner",
      "outputs": [],
      "stateMutability": "nonpayable",
      "type": "function"
    },
    {
      "inputs": [
        {
          "internalType": "address payable",
          "name": "_landlordAddress",
          "type": "address"
        },
        {
          "internalType": "uint256",
          "name": "_propertyId",
          "type": "uint256"
        }
      ],
      "name": "checkPropertyExists",
      "outputs": [
        {
          "internalType": "bool",
          "name": "",
          "type": "bool"
        }
      ],
      "stateMutability": "view",
      "type": "function"
    },
    {
      "inputs": [
        {
          "internalType": "address payable",
          "name": "_landlordAddress",
          "type": "address"
        },
        {
          "internalType": "address payable",
          "name": "_buyerAddress",
          "type": "address"
        },
        {
          "internalType": "uint256",
          "name": "_propertyId",
          "type": "uint256"
        }
      ],
      "name": "completeAgreement",
      "outputs": [],
      "stateMutability": "payable",
      "type": "function"
    },
    {
      "inputs": [
        {
          "internalType": "address payable",
          "name": "_landlordAddress",
          "type": "address"
        },
        {
          "internalType": "string",
          "name": "_streetName",
          "type": "string"
        },
        {
          "internalType": "uint256",
          "name": "_area",
          "type": "uint256"
        },
        {
          "internalType": "string",
          "name": "_apartmentNum",
          "type": "string"
        },
        {
          "internalType": "uint256",
          "name": "_listedPrice",
          "type": "uint256"
        },
        {
          "internalType": "string",
          "name": "_ipfsHash",
          "type": "string"
        }
      ],
      "name": "createPropertyListing",
      "outputs": [],
      "stateMutability": "payable",
      "type": "function"
    },
    {
      "inputs": [
        {
          "internalType": "address payable",
          "name": "_landlordAddress",
          "type": "address"
        },
        {
          "internalType": "uint256",
          "name": "_propertyId",
          "type": "uint256"
        }
      ],
      "name": "getAgreement",
      "outputs": [
        {
          "internalType": "uint256",
          "name": "",
          "type": "uint256"
        },
        {
          "internalType": "address",
          "name": "",
          "type": "address"
        },
        {
          "internalType": "address",
          "name": "",
          "type": "address"
        },
        {
          "internalType": "uint256",
          "name": "",
          "type": "uint256"
        },
        {
          "internalType": "string",
          "name": "",
          "type": "string"
        }
      ],
      "stateMutability": "view",
      "type": "function"
    },
    {
      "inputs": [
        {
          "internalType": "address payable",
          "name": "_landlordAddress",
          "type": "address"
        },
        {
          "internalType": "uint256",
          "name": "_propertyId",
          "type": "uint256"
        }
      ],
      "name": "getAgreementStatus",
      "outputs": [
        {
          "internalType": "enum realEstate.AgreementStatus",
          "name": "",
          "type": "uint8"
        }
      ],
      "stateMutability": "view",
      "type": "function"
    },
    {
      "inputs": [],
      "name": "getBalance",
      "outputs": [
        {
          "internalType": "uint256",
          "name": "",
          "type": "uint256"
        }
      ],
      "stateMutability": "view",
      "type": "function"
    },
    {
      "inputs": [
        {
          "internalType": "address",
          "name": "_landlordAddress",
          "type": "address"
        }
      ],
      "name": "getLandlordCounter",
      "outputs": [
        {
          "internalType": "uint256",
          "name": "",
          "type": "uint256"
        }
      ],
      "stateMutability": "view",
      "type": "function"
    },
    {
      "inputs": [
        {
          "internalType": "address payable",
          "name": "_landlordAddress",
          "type": "address"
        },
        {
          "internalType": "uint256",
          "name": "_propertyID",
          "type": "uint256"
        }
      ],
      "name": "getProperty",
      "outputs": [
        {
          "internalType": "string",
          "name": "",
          "type": "string"
        },
        {
          "internalType": "uint256",
          "name": "",
          "type": "uint256"
        },
        {
          "internalType": "string",
          "name": "",
          "type": "string"
        },
        {
          "internalType": "uint256",
          "name": "",
          "type": "uint256"
        },
        {
          "internalType": "string",
          "name": "",
          "type": "string"
        }
      ],
      "stateMutability": "view",
      "type": "function"
    },
    {
      "inputs": [
        {
          "internalType": "address payable",
          "name": "_landlordAddress",
          "type": "address"
        },
        {
          "internalType": "uint256",
          "name": "_propertyID",
          "type": "uint256"
        }
      ],
      "name": "getPropertyListedPrice",
      "outputs": [
        {
          "internalType": "uint256",
          "name": "",
          "type": "uint256"
        }
      ],
      "stateMutability": "view",
      "type": "function"
    },
    {
      "inputs": [
        {
          "internalType": "address payable",
          "name": "_landlordAddress",
          "type": "address"
        },
        {
          "internalType": "uint256",
          "name": "_propertyId",
          "type": "uint256"
        }
      ],
      "name": "getPropertyStatus",
      "outputs": [
        {
          "internalType": "enum realEstate.properyStatus",
          "name": "",
          "type": "uint8"
        }
      ],
      "stateMutability": "view",
      "type": "function"
    },
    {
      "inputs": [
        {
          "internalType": "address payable",
          "name": "_landlordAddress",
          "type": "address"
        },
        {
          "internalType": "uint256",
          "name": "_propertyId",
          "type": "uint256"
        },
        {
          "internalType": "string",
          "name": "_landlordSignedHash",
          "type": "string"
        }
      ],
      "name": "landlordSignedAgreement",
      "outputs": [],
      "stateMutability": "nonpayable",
      "type": "function"
    },
    {
      "inputs": [],
      "name": "owner",
      "outputs": [
        {
          "internalType": "address",
          "name": "",
          "type": "address"
        }
      ],
      "stateMutability": "view",
      "type": "function"
    },
    {
      "inputs": [
        {
          "internalType": "address payable",
          "name": "_landlordAddress",
          "type": "address"
        },
        {
          "internalType": "uint256",
          "name": "_propertyId",
          "type": "uint256"
        },
        {
          "internalType": "address payable",
          "name": "_buyerAddress",
          "type": "address"
        },
        {
          "internalType": "string",
          "name": "otherTerms",
          "type": "string"
        }
      ],
      "name": "submitDraft",
      "outputs": [],
      "stateMutability": "payable",
      "type": "function"
    },
    {
      "inputs": [
        {
          "internalType": "address payable",
          "name": "_landlordAddress",
          "type": "address"
        },
        {
          "internalType": "uint256",
          "name": "_amount",
          "type": "uint256"
        }
      ],
      "name": "transferAmount",
      "outputs": [],
      "stateMutability": "payable",
      "type": "function"
    },
    {
      "inputs": [
        {
          "internalType": "address payable",
          "name": "_landlordAddress",
          "type": "address"
        },
        {
          "internalType": "uint256",
          "name": "_propertyID",
          "type": "uint256"
        }
      ],
      "name": "transferAmountUsingPropertyID",
      "outputs": [],
      "stateMutability": "payable",
      "type": "function"
    },
    {
      "inputs": [
        {
          "internalType": "address payable",
          "name": "_landlordAddress",
          "type": "address"
        },
        {
          "internalType": "uint256",
          "name": "_propertyID",
          "type": "uint256"
        },
        {
          "internalType": "address payable",
          "name": "_buyerAddress",
          "type": "address"
        }
      ],
      "name": "transferProperty",
      "outputs": [],
      "stateMutability": "payable",
      "type": "function"
    },
    {
      "stateMutability": "payable",
      "type": "receive"
    }
  ],
  "bytecode": "0x6080604052336000806101000a81548173ffffffffffffffffffffffffffffffffffffffff021916908373ffffffffffffffffffffffffffffffffffffffff16021790555060006002819055506000600381905550614ffd806100636000396000f3fe60806040526004361061012e5760003560e01c806384325837116100ab578063b0a5ec241161006f578063b0a5ec24146103df578063b9cd563d14610420578063bfb6bd1f1461043c578063d7081e031461047d578063f32e47e114610499578063fc3beec5146104c257610135565b806384325837146102d45780638b3a8703146103115780638da5cb5b1461034e5780638e7fb85614610379578063a6f9dae1146103b657610135565b806357184c9c116100f257806357184c9c1461021a578063574600091461025757806361352d5e14610273578063693267961461028f578063753ccc8e146102ab57610135565b806301c9a2591461013757806312065fe0146101605780631ea42f9f1461018b57806330f3c3e8146101b45780634b59654a146101dd57610135565b3661013557005b005b34801561014357600080fd5b5061015e60048036038101906101599190613bee565b6104de565b005b34801561016c57600080fd5b50610175610643565b6040516101829190613c34565b60405180910390f35b34801561019757600080fd5b506101b260048036038101906101ad9190613dc1565b61064b565b005b3480156101c057600080fd5b506101db60048036038101906101d69190613e68565b610956565b005b3480156101e957600080fd5b5061020460048036038101906101ff9190613ebb565b610d75565b6040516102119190613f72565b60405180910390f35b34801561022657600080fd5b50610241600480360381019061023c9190613ebb565b610e8b565b60405161024e9190613f9c565b60405180910390f35b610271600480360381019061026c9190613ebb565b610ef6565b005b61028d60048036038101906102889190613fb7565b6111f7565b005b6102a960048036038101906102a4919061400a565b6117ec565b005b3480156102b757600080fd5b506102d260048036038101906102cd919061405d565b611bad565b005b3480156102e057600080fd5b506102fb60048036038101906102f6919061411e565b611eb9565b6040516103089190613c34565b60405180910390f35b34801561031d57600080fd5b5061033860048036038101906103339190613ebb565b611f02565b6040516103459190614193565b60405180910390f35b34801561035a57600080fd5b50610363612018565b60405161037091906141bd565b60405180910390f35b34801561038557600080fd5b506103a0600480360381019061039b9190613ebb565b612041565b6040516103ad9190613c34565b60405180910390f35b3480156103c257600080fd5b506103dd60048036038101906103d8919061411e565b6121cf565b005b3480156103eb57600080fd5b5061040660048036038101906104019190613ebb565b6122a0565b604051610417959493929190614260565b60405180910390f35b61043a600480360381019061043591906142ba565b6125d6565b005b34801561044857600080fd5b50610463600480360381019061045e9190613ebb565b6129f7565b60405161047495949392919061439b565b60405180910390f35b61049760048036038101906104929190613ebb565b612e8a565b005b3480156104a557600080fd5b506104c060048036038101906104bb9190613ebb565b613087565b005b6104dc60048036038101906104d79190614403565b6133ba565b005b806000600460008373ffffffffffffffffffffffffffffffffffffffff1673ffffffffffffffffffffffffffffffffffffffff1681526020019081526020016000205414610561576040517f08c379a0000000000000000000000000000000000000000000000000000000008152600401610558906144d2565b60405180910390fd5b6000600560008473ffffffffffffffffffffffffffffffffffffffff1673ffffffffffffffffffffffffffffffffffffffff16815260200190815260200160002081905550600260008154809291906105b990614521565b9190505550600254600460008473ffffffffffffffffffffffffffffffffffffffff1673ffffffffffffffffffffffffffffffffffffffff168152602001908152602001600020819055507f4b8a2c1adb48c4fb8ef27deeb62aad4916e397585148ca87fc9970a648aea42f826002546040516106379291906145c9565b60405180910390a15050565b600047905090565b828260011515600760008473ffffffffffffffffffffffffffffffffffffffff1673ffffffffffffffffffffffffffffffffffffffff168152602001908152602001600020600083815260200190815260200160002060070160019054906101000a900460ff161515146106f4576040517f08c379a00000000000000000000000000000000000000000000000000000000081526004016106eb9061463e565b60405180910390fd5b8484600180600681111561070b5761070a613efb565b5b600760008573ffffffffffffffffffffffffffffffffffffffff1673ffffffffffffffffffffffffffffffffffffffff168152602001908152602001600020600084815260200190815260200160002060070160009054906101000a900460ff16600681111561077e5761077d613efb565b5b146107be576040517f08c379a00000000000000000000000000000000000000000000000000000000081526004016107b5906146aa565b60405180910390fd5b8773ffffffffffffffffffffffffffffffffffffffff163373ffffffffffffffffffffffffffffffffffffffff161461082c576040517f08c379a000000000000000000000000000000000000000000000000000000000815260040161082390614762565b60405180910390fd5b85600760008a73ffffffffffffffffffffffffffffffffffffffff1673ffffffffffffffffffffffffffffffffffffffff16815260200190815260200160002060008981526020019081526020016000206005019080519060200190610893929190613a0c565b506003600760008a73ffffffffffffffffffffffffffffffffffffffff1673ffffffffffffffffffffffffffffffffffffffff168152602001908152602001600020600089815260200190815260200160002060070160006101000a81548160ff0219169083600681111561090b5761090a613efb565b5b02179055507f7aa644fa41c34822ba1ee2f1822620f973997f15c9e06bf2125442b1d4a765308888600360405161094493929190614791565b60405180910390a15050505050505050565b828260011515600760008473ffffffffffffffffffffffffffffffffffffffff1673ffffffffffffffffffffffffffffffffffffffff168152602001908152602001600020600083815260200190815260200160002060070160019054906101000a900460ff161515146109ff576040517f08c379a00000000000000000000000000000000000000000000000000000000081526004016109f69061463e565b60405180910390fd5b84846000806006811115610a1657610a15613efb565b5b600760008573ffffffffffffffffffffffffffffffffffffffff1673ffffffffffffffffffffffffffffffffffffffff168152602001908152602001600020600084815260200190815260200160002060070160009054906101000a900460ff166006811115610a8957610a88613efb565b5b14610ac9576040517f08c379a0000000000000000000000000000000000000000000000000000000008152600401610ac0906146aa565b60405180910390fd5b8773ffffffffffffffffffffffffffffffffffffffff163373ffffffffffffffffffffffffffffffffffffffff1614610b37576040517f08c379a0000000000000000000000000000000000000000000000000000000008152600401610b2e90614886565b60405180910390fd5b8515610cb2576001600760008a73ffffffffffffffffffffffffffffffffffffffff1673ffffffffffffffffffffffffffffffffffffffff168152602001908152602001600020600089815260200190815260200160002060070160006101000a81548160ff02191690836006811115610bb457610bb3613efb565b5b02179055506002600660008a73ffffffffffffffffffffffffffffffffffffffff1673ffffffffffffffffffffffffffffffffffffffff168152602001908152602001600020600089815260200190815260200160002060050160016101000a81548160ff02191690836003811115610c3057610c2f613efb565b5b02179055507f775a814133db64b272f053cebe7e3f81af7fbc555cb07ee614a9303eb06c8ee588886002604051610c69939291906148a6565b60405180910390a17f7aa644fa41c34822ba1ee2f1822620f973997f15c9e06bf2125442b1d4a7653088886001604051610ca593929190614791565b60405180910390a1610d6b565b6005600760008a73ffffffffffffffffffffffffffffffffffffffff1673ffffffffffffffffffffffffffffffffffffffff168152602001908152602001600020600089815260200190815260200160002060070160006101000a81548160ff02191690836006811115610d2957610d28613efb565b5b02179055507f7aa644fa41c34822ba1ee2f1822620f973997f15c9e06bf2125442b1d4a7653088886005604051610d6293929190614791565b60405180910390a15b5050505050505050565b6000828260011515600760008473ffffffffffffffffffffffffffffffffffffffff1673ffffffffffffffffffffffffffffffffffffffff168152602001908152602001600020600083815260200190815260200160002060070160019054906101000a900460ff16151514610e20576040517f08c379a0000000000000000000000000000000000000000000000000000000008152600401610e179061463e565b60405180910390fd5b600760008673ffffffffffffffffffffffffffffffffffffffff1673ffffffffffffffffffffffffffffffffffffffff168152602001908152602001600020600085815260200190815260200160002060070160009054906101000a900460ff169250505092915050565b6000600660008473ffffffffffffffffffffffffffffffffffffffff1673ffffffffffffffffffffffffffffffffffffffff168152602001908152602001600020600083815260200190815260200160002060050160009054906101000a900460ff16905092915050565b60008054906101000a900473ffffffffffffffffffffffffffffffffffffffff1673ffffffffffffffffffffffffffffffffffffffff163373ffffffffffffffffffffffffffffffffffffffff1614610f84576040517f08c379a0000000000000000000000000000000000000000000000000000000008152600401610f7b9061494f565b60405180910390fd5b816000600460008373ffffffffffffffffffffffffffffffffffffffff1673ffffffffffffffffffffffffffffffffffffffff168152602001908152602001600020541415611008576040517f08c379a0000000000000000000000000000000000000000000000000000000008152600401610fff906149bb565b60405180910390fd5b828260011515600660008473ffffffffffffffffffffffffffffffffffffffff1673ffffffffffffffffffffffffffffffffffffffff168152602001908152602001600020600083815260200190815260200160002060050160009054906101000a900460ff161515146110b1576040517f08c379a00000000000000000000000000000000000000000000000000000000081526004016110a890614a4d565b60405180910390fd5b6000600660008773ffffffffffffffffffffffffffffffffffffffff1673ffffffffffffffffffffffffffffffffffffffff168152602001908152602001600020600086815260200190815260200160002060040154905060008673ffffffffffffffffffffffffffffffffffffffff168260405161112f90614a9e565b60006040518083038185875af1925050503d806000811461116c576040519150601f19603f3d011682016040523d82523d6000602084013e611171565b606091505b50509050806111b5576040517f08c379a00000000000000000000000000000000000000000000000000000000081526004016111ac90614aff565b60405180910390fd5b7fb513ce46aec727e4d32cc9b305fc53369326c8c65e4ab9b94bc5877c7add829087836040516111e69291906145c9565b60405180910390a150505050505050565b826000600460008373ffffffffffffffffffffffffffffffffffffffff1673ffffffffffffffffffffffffffffffffffffffff16815260200190815260200160002054141561127b576040517f08c379a0000000000000000000000000000000000000000000000000000000008152600401611272906149bb565b60405180910390fd5b816000600460008373ffffffffffffffffffffffffffffffffffffffff1673ffffffffffffffffffffffffffffffffffffffff1681526020019081526020016000205414156112ff576040517f08c379a00000000000000000000000000000000000000000000000000000000081526004016112f6906149bb565b60405180910390fd5b848460011515600660008473ffffffffffffffffffffffffffffffffffffffff1673ffffffffffffffffffffffffffffffffffffffff168152602001908152602001600020600083815260200190815260200160002060050160009054906101000a900460ff161515146113a8576040517f08c379a000000000000000000000000000000000000000000000000000000000815260040161139f90614a4d565b60405180910390fd5b8673ffffffffffffffffffffffffffffffffffffffff163373ffffffffffffffffffffffffffffffffffffffff1614611416576040517f08c379a000000000000000000000000000000000000000000000000000000000815260040161140d90614bb7565b60405180910390fd5b600560008673ffffffffffffffffffffffffffffffffffffffff1673ffffffffffffffffffffffffffffffffffffffff168152602001908152602001600020600081548092919061146690614521565b91905055506000600560008773ffffffffffffffffffffffffffffffffffffffff1673ffffffffffffffffffffffffffffffffffffffff168152602001908152602001600020549050600660008973ffffffffffffffffffffffffffffffffffffffff1673ffffffffffffffffffffffffffffffffffffffff1681526020019081526020016000206000888152602001908152602001600020600660008873ffffffffffffffffffffffffffffffffffffffff1673ffffffffffffffffffffffffffffffffffffffff168152602001908152602001600020600083815260200190815260200160002060008201548160000155600182018160010190805461156d90614c06565b611578929190613a92565b5060028201548160020155600382018160030190805461159790614c06565b6115a2929190613a92565b50600482015481600401556005820160009054906101000a900460ff168160050160006101000a81548160ff0219169083151502179055506005820160019054906101000a900460ff168160050160016101000a81548160ff0219169083600381111561161257611611613efb565b5b0217905550600682018160060190805461162b90614c06565b611636929190613a92565b50905050600660008973ffffffffffffffffffffffffffffffffffffffff1673ffffffffffffffffffffffffffffffffffffffff16815260200190815260200160002060008881526020019081526020016000206000808201600090556001820160006116a39190613b1f565b60028201600090556003820160006116bb9190613b1f565b60048201600090556005820160006101000a81549060ff02191690556005820160016101000a81549060ff02191690556006820160006116fb9190613b1f565b5050600560008973ffffffffffffffffffffffffffffffffffffffff1673ffffffffffffffffffffffffffffffffffffffff168152602001908152602001600020600081548092919061174d90614c38565b91905055507f8bea23a38d8f27c2a4ececcbb2e39dd389c7371d71f1d3d21345fa25d5665abb888789600660008b73ffffffffffffffffffffffffffffffffffffffff1673ffffffffffffffffffffffffffffffffffffffff1681526020019081526020016000206000868152602001908152602001600020600401546040516117da9493929190614c62565b60405180910390a15050505050505050565b60008054906101000a900473ffffffffffffffffffffffffffffffffffffffff1673ffffffffffffffffffffffffffffffffffffffff163373ffffffffffffffffffffffffffffffffffffffff161461187a576040517f08c379a00000000000000000000000000000000000000000000000000000000081526004016118719061494f565b60405180910390fd5b828160011515600760008473ffffffffffffffffffffffffffffffffffffffff1673ffffffffffffffffffffffffffffffffffffffff168152602001908152602001600020600083815260200190815260200160002060070160019054906101000a900460ff16151514611923576040517f08c379a000000000000000000000000000000000000000000000000000000000815260040161191a9061463e565b60405180910390fd5b8483600280600681111561193a57611939613efb565b5b600760008573ffffffffffffffffffffffffffffffffffffffff1673ffffffffffffffffffffffffffffffffffffffff168152602001908152602001600020600084815260200190815260200160002060070160009054906101000a900460ff1660068111156119ad576119ac613efb565b5b146119ed576040517f08c379a00000000000000000000000000000000000000000000000000000000081526004016119e4906146aa565b60405180910390fd5b6006600760008a73ffffffffffffffffffffffffffffffffffffffff1673ffffffffffffffffffffffffffffffffffffffff168152602001908152602001600020600088815260200190815260200160002060070160006101000a81548160ff02191690836006811115611a6457611a63613efb565b5b02179055506003600660008a73ffffffffffffffffffffffffffffffffffffffff1673ffffffffffffffffffffffffffffffffffffffff168152602001908152602001600020600088815260200190815260200160002060050160016101000a81548160ff02191690836003811115611ae057611adf613efb565b5b02179055507f775a814133db64b272f053cebe7e3f81af7fbc555cb07ee614a9303eb06c8ee588876003604051611b19939291906148a6565b60405180910390a17f7aa644fa41c34822ba1ee2f1822620f973997f15c9e06bf2125442b1d4a7653088876006604051611b5593929190614791565b60405180910390a17f8bea23a38d8f27c2a4ececcbb2e39dd389c7371d71f1d3d21345fa25d5665abb888888611b8b8c8b612041565b604051611b9b9493929190614c62565b60405180910390a15050505050505050565b838260011515600760008473ffffffffffffffffffffffffffffffffffffffff1673ffffffffffffffffffffffffffffffffffffffff168152602001908152602001600020600083815260200190815260200160002060070160019054906101000a900460ff16151514611c56576040517f08c379a0000000000000000000000000000000000000000000000000000000008152600401611c4d9061463e565b60405180910390fd5b85846003806006811115611c6d57611c6c613efb565b5b600760008573ffffffffffffffffffffffffffffffffffffffff1673ffffffffffffffffffffffffffffffffffffffff168152602001908152602001600020600084815260200190815260200160002060070160009054906101000a900460ff166006811115611ce057611cdf613efb565b5b14611d20576040517f08c379a0000000000000000000000000000000000000000000000000000000008152600401611d17906146aa565b60405180910390fd5b8773ffffffffffffffffffffffffffffffffffffffff163373ffffffffffffffffffffffffffffffffffffffff1614611d8e576040517f08c379a0000000000000000000000000000000000000000000000000000000008152600401611d8590614762565b60405180910390fd5b85600760008b73ffffffffffffffffffffffffffffffffffffffff1673ffffffffffffffffffffffffffffffffffffffff16815260200190815260200160002060008981526020019081526020016000206006019080519060200190611df5929190613a0c565b506002600760008b73ffffffffffffffffffffffffffffffffffffffff1673ffffffffffffffffffffffffffffffffffffffff168152602001908152602001600020600089815260200190815260200160002060070160006101000a81548160ff02191690836006811115611e6d57611e6c613efb565b5b02179055507f7aa644fa41c34822ba1ee2f1822620f973997f15c9e06bf2125442b1d4a7653089886002604051611ea693929190614791565b60405180910390a1505050505050505050565b6000600560008373ffffffffffffffffffffffffffffffffffffffff1673ffffffffffffffffffffffffffffffffffffffff168152602001908152602001600020549050919050565b6000828260011515600660008473ffffffffffffffffffffffffffffffffffffffff1673ffffffffffffffffffffffffffffffffffffffff168152602001908152602001600020600083815260200190815260200160002060050160009054906101000a900460ff16151514611fad576040517f08c379a0000000000000000000000000000000000000000000000000000000008152600401611fa490614a4d565b60405180910390fd5b600660008673ffffffffffffffffffffffffffffffffffffffff1673ffffffffffffffffffffffffffffffffffffffff168152602001908152602001600020600085815260200190815260200160002060050160019054906101000a900460ff169250505092915050565b60008060009054906101000a900473ffffffffffffffffffffffffffffffffffffffff16905090565b6000826000600460008373ffffffffffffffffffffffffffffffffffffffff1673ffffffffffffffffffffffffffffffffffffffff1681526020019081526020016000205414156120c7576040517f08c379a00000000000000000000000000000000000000000000000000000000081526004016120be906149bb565b60405180910390fd5b838360011515600660008473ffffffffffffffffffffffffffffffffffffffff1673ffffffffffffffffffffffffffffffffffffffff168152602001908152602001600020600083815260200190815260200160002060050160009054906101000a900460ff16151514612170576040517f08c379a000000000000000000000000000000000000000000000000000000000815260040161216790614a4d565b60405180910390fd5b600660008773ffffffffffffffffffffffffffffffffffffffff1673ffffffffffffffffffffffffffffffffffffffff168152602001908152602001600020600086815260200190815260200160002060040154935050505092915050565b60008054906101000a900473ffffffffffffffffffffffffffffffffffffffff1673ffffffffffffffffffffffffffffffffffffffff163373ffffffffffffffffffffffffffffffffffffffff161461225d576040517f08c379a00000000000000000000000000000000000000000000000000000000081526004016122549061494f565b60405180910390fd5b806000806101000a81548173ffffffffffffffffffffffffffffffffffffffff021916908373ffffffffffffffffffffffffffffffffffffffff16021790555050565b6000806000806060868660011515600760008473ffffffffffffffffffffffffffffffffffffffff1673ffffffffffffffffffffffffffffffffffffffff168152602001908152602001600020600083815260200190815260200160002060070160019054906101000a900460ff16151514612351576040517f08c379a00000000000000000000000000000000000000000000000000000000081526004016123489061463e565b60405180910390fd5b600760008a73ffffffffffffffffffffffffffffffffffffffff1673ffffffffffffffffffffffffffffffffffffffff168152602001908152602001600020600089815260200190815260200160002060000154600760008b73ffffffffffffffffffffffffffffffffffffffff1673ffffffffffffffffffffffffffffffffffffffff16815260200190815260200160002060008a815260200190815260200160002060010160009054906101000a900473ffffffffffffffffffffffffffffffffffffffff16600760008c73ffffffffffffffffffffffffffffffffffffffff1673ffffffffffffffffffffffffffffffffffffffff16815260200190815260200160002060008b815260200190815260200160002060020160009054906101000a900473ffffffffffffffffffffffffffffffffffffffff16600760008d73ffffffffffffffffffffffffffffffffffffffff1673ffffffffffffffffffffffffffffffffffffffff16815260200190815260200160002060008c815260200190815260200160002060030154600760008e73ffffffffffffffffffffffffffffffffffffffff1673ffffffffffffffffffffffffffffffffffffffff16815260200190815260200160002060008d815260200190815260200160002060040180805461254090614c06565b80601f016020809104026020016040519081016040528092919081815260200182805461256c90614c06565b80156125b95780601f1061258e576101008083540402835291602001916125b9565b820191906000526020600020905b81548152906001019060200180831161259c57829003601f168201915b505050505090509650965096509650965050509295509295909350565b8573ffffffffffffffffffffffffffffffffffffffff163373ffffffffffffffffffffffffffffffffffffffff1614612644576040517f08c379a000000000000000000000000000000000000000000000000000000000815260040161263b90614d3f565b60405180910390fd5b6000600460008873ffffffffffffffffffffffffffffffffffffffff1673ffffffffffffffffffffffffffffffffffffffff16815260200190815260200160002054141561276b576000600560008873ffffffffffffffffffffffffffffffffffffffff1673ffffffffffffffffffffffffffffffffffffffff16815260200190815260200160002081905550600260008154809291906126e490614521565b9190505550600254600460008873ffffffffffffffffffffffffffffffffffffffff1673ffffffffffffffffffffffffffffffffffffffff168152602001908152602001600020819055507f4b8a2c1adb48c4fb8ef27deeb62aad4916e397585148ca87fc9970a648aea42f866002546040516127629291906145c9565b60405180910390a15b600560008773ffffffffffffffffffffffffffffffffffffffff1673ffffffffffffffffffffffffffffffffffffffff16815260200190815260200160002060008154809291906127bb90614521565b91905055506000600560008873ffffffffffffffffffffffffffffffffffffffff1673ffffffffffffffffffffffffffffffffffffffff1681526020019081526020016000205490506040518061010001604052808281526020018781526020018681526020018581526020018481526020016001151581526020016000600381111561284b5761284a613efb565b5b815260200183815250600660008973ffffffffffffffffffffffffffffffffffffffff1673ffffffffffffffffffffffffffffffffffffffff16815260200190815260200160002060008381526020019081526020016000206000820151816000015560208201518160010190805190602001906128ca929190613a0c565b506040820151816002015560608201518160030190805190602001906128f1929190613a0c565b506080820151816004015560a08201518160050160006101000a81548160ff02191690831515021790555060c08201518160050160016101000a81548160ff0219169083600381111561294757612946613efb565b5b021790555060e0820151816006019080519060200190612968929190613a0c565b509050507f775a814133db64b272f053cebe7e3f81af7fbc555cb07ee614a9303eb06c8ee5878260006040516129a0939291906148a6565b60405180910390a17f6b9b0b7ca48ab20c767dfd7275ac5b04aa539a9a5269ac155b4640f18c8545168782888888886000896040516129e6989796959493929190614d5f565b60405180910390a150505050505050565b60606000606060006060866000600460008373ffffffffffffffffffffffffffffffffffffffff1673ffffffffffffffffffffffffffffffffffffffff168152602001908152602001600020541415612a85576040517f08c379a0000000000000000000000000000000000000000000000000000000008152600401612a7c906149bb565b60405180910390fd5b878760011515600660008473ffffffffffffffffffffffffffffffffffffffff1673ffffffffffffffffffffffffffffffffffffffff168152602001908152602001600020600083815260200190815260200160002060050160009054906101000a900460ff16151514612b2e576040517f08c379a0000000000000000000000000000000000000000000000000000000008152600401612b2590614a4d565b60405180910390fd5b600660008b73ffffffffffffffffffffffffffffffffffffffff1673ffffffffffffffffffffffffffffffffffffffff16815260200190815260200160002060008a8152602001908152602001600020600101600660008c73ffffffffffffffffffffffffffffffffffffffff1673ffffffffffffffffffffffffffffffffffffffff16815260200190815260200160002060008b815260200190815260200160002060020154600660008d73ffffffffffffffffffffffffffffffffffffffff1673ffffffffffffffffffffffffffffffffffffffff16815260200190815260200160002060008c8152602001908152602001600020600301600660008e73ffffffffffffffffffffffffffffffffffffffff1673ffffffffffffffffffffffffffffffffffffffff16815260200190815260200160002060008d815260200190815260200160002060040154600660008f73ffffffffffffffffffffffffffffffffffffffff1673ffffffffffffffffffffffffffffffffffffffff16815260200190815260200160002060008e8152602001908152602001600020600601848054612cdb90614c06565b80601f0160208091040260200160405190810160405280929190818152602001828054612d0790614c06565b8015612d545780601f10612d2957610100808354040283529160200191612d54565b820191906000526020600020905b815481529060010190602001808311612d3757829003601f168201915b50505050509450828054612d6790614c06565b80601f0160208091040260200160405190810160405280929190818152602001828054612d9390614c06565b8015612de05780601f10612db557610100808354040283529160200191612de0565b820191906000526020600020905b815481529060010190602001808311612dc357829003601f168201915b50505050509250808054612df390614c06565b80601f0160208091040260200160405190810160405280929190818152602001828054612e1f90614c06565b8015612e6c5780601f10612e4157610100808354040283529160200191612e6c565b820191906000526020600020905b815481529060010190602001808311612e4f57829003601f168201915b50505050509050975097509750975097505050509295509295909350565b60008054906101000a900473ffffffffffffffffffffffffffffffffffffffff1673ffffffffffffffffffffffffffffffffffffffff163373ffffffffffffffffffffffffffffffffffffffff1614612f18576040517f08c379a0000000000000000000000000000000000000000000000000000000008152600401612f0f9061494f565b60405180910390fd5b816000600460008373ffffffffffffffffffffffffffffffffffffffff1673ffffffffffffffffffffffffffffffffffffffff168152602001908152602001600020541415612f9c576040517f08c379a0000000000000000000000000000000000000000000000000000000008152600401612f93906149bb565b60405180910390fd5b60008373ffffffffffffffffffffffffffffffffffffffff1683604051612fc290614a9e565b60006040518083038185875af1925050503d8060008114612fff576040519150601f19603f3d011682016040523d82523d6000602084013e613004565b606091505b5050905080613048576040517f08c379a000000000000000000000000000000000000000000000000000000000815260040161303f90614aff565b60405180910390fd5b7fb513ce46aec727e4d32cc9b305fc53369326c8c65e4ab9b94bc5877c7add829084846040516130799291906145c9565b60405180910390a150505050565b818160011515600760008473ffffffffffffffffffffffffffffffffffffffff1673ffffffffffffffffffffffffffffffffffffffff168152602001908152602001600020600083815260200190815260200160002060070160019054906101000a900460ff16151514613130576040517f08c379a00000000000000000000000000000000000000000000000000000000081526004016131279061463e565b60405180910390fd5b83836000600760008473ffffffffffffffffffffffffffffffffffffffff1673ffffffffffffffffffffffffffffffffffffffff168152602001908152602001600020600083815260200190815260200160002060070160009054906101000a900460ff169050600460068111156131ab576131aa613efb565b5b8160068111156131be576131bd613efb565b5b14806131ed57506006808111156131d8576131d7613efb565b5b8160068111156131eb576131ea613efb565b5b145b8061321c57506002600681111561320757613206613efb565b5b81600681111561321a57613219613efb565b5b145b8061324b57506005600681111561323657613235613efb565b5b81600681111561324957613248613efb565b5b145b1561328b576040517f08c379a000000000000000000000000000000000000000000000000000000000815260040161328290614e3e565b60405180910390fd5b8673ffffffffffffffffffffffffffffffffffffffff163373ffffffffffffffffffffffffffffffffffffffff16146132f9576040517f08c379a00000000000000000000000000000000000000000000000000000000081526004016132f090614ef6565b60405180910390fd5b6004600760008973ffffffffffffffffffffffffffffffffffffffff1673ffffffffffffffffffffffffffffffffffffffff168152602001908152602001600020600088815260200190815260200160002060070160006101000a81548160ff021916908360068111156133705761336f613efb565b5b02179055507f7aa644fa41c34822ba1ee2f1822620f973997f15c9e06bf2125442b1d4a76530878760046040516133a993929190614791565b60405180910390a150505050505050565b836000600460008373ffffffffffffffffffffffffffffffffffffffff1673ffffffffffffffffffffffffffffffffffffffff16815260200190815260200160002054141561343e576040517f08c379a0000000000000000000000000000000000000000000000000000000008152600401613435906149bb565b60405180910390fd5b826000600460008373ffffffffffffffffffffffffffffffffffffffff1673ffffffffffffffffffffffffffffffffffffffff1681526020019081526020016000205414156134c2576040517f08c379a00000000000000000000000000000000000000000000000000000000081526004016134b9906149bb565b60405180910390fd5b858560011515600660008473ffffffffffffffffffffffffffffffffffffffff1673ffffffffffffffffffffffffffffffffffffffff168152602001908152602001600020600083815260200190815260200160002060050160009054906101000a900460ff1615151461356b576040517f08c379a000000000000000000000000000000000000000000000000000000000815260040161356290614a4d565b60405180910390fd5b87876000600381111561358157613580613efb565b5b600660008473ffffffffffffffffffffffffffffffffffffffff1673ffffffffffffffffffffffffffffffffffffffff168152602001908152602001600020600083815260200190815260200160002060050160019054906101000a900460ff1660038111156135f4576135f3613efb565b5b146135fe57600080fd5b898960001515600760008473ffffffffffffffffffffffffffffffffffffffff1673ffffffffffffffffffffffffffffffffffffffff168152602001908152602001600020600083815260200190815260200160002060070160019054906101000a900460ff161515146136a7576040517f08c379a000000000000000000000000000000000000000000000000000000000815260040161369e90614f62565b60405180910390fd5b600360008154809291906136ba90614521565b919050555060405180610120016040528060035481526020018d73ffffffffffffffffffffffffffffffffffffffff1681526020018b73ffffffffffffffffffffffffffffffffffffffff1681526020016137158e8e612041565b81526020018a81526020016040518060200160405280600081525081526020016040518060200160405280600081525081526020016000600681111561375e5761375d613efb565b5b815260200160011515815250600760008e73ffffffffffffffffffffffffffffffffffffffff1673ffffffffffffffffffffffffffffffffffffffff16815260200190815260200160002060008d81526020019081526020016000206000820151816000015560208201518160010160006101000a81548173ffffffffffffffffffffffffffffffffffffffff021916908373ffffffffffffffffffffffffffffffffffffffff16021790555060408201518160020160006101000a81548173ffffffffffffffffffffffffffffffffffffffff021916908373ffffffffffffffffffffffffffffffffffffffff160217905550606082015181600301556080820151816004019080519060200190613878929190613a0c565b5060a0820151816005019080519060200190613895929190613a0c565b5060c08201518160060190805190602001906138b2929190613a0c565b5060e08201518160070160006101000a81548160ff021916908360068111156138de576138dd613efb565b5b02179055506101008201518160070160016101000a81548160ff0219169083151502179055509050506001600660008e73ffffffffffffffffffffffffffffffffffffffff1673ffffffffffffffffffffffffffffffffffffffff16815260200190815260200160002060008d815260200190815260200160002060050160016101000a81548160ff0219169083600381111561397e5761397d613efb565b5b02179055507f775a814133db64b272f053cebe7e3f81af7fbc555cb07ee614a9303eb06c8ee58c8c60016040516139b7939291906148a6565b60405180910390a17fe42073240d6159ea89d9b22dcb029a8f621bf9508949b85e09e3f1e70c41c0e58c8b6003548e6040516139f69493929190614f82565b60405180910390a1505050505050505050505050565b828054613a1890614c06565b90600052602060002090601f016020900481019282613a3a5760008555613a81565b82601f10613a5357805160ff1916838001178555613a81565b82800160010185558215613a81579182015b82811115613a80578251825591602001919060010190613a65565b5b509050613a8e9190613b5f565b5090565b828054613a9e90614c06565b90600052602060002090601f016020900481019282613ac05760008555613b0e565b82601f10613ad15780548555613b0e565b82800160010185558215613b0e57600052602060002091601f016020900482015b82811115613b0d578254825591600101919060010190613af2565b5b509050613b1b9190613b5f565b5090565b508054613b2b90614c06565b6000825580601f10613b3d5750613b5c565b601f016020900490600052602060002090810190613b5b9190613b5f565b5b50565b5b80821115613b78576000816000905550600101613b60565b5090565b6000604051905090565b600080fd5b600080fd5b600073ffffffffffffffffffffffffffffffffffffffff82169050919050565b6000613bbb82613b90565b9050919050565b613bcb81613bb0565b8114613bd657600080fd5b50565b600081359050613be881613bc2565b92915050565b600060208284031215613c0457613c03613b86565b5b6000613c1284828501613bd9565b91505092915050565b6000819050919050565b613c2e81613c1b565b82525050565b6000602082019050613c496000830184613c25565b92915050565b613c5881613c1b565b8114613c6357600080fd5b50565b600081359050613c7581613c4f565b92915050565b600080fd5b600080fd5b6000601f19601f8301169050919050565b7f4e487b7100000000000000000000000000000000000000000000000000000000600052604160045260246000fd5b613cce82613c85565b810181811067ffffffffffffffff82111715613ced57613cec613c96565b5b80604052505050565b6000613d00613b7c565b9050613d0c8282613cc5565b919050565b600067ffffffffffffffff821115613d2c57613d2b613c96565b5b613d3582613c85565b9050602081019050919050565b82818337600083830152505050565b6000613d64613d5f84613d11565b613cf6565b905082815260208101848484011115613d8057613d7f613c80565b5b613d8b848285613d42565b509392505050565b600082601f830112613da857613da7613c7b565b5b8135613db8848260208601613d51565b91505092915050565b600080600060608486031215613dda57613dd9613b86565b5b6000613de886828701613bd9565b9350506020613df986828701613c66565b925050604084013567ffffffffffffffff811115613e1a57613e19613b8b565b5b613e2686828701613d93565b9150509250925092565b60008115159050919050565b613e4581613e30565b8114613e5057600080fd5b50565b600081359050613e6281613e3c565b92915050565b600080600060608486031215613e8157613e80613b86565b5b6000613e8f86828701613bd9565b9350506020613ea086828701613c66565b9250506040613eb186828701613e53565b9150509250925092565b60008060408385031215613ed257613ed1613b86565b5b6000613ee085828601613bd9565b9250506020613ef185828601613c66565b9150509250929050565b7f4e487b7100000000000000000000000000000000000000000000000000000000600052602160045260246000fd5b60078110613f3b57613f3a613efb565b5b50565b6000819050613f4c82613f2a565b919050565b6000613f5c82613f3e565b9050919050565b613f6c81613f51565b82525050565b6000602082019050613f876000830184613f63565b92915050565b613f9681613e30565b82525050565b6000602082019050613fb16000830184613f8d565b92915050565b600080600060608486031215613fd057613fcf613b86565b5b6000613fde86828701613bd9565b9350506020613fef86828701613c66565b925050604061400086828701613bd9565b9150509250925092565b60008060006060848603121561402357614022613b86565b5b600061403186828701613bd9565b935050602061404286828701613bd9565b925050604061405386828701613c66565b9150509250925092565b6000806000806080858703121561407757614076613b86565b5b600061408587828801613bd9565b945050602061409687828801613bd9565b93505060406140a787828801613c66565b925050606085013567ffffffffffffffff8111156140c8576140c7613b8b565b5b6140d487828801613d93565b91505092959194509250565b60006140eb82613b90565b9050919050565b6140fb816140e0565b811461410657600080fd5b50565b600081359050614118816140f2565b92915050565b60006020828403121561413457614133613b86565b5b600061414284828501614109565b91505092915050565b6004811061415c5761415b613efb565b5b50565b600081905061416d8261414b565b919050565b600061417d8261415f565b9050919050565b61418d81614172565b82525050565b60006020820190506141a86000830184614184565b92915050565b6141b7816140e0565b82525050565b60006020820190506141d260008301846141ae565b92915050565b600081519050919050565b600082825260208201905092915050565b60005b838110156142125780820151818401526020810190506141f7565b83811115614221576000848401525b50505050565b6000614232826141d8565b61423c81856141e3565b935061424c8185602086016141f4565b61425581613c85565b840191505092915050565b600060a0820190506142756000830188613c25565b61428260208301876141ae565b61428f60408301866141ae565b61429c6060830185613c25565b81810360808301526142ae8184614227565b90509695505050505050565b60008060008060008060c087890312156142d7576142d6613b86565b5b60006142e589828a01613bd9565b965050602087013567ffffffffffffffff81111561430657614305613b8b565b5b61431289828a01613d93565b955050604061432389828a01613c66565b945050606087013567ffffffffffffffff81111561434457614343613b8b565b5b61435089828a01613d93565b935050608061436189828a01613c66565b92505060a087013567ffffffffffffffff81111561438257614381613b8b565b5b61438e89828a01613d93565b9150509295509295509295565b600060a08201905081810360008301526143b58188614227565b90506143c46020830187613c25565b81810360408301526143d68186614227565b90506143e56060830185613c25565b81810360808301526143f78184614227565b90509695505050505050565b6000806000806080858703121561441d5761441c613b86565b5b600061442b87828801613bd9565b945050602061443c87828801613c66565b935050604061444d87828801613bd9565b925050606085013567ffffffffffffffff81111561446e5761446d613b8b565b5b61447a87828801613d93565b91505092959194509250565b7f4c616e646c6f726420616c7265616479206578697374732e0000000000000000600082015250565b60006144bc6018836141e3565b91506144c782614486565b602082019050919050565b600060208201905081810360008301526144eb816144af565b9050919050565b7f4e487b7100000000000000000000000000000000000000000000000000000000600052601160045260246000fd5b600061452c82613c1b565b91507fffffffffffffffffffffffffffffffffffffffffffffffffffffffffffffffff82141561455f5761455e6144f2565b5b600182019050919050565b6000819050919050565b600061458f61458a61458584613b90565b61456a565b613b90565b9050919050565b60006145a182614574565b9050919050565b60006145b382614596565b9050919050565b6145c3816145a8565b82525050565b60006040820190506145de60008301856145ba565b6145eb6020830184613c25565b9392505050565b7f41677265656d656e7420646f6573206e6f742065786973742e00000000000000600082015250565b60006146286019836141e3565b9150614633826145f2565b602082019050919050565b600060208201905081810360008301526146578161461b565b9050919050565b7f41677265656d656e742073746174757320696e76616c69642e00000000000000600082015250565b60006146946019836141e3565b915061469f8261465e565b602082019050919050565b600060208201905081810360008301526146c381614687565b9050919050565b7f596f752063616e6e6f74207369676e207468652061677265656d656e7421204f60008201527f6e6c7920746865206f776e65722063616e207369676e2074686520616772656560208201527f6d656e742e000000000000000000000000000000000000000000000000000000604082015250565b600061474c6045836141e3565b9150614757826146ca565b606082019050919050565b6000602082019050818103600083015261477b8161473f565b9050919050565b61478b81613bb0565b82525050565b60006060820190506147a66000830186614782565b6147b36020830185613c25565b6147c06040830184613f63565b949350505050565b7f596f752063616e6e6f74206d616b652061206465636973696f6e206f6e20746860008201527f652061677265656d656e7421204f6e6c7920746865206f776e65722063616e2060208201527f6d616b652061206465636973696f6e206f6e207468652061677265656d656e7460408201527f2e00000000000000000000000000000000000000000000000000000000000000606082015250565b60006148706061836141e3565b915061487b826147c8565b608082019050919050565b6000602082019050818103600083015261489f81614863565b9050919050565b60006060820190506148bb6000830186614782565b6148c86020830185613c25565b6148d56040830184614184565b949350505050565b7f4f6e6c7920746865206f776e65722063616e2072756e20746869732066756e6360008201527f74696f6e2e000000000000000000000000000000000000000000000000000000602082015250565b60006149396025836141e3565b9150614944826148dd565b604082019050919050565b600060208201905081810360008301526149688161492c565b9050919050565b7f4c616e646c6f726420646f6573206e6f742065786973742e0000000000000000600082015250565b60006149a56018836141e3565b91506149b08261496f565b602082019050919050565b600060208201905081810360008301526149d481614998565b9050919050565b7f50726f706572747920646f6573206e6f7420657869737420666f72207468697360008201527f206c616e646c6f72642e00000000000000000000000000000000000000000000602082015250565b6000614a37602a836141e3565b9150614a42826149db565b604082019050919050565b60006020820190508181036000830152614a6681614a2a565b9050919050565b600081905092915050565b50565b6000614a88600083614a6d565b9150614a9382614a78565b600082019050919050565b6000614aa982614a7b565b9150819050919050565b7f4661696c656420746f2073656e6420616d6f756e742100000000000000000000600082015250565b6000614ae96016836141e3565b9150614af482614ab3565b602082019050919050565b60006020820190508181036000830152614b1881614adc565b9050919050565b7f596f752063616e6e6f74207472616e73666572207468652070726f706572747960008201527f21204f6e6c7920746865206f776e65722063616e207472616e7366657220746860208201527f652070726f70657274792e000000000000000000000000000000000000000000604082015250565b6000614ba1604b836141e3565b9150614bac82614b1f565b606082019050919050565b60006020820190508181036000830152614bd081614b94565b9050919050565b7f4e487b7100000000000000000000000000000000000000000000000000000000600052602260045260246000fd5b60006002820490506001821680614c1e57607f821691505b60208210811415614c3257614c31614bd7565b5b50919050565b6000614c4382613c1b565b91506000821415614c5757614c566144f2565b5b600182039050919050565b6000608082019050614c7760008301876145ba565b614c8460208301866145ba565b614c916040830185613c25565b614c9e6060830184613c25565b95945050505050565b7f596f752063616e6e6f742063726561746520612070726f706572747920666f7260008201527f20746865207573657221204f6e6c7920746865206f776e65722063616e20637260208201527f65617465207468652070726f70657274792e0000000000000000000000000000604082015250565b6000614d296052836141e3565b9150614d3482614ca7565b606082019050919050565b60006020820190508181036000830152614d5881614d1c565b9050919050565b600061010082019050614d75600083018b614782565b614d82602083018a613c25565b8181036040830152614d948189614227565b9050614da36060830188613c25565b8181036080830152614db58187614227565b9050614dc460a0830186613c25565b614dd160c0830185614184565b81810360e0830152614de38184614227565b90509998505050505050505050565b7f41677265656d656e742063616e6e6f742062652063616e63656c6c65642e0000600082015250565b6000614e28601e836141e3565b9150614e3382614df2565b602082019050919050565b60006020820190508181036000830152614e5781614e1b565b9050919050565b7f596f752063616e6e6f742063616e63656c207468652061677265656d656e742160008201527f204f6e6c7920746865206f776e65722063616e2063616e63656c20746865206160208201527f677265656d656e742e0000000000000000000000000000000000000000000000604082015250565b6000614ee06049836141e3565b9150614eeb82614e5e565b606082019050919050565b60006020820190508181036000830152614f0f81614ed3565b9050919050565b7f41677265656d656e7420616c7265616479206578697374732e00000000000000600082015250565b6000614f4c6019836141e3565b9150614f5782614f16565b602082019050919050565b60006020820190508181036000830152614f7b81614f3f565b9050919050565b6000608082019050614f976000830187614782565b614fa46020830186614782565b614fb16040830185613c25565b614fbe6060830184613c25565b9594505050505056fea2646970667358221220cf7f41928b37ecd0ec2f3c9956b9b283b615cdeb332da1af3a6960a4c34909e064736f6c63430008090033",
  "linkReferences": {},
  "deployedLinkReferences": {}
}