{
  "_format": "hh-sol-artifact-1",
  "contractName": "realEstate",
  "sourceName": "contracts/realEstate.sol",
  "abi": [
    {
      "inputs": [],
      "stateMutability": "payable",
      "type": "constructor"
    },
    {
      "anonymous": false,
      "inputs": [
        {
          "indexed": false,
          "internalType": "address payable",
          "name": "_landlordAddress",
          "type": "address"
        },
        {
          "indexed": false,
          "internalType": "address payable",
          "name": "_buyerAddress",
          "type": "address"
        },
        {
          "indexed": false,
          "internalType": "uint256",
          "name": "_agreementId",
          "type": "uint256"
        },
        {
          "indexed": false,
          "internalType": "uint256",
          "name": "_propertyID",
          "type": "uint256"
        }
      ],
      "name": "agreementDraftSubmitted",
      "type": "event"
    },
    {
      "anonymous": false,
      "inputs": [
        {
          "indexed": false,
          "internalType": "address payable",
          "name": "_landlordAddress",
          "type": "address"
        },
        {
          "indexed": false,
          "internalType": "uint256",
          "name": "_propertyId",
          "type": "uint256"
        },
        {
          "indexed": false,
          "internalType": "enum realEstate.AgreementStatus",
          "name": "_status",
          "type": "uint8"
        }
      ],
      "name": "agreementStatusChanged",
      "type": "event"
    },
    {
      "anonymous": false,
      "inputs": [
        {
          "indexed": false,
          "internalType": "address",
          "name": "_to",
          "type": "address"
        },
        {
          "indexed": false,
          "internalType": "uint256",
          "name": "_amount",
          "type": "uint256"
        }
      ],
      "name": "amountTransfered",
      "type": "event"
    },
    {
      "anonymous": false,
      "inputs": [
        {
          "indexed": false,
          "internalType": "address payable",
          "name": "landlordAddress",
          "type": "address"
        },
        {
          "indexed": false,
          "internalType": "uint256",
          "name": "_propertyId",
          "type": "uint256"
        },
        {
          "indexed": false,
          "internalType": "uint256",
          "name": "titleDeedNo",
          "type": "uint256"
        },
        {
          "indexed": false,
          "internalType": "uint256",
          "name": "titleDeedYear",
          "type": "uint256"
        },
        {
          "indexed": false,
          "internalType": "string",
          "name": "propertyType",
          "type": "string"
        },
        {
          "indexed": false,
          "internalType": "string",
          "name": "streetName",
          "type": "string"
        },
        {
          "indexed": false,
          "internalType": "uint256",
          "name": "area",
          "type": "uint256"
        },
        {
          "indexed": false,
          "internalType": "string",
          "name": "apartmentNum",
          "type": "string"
        },
        {
          "indexed": false,
          "internalType": "uint256",
          "name": "listedPrice",
          "type": "uint256"
        },
        {
          "indexed": false,
          "internalType": "string",
          "name": "ipfsHash",
          "type": "string"
        }
      ],
      "name": "newPropertyAdded",
      "type": "event"
    },
    {
      "anonymous": false,
      "inputs": [
        {
          "indexed": false,
          "internalType": "address",
          "name": "_landlordAddress",
          "type": "address"
        },
        {
          "indexed": false,
          "internalType": "address",
          "name": "_buyerAddress",
          "type": "address"
        },
        {
          "indexed": false,
          "internalType": "uint256",
          "name": "_propertyID",
          "type": "uint256"
        },
        {
          "indexed": false,
          "internalType": "uint256",
          "name": "_price",
          "type": "uint256"
        }
      ],
      "name": "propertTransfered",
      "type": "event"
    },
    {
      "stateMutability": "payable",
      "type": "fallback"
    },
    {
      "inputs": [
        {
          "internalType": "address payable",
          "name": "_landlordAddress",
          "type": "address"
        },
        {
          "internalType": "uint256",
          "name": "_propertyId",
          "type": "uint256"
        }
      ],
      "name": "cancelAgreement",
      "outputs": [],
      "stateMutability": "nonpayable",
      "type": "function"
    },
    {
      "inputs": [
        {
          "internalType": "address",
          "name": "newOwner",
          "type": "address"
        }
      ],
      "name": "changeOwner",
      "outputs": [],
      "stateMutability": "nonpayable",
      "type": "function"
    },
    {
      "inputs": [
        {
          "internalType": "address payable",
          "name": "_landlordAddress",
          "type": "address"
        },
        {
          "internalType": "uint256",
          "name": "_propertyId",
          "type": "uint256"
        }
      ],
      "name": "checkPropertyExists",
      "outputs": [
        {
          "internalType": "bool",
          "name": "",
          "type": "bool"
        }
      ],
      "stateMutability": "view",
      "type": "function"
    },
    {
      "inputs": [
        {
          "internalType": "address payable",
          "name": "_landlordAddress",
          "type": "address"
        },
        {
          "internalType": "string",
          "name": "_propertyType",
          "type": "string"
        },
        {
          "internalType": "uint256",
          "name": "_titleDeedNo",
          "type": "uint256"
        },
        {
          "internalType": "uint256",
          "name": "_titleDeedYear",
          "type": "uint256"
        },
        {
          "internalType": "string",
          "name": "_streetName",
          "type": "string"
        },
        {
          "internalType": "uint256",
          "name": "_area",
          "type": "uint256"
        },
        {
          "internalType": "string",
          "name": "_apartmentNum",
          "type": "string"
        },
        {
          "internalType": "uint256",
          "name": "_listedPrice",
          "type": "uint256"
        },
        {
          "internalType": "string",
          "name": "_ipfsHash",
          "type": "string"
        }
      ],
      "name": "createPropertyListing",
      "outputs": [],
      "stateMutability": "payable",
      "type": "function"
    },
    {
      "inputs": [
        {
          "internalType": "address payable",
          "name": "_landlordAddress",
          "type": "address"
        },
        {
          "internalType": "uint256",
          "name": "_propertyId",
          "type": "uint256"
        }
      ],
      "name": "getAgreement",
      "outputs": [
        {
          "internalType": "uint256",
          "name": "",
          "type": "uint256"
        },
        {
          "internalType": "address",
          "name": "",
          "type": "address"
        },
        {
          "internalType": "address",
          "name": "",
          "type": "address"
        },
        {
          "internalType": "uint256",
          "name": "",
          "type": "uint256"
        }
      ],
      "stateMutability": "view",
      "type": "function"
    },
    {
      "inputs": [
        {
          "internalType": "address payable",
          "name": "_landlordAddress",
          "type": "address"
        },
        {
          "internalType": "uint256",
          "name": "_propertyId",
          "type": "uint256"
        }
      ],
      "name": "getAgreementStatus",
      "outputs": [
        {
          "internalType": "enum realEstate.AgreementStatus",
          "name": "",
          "type": "uint8"
        }
      ],
      "stateMutability": "view",
      "type": "function"
    },
    {
      "inputs": [],
      "name": "getBalance",
      "outputs": [
        {
          "internalType": "uint256",
          "name": "",
          "type": "uint256"
        }
      ],
      "stateMutability": "view",
      "type": "function"
    },
    {
      "inputs": [
        {
          "internalType": "address",
          "name": "_landlordAddress",
          "type": "address"
        }
      ],
      "name": "getLandlordCounter",
      "outputs": [
        {
          "internalType": "uint256",
          "name": "",
          "type": "uint256"
        }
      ],
      "stateMutability": "view",
      "type": "function"
    },
    {
      "inputs": [
        {
          "internalType": "address payable",
          "name": "_landlordAddress",
          "type": "address"
        },
        {
          "internalType": "uint256",
          "name": "_propertyID",
          "type": "uint256"
        }
      ],
      "name": "getPropertyDetails",
      "outputs": [
        {
          "internalType": "string",
          "name": "",
          "type": "string"
        },
        {
          "internalType": "uint256",
          "name": "",
          "type": "uint256"
        },
        {
          "internalType": "uint256",
          "name": "",
          "type": "uint256"
        }
      ],
      "stateMutability": "view",
      "type": "function"
    },
    {
      "inputs": [
        {
          "internalType": "address payable",
          "name": "_landlordAddress",
          "type": "address"
        },
        {
          "internalType": "uint256",
          "name": "_propertyID",
          "type": "uint256"
        }
      ],
      "name": "getPropertyListedPrice",
      "outputs": [
        {
          "internalType": "uint256",
          "name": "",
          "type": "uint256"
        }
      ],
      "stateMutability": "view",
      "type": "function"
    },
    {
      "inputs": [
        {
          "internalType": "address payable",
          "name": "_landlordAddress",
          "type": "address"
        },
        {
          "internalType": "uint256",
          "name": "_propertyID",
          "type": "uint256"
        }
      ],
      "name": "getPropertyLocationDetails",
      "outputs": [
        {
          "internalType": "string",
          "name": "",
          "type": "string"
        },
        {
          "internalType": "uint256",
          "name": "",
          "type": "uint256"
        },
        {
          "internalType": "string",
          "name": "",
          "type": "string"
        },
        {
          "internalType": "string",
          "name": "",
          "type": "string"
        }
      ],
      "stateMutability": "view",
      "type": "function"
    },
    {
      "inputs": [],
      "name": "owner",
      "outputs": [
        {
          "internalType": "address",
          "name": "",
          "type": "address"
        }
      ],
      "stateMutability": "view",
      "type": "function"
    },
    {
      "inputs": [
        {
          "internalType": "address payable",
          "name": "_landlordAddress",
          "type": "address"
        },
        {
          "internalType": "uint256",
          "name": "_propertyId",
          "type": "uint256"
        },
        {
          "internalType": "address payable",
          "name": "_buyerAddress",
          "type": "address"
        }
      ],
      "name": "submitDraft",
      "outputs": [],
      "stateMutability": "payable",
      "type": "function"
    },
    {
      "inputs": [
        {
          "internalType": "address payable",
          "name": "_landlordAddress",
          "type": "address"
        },
        {
          "internalType": "uint256",
          "name": "_amount",
          "type": "uint256"
        }
      ],
      "name": "transferAmount",
      "outputs": [],
      "stateMutability": "payable",
      "type": "function"
    },
    {
      "inputs": [
        {
          "internalType": "address payable",
          "name": "_landlordAddress",
          "type": "address"
        },
        {
          "internalType": "uint256",
          "name": "_propertyID",
          "type": "uint256"
        }
      ],
      "name": "transferAmountUsingPropertyID",
      "outputs": [],
      "stateMutability": "payable",
      "type": "function"
    },
    {
      "inputs": [
        {
          "internalType": "address payable",
          "name": "_landlordAddress",
          "type": "address"
        },
        {
          "internalType": "uint256",
          "name": "_propertyID",
          "type": "uint256"
        },
        {
          "internalType": "address payable",
          "name": "_buyerAddress",
          "type": "address"
        }
      ],
      "name": "transferProperty",
      "outputs": [],
      "stateMutability": "payable",
      "type": "function"
    },
    {
      "stateMutability": "payable",
      "type": "receive"
    }
  ],
  "bytecode": "0x6080604052336000806101000a81548173ffffffffffffffffffffffffffffffffffffffff021916908373ffffffffffffffffffffffffffffffffffffffff16021790555060006002819055506000600381905550613a49806100636000396000f3fe6080604052600436106100f75760003560e01c80638da5cb5b1161008a578063a6f9dae111610059578063a6f9dae114610339578063b0a5ec2414610362578063d7081e03146103a2578063f32e47e1146103be576100fe565b80638da5cb5b146102995780638e7fb856146102c4578063948f3c7f14610301578063a25281481461031d576100fe565b806357184c9c116100c657806357184c9c146101e7578063574600091461022457806361352d5e14610240578063843258371461025c576100fe565b80630a59daec1461010057806312065fe0146101405780634844f4901461016b5780634b59654a146101aa576100fe565b366100fe57005b005b34801561010c57600080fd5b5061012760048036038101906101229190612a75565b6103e7565b6040516101379493929190612b5d565b60405180910390f35b34801561014c57600080fd5b50610155610820565b6040516101629190612bb7565b60405180910390f35b34801561017757600080fd5b50610192600480360381019061018d9190612a75565b610828565b6040516101a193929190612bd2565b60405180910390f35b3480156101b657600080fd5b506101d160048036038101906101cc9190612a75565b610af1565b6040516101de9190612c87565b60405180910390f35b3480156101f357600080fd5b5061020e60048036038101906102099190612a75565b610c07565b60405161021b9190612cbd565b60405180910390f35b61023e60048036038101906102399190612a75565b610c72565b005b61025a60048036038101906102559190612cd8565b610f73565b005b34801561026857600080fd5b50610283600480360381019061027e9190612d69565b6115da565b6040516102909190612bb7565b60405180910390f35b3480156102a557600080fd5b506102ae611623565b6040516102bb9190612da5565b60405180910390f35b3480156102d057600080fd5b506102eb60048036038101906102e69190612a75565b61164c565b6040516102f89190612bb7565b60405180910390f35b61031b60048036038101906103169190612cd8565b6117da565b005b61033760048036038101906103329190612ef5565b611cbc565b005b34801561034557600080fd5b50610360600480360381019061035b9190612d69565b612068565b005b34801561036e57600080fd5b5061038960048036038101906103849190612a75565b612139565b604051610399949392919061302f565b60405180910390f35b6103bc60048036038101906103b79190612a75565b61238b565b005b3480156103ca57600080fd5b506103e560048036038101906103e09190612a75565b612588565b005b60606000606080856000600460008373ffffffffffffffffffffffffffffffffffffffff1673ffffffffffffffffffffffffffffffffffffffff168152602001908152602001600020541415610472576040517f08c379a0000000000000000000000000000000000000000000000000000000008152600401610469906130c0565b60405180910390fd5b868660011515600660008473ffffffffffffffffffffffffffffffffffffffff1673ffffffffffffffffffffffffffffffffffffffff168152602001908152602001600020600083815260200190815260200160002060080160009054906101000a900460ff1615151461051b576040517f08c379a000000000000000000000000000000000000000000000000000000000815260040161051290613152565b60405180910390fd5b600660008a73ffffffffffffffffffffffffffffffffffffffff1673ffffffffffffffffffffffffffffffffffffffff1681526020019081526020016000206000898152602001908152602001600020600401600660008b73ffffffffffffffffffffffffffffffffffffffff1673ffffffffffffffffffffffffffffffffffffffff16815260200190815260200160002060008a815260200190815260200160002060050154600660008c73ffffffffffffffffffffffffffffffffffffffff1673ffffffffffffffffffffffffffffffffffffffff16815260200190815260200160002060008b8152602001908152602001600020600601600660008d73ffffffffffffffffffffffffffffffffffffffff1673ffffffffffffffffffffffffffffffffffffffff16815260200190815260200160002060008c8152602001908152602001600020600901838054610674906131a1565b80601f01602080910402602001604051908101604052809291908181526020018280546106a0906131a1565b80156106ed5780601f106106c2576101008083540402835291602001916106ed565b820191906000526020600020905b8154815290600101906020018083116106d057829003601f168201915b50505050509350818054610700906131a1565b80601f016020809104026020016040519081016040528092919081815260200182805461072c906131a1565b80156107795780601f1061074e57610100808354040283529160200191610779565b820191906000526020600020905b81548152906001019060200180831161075c57829003601f168201915b5050505050915080805461078c906131a1565b80601f01602080910402602001604051908101604052809291908181526020018280546107b8906131a1565b80156108055780601f106107da57610100808354040283529160200191610805565b820191906000526020600020905b8154815290600101906020018083116107e857829003601f168201915b50505050509050965096509650965050505092959194509250565b600047905090565b6060600080846000600460008373ffffffffffffffffffffffffffffffffffffffff1673ffffffffffffffffffffffffffffffffffffffff1681526020019081526020016000205414156108b1576040517f08c379a00000000000000000000000000000000000000000000000000000000081526004016108a8906130c0565b60405180910390fd5b858560011515600660008473ffffffffffffffffffffffffffffffffffffffff1673ffffffffffffffffffffffffffffffffffffffff168152602001908152602001600020600083815260200190815260200160002060080160009054906101000a900460ff1615151461095a576040517f08c379a000000000000000000000000000000000000000000000000000000000815260040161095190613152565b60405180910390fd5b600660008973ffffffffffffffffffffffffffffffffffffffff1673ffffffffffffffffffffffffffffffffffffffff1681526020019081526020016000206000888152602001908152602001600020600101600660008a73ffffffffffffffffffffffffffffffffffffffff1673ffffffffffffffffffffffffffffffffffffffff168152602001908152602001600020600089815260200190815260200160002060030154600660008b73ffffffffffffffffffffffffffffffffffffffff1673ffffffffffffffffffffffffffffffffffffffff16815260200190815260200160002060008a815260200190815260200160002060070154828054610a61906131a1565b80601f0160208091040260200160405190810160405280929190818152602001828054610a8d906131a1565b8015610ada5780601f10610aaf57610100808354040283529160200191610ada565b820191906000526020600020905b815481529060010190602001808311610abd57829003601f168201915b505050505092509550955095505050509250925092565b6000828260011515600760008473ffffffffffffffffffffffffffffffffffffffff1673ffffffffffffffffffffffffffffffffffffffff168152602001908152602001600020600083815260200190815260200160002060040160019054906101000a900460ff16151514610b9c576040517f08c379a0000000000000000000000000000000000000000000000000000000008152600401610b939061321f565b60405180910390fd5b600760008673ffffffffffffffffffffffffffffffffffffffff1673ffffffffffffffffffffffffffffffffffffffff168152602001908152602001600020600085815260200190815260200160002060040160009054906101000a900460ff169250505092915050565b6000600660008473ffffffffffffffffffffffffffffffffffffffff1673ffffffffffffffffffffffffffffffffffffffff168152602001908152602001600020600083815260200190815260200160002060080160009054906101000a900460ff16905092915050565b60008054906101000a900473ffffffffffffffffffffffffffffffffffffffff1673ffffffffffffffffffffffffffffffffffffffff163373ffffffffffffffffffffffffffffffffffffffff1614610d00576040517f08c379a0000000000000000000000000000000000000000000000000000000008152600401610cf7906132b1565b60405180910390fd5b816000600460008373ffffffffffffffffffffffffffffffffffffffff1673ffffffffffffffffffffffffffffffffffffffff168152602001908152602001600020541415610d84576040517f08c379a0000000000000000000000000000000000000000000000000000000008152600401610d7b906130c0565b60405180910390fd5b828260011515600660008473ffffffffffffffffffffffffffffffffffffffff1673ffffffffffffffffffffffffffffffffffffffff168152602001908152602001600020600083815260200190815260200160002060080160009054906101000a900460ff16151514610e2d576040517f08c379a0000000000000000000000000000000000000000000000000000000008152600401610e2490613152565b60405180910390fd5b6000600660008773ffffffffffffffffffffffffffffffffffffffff1673ffffffffffffffffffffffffffffffffffffffff168152602001908152602001600020600086815260200190815260200160002060070154905060008673ffffffffffffffffffffffffffffffffffffffff1682604051610eab90613302565b60006040518083038185875af1925050503d8060008114610ee8576040519150601f19603f3d011682016040523d82523d6000602084013e610eed565b606091505b5050905080610f31576040517f08c379a0000000000000000000000000000000000000000000000000000000008152600401610f2890613363565b60405180910390fd5b7fb513ce46aec727e4d32cc9b305fc53369326c8c65e4ab9b94bc5877c7add82908783604051610f629291906133e2565b60405180910390a150505050505050565b826000600460008373ffffffffffffffffffffffffffffffffffffffff1673ffffffffffffffffffffffffffffffffffffffff168152602001908152602001600020541415610ff7576040517f08c379a0000000000000000000000000000000000000000000000000000000008152600401610fee906130c0565b60405180910390fd5b816000600460008373ffffffffffffffffffffffffffffffffffffffff1673ffffffffffffffffffffffffffffffffffffffff16815260200190815260200160002054141561107b576040517f08c379a0000000000000000000000000000000000000000000000000000000008152600401611072906130c0565b60405180910390fd5b848460011515600660008473ffffffffffffffffffffffffffffffffffffffff1673ffffffffffffffffffffffffffffffffffffffff168152602001908152602001600020600083815260200190815260200160002060080160009054906101000a900460ff16151514611124576040517f08c379a000000000000000000000000000000000000000000000000000000000815260040161111b90613152565b60405180910390fd5b8673ffffffffffffffffffffffffffffffffffffffff163373ffffffffffffffffffffffffffffffffffffffff1614611192576040517f08c379a0000000000000000000000000000000000000000000000000000000008152600401611189906134a3565b60405180910390fd5b8473ffffffffffffffffffffffffffffffffffffffff168773ffffffffffffffffffffffffffffffffffffffff161415611201576040517f08c379a00000000000000000000000000000000000000000000000000000000081526004016111f890613581565b60405180910390fd5b600560008673ffffffffffffffffffffffffffffffffffffffff1673ffffffffffffffffffffffffffffffffffffffff1681526020019081526020016000206000815480929190611251906135d0565b91905055506000600560008773ffffffffffffffffffffffffffffffffffffffff1673ffffffffffffffffffffffffffffffffffffffff168152602001908152602001600020549050600660008973ffffffffffffffffffffffffffffffffffffffff1673ffffffffffffffffffffffffffffffffffffffff1681526020019081526020016000206000888152602001908152602001600020600660008873ffffffffffffffffffffffffffffffffffffffff1673ffffffffffffffffffffffffffffffffffffffff1681526020019081526020016000206000838152602001908152602001600020600082015481600001556001820181600101908054611358906131a1565b61136392919061285d565b506002820154816002015560038201548160030155600482018160040190805461138c906131a1565b61139792919061285d565b506005820154816005015560068201816006019080546113b6906131a1565b6113c192919061285d565b50600782015481600701556008820160009054906101000a900460ff168160080160006101000a81548160ff021916908315150217905550600982018160090190805461140d906131a1565b61141892919061285d565b50905050600660008973ffffffffffffffffffffffffffffffffffffffff1673ffffffffffffffffffffffffffffffffffffffff168152602001908152602001600020600088815260200190815260200160002060008082016000905560018201600061148591906128ea565b600282016000905560038201600090556004820160006114a591906128ea565b60058201600090556006820160006114bd91906128ea565b60078201600090556008820160006101000a81549060ff02191690556009820160006114e991906128ea565b5050600560008973ffffffffffffffffffffffffffffffffffffffff1673ffffffffffffffffffffffffffffffffffffffff168152602001908152602001600020600081548092919061153b90613619565b91905055507f8bea23a38d8f27c2a4ececcbb2e39dd389c7371d71f1d3d21345fa25d5665abb888789600660008b73ffffffffffffffffffffffffffffffffffffffff1673ffffffffffffffffffffffffffffffffffffffff1681526020019081526020016000206000868152602001908152602001600020600701546040516115c89493929190613643565b60405180910390a15050505050505050565b6000600560008373ffffffffffffffffffffffffffffffffffffffff1673ffffffffffffffffffffffffffffffffffffffff168152602001908152602001600020549050919050565b60008060009054906101000a900473ffffffffffffffffffffffffffffffffffffffff16905090565b6000826000600460008373ffffffffffffffffffffffffffffffffffffffff1673ffffffffffffffffffffffffffffffffffffffff1681526020019081526020016000205414156116d2576040517f08c379a00000000000000000000000000000000000000000000000000000000081526004016116c9906130c0565b60405180910390fd5b838360011515600660008473ffffffffffffffffffffffffffffffffffffffff1673ffffffffffffffffffffffffffffffffffffffff168152602001908152602001600020600083815260200190815260200160002060080160009054906101000a900460ff1615151461177b576040517f08c379a000000000000000000000000000000000000000000000000000000000815260040161177290613152565b60405180910390fd5b600660008773ffffffffffffffffffffffffffffffffffffffff1673ffffffffffffffffffffffffffffffffffffffff168152602001908152602001600020600086815260200190815260200160002060070154935050505092915050565b826000600460008373ffffffffffffffffffffffffffffffffffffffff1673ffffffffffffffffffffffffffffffffffffffff16815260200190815260200160002054141561185e576040517f08c379a0000000000000000000000000000000000000000000000000000000008152600401611855906130c0565b60405180910390fd5b838360011515600660008473ffffffffffffffffffffffffffffffffffffffff1673ffffffffffffffffffffffffffffffffffffffff168152602001908152602001600020600083815260200190815260200160002060080160009054906101000a900460ff16151514611907576040517f08c379a00000000000000000000000000000000000000000000000000000000081526004016118fe90613152565b60405180910390fd5b858560001515600760008473ffffffffffffffffffffffffffffffffffffffff1673ffffffffffffffffffffffffffffffffffffffff168152602001908152602001600020600083815260200190815260200160002060040160019054906101000a900460ff161515146119b0576040517f08c379a00000000000000000000000000000000000000000000000000000000081526004016119a7906136d4565b60405180910390fd5b6000600460008873ffffffffffffffffffffffffffffffffffffffff1673ffffffffffffffffffffffffffffffffffffffff168152602001908152602001600020541415611a9c576000600560008873ffffffffffffffffffffffffffffffffffffffff1673ffffffffffffffffffffffffffffffffffffffff1681526020019081526020016000208190555060026000815480929190611a50906135d0565b9190505550600254600460008873ffffffffffffffffffffffffffffffffffffffff1673ffffffffffffffffffffffffffffffffffffffff168152602001908152602001600020819055505b60036000815480929190611aaf906135d0565b91905055506040518060c0016040528060035481526020018973ffffffffffffffffffffffffffffffffffffffff1681526020018773ffffffffffffffffffffffffffffffffffffffff168152602001611b098a8a61164c565b815260200160006002811115611b2257611b21612c10565b5b815260200160011515815250600760008a73ffffffffffffffffffffffffffffffffffffffff1673ffffffffffffffffffffffffffffffffffffffff16815260200190815260200160002060008981526020019081526020016000206000820151816000015560208201518160010160006101000a81548173ffffffffffffffffffffffffffffffffffffffff021916908373ffffffffffffffffffffffffffffffffffffffff16021790555060408201518160020160006101000a81548173ffffffffffffffffffffffffffffffffffffffff021916908373ffffffffffffffffffffffffffffffffffffffff1602179055506060820151816003015560808201518160040160006101000a81548160ff02191690836002811115611c4b57611c4a612c10565b5b021790555060a08201518160040160016101000a81548160ff0219169083151502179055509050507fe42073240d6159ea89d9b22dcb029a8f621bf9508949b85e09e3f1e70c41c0e588876003548a604051611caa9493929190613703565b60405180910390a15050505050505050565b8873ffffffffffffffffffffffffffffffffffffffff163373ffffffffffffffffffffffffffffffffffffffff1614611d2a576040517f08c379a0000000000000000000000000000000000000000000000000000000008152600401611d21906137e0565b60405180910390fd5b6000600460008b73ffffffffffffffffffffffffffffffffffffffff1673ffffffffffffffffffffffffffffffffffffffff168152602001908152602001600020541415611e16576000600560008b73ffffffffffffffffffffffffffffffffffffffff1673ffffffffffffffffffffffffffffffffffffffff1681526020019081526020016000208190555060026000815480929190611dca906135d0565b9190505550600254600460008b73ffffffffffffffffffffffffffffffffffffffff1673ffffffffffffffffffffffffffffffffffffffff168152602001908152602001600020819055505b600560008a73ffffffffffffffffffffffffffffffffffffffff1673ffffffffffffffffffffffffffffffffffffffff1681526020019081526020016000206000815480929190611e66906135d0565b91905055506000600560008b73ffffffffffffffffffffffffffffffffffffffff1673ffffffffffffffffffffffffffffffffffffffff1681526020019081526020016000205490506040518061014001604052808281526020018a815260200189815260200188815260200187815260200186815260200185815260200184815260200160011515815260200183815250600660008c73ffffffffffffffffffffffffffffffffffffffff1673ffffffffffffffffffffffffffffffffffffffff1681526020019081526020016000206000838152602001908152602001600020600082015181600001556020820151816001019080519060200190611f6e92919061292a565b5060408201518160020155606082015181600301556080820151816004019080519060200190611f9f92919061292a565b5060a0820151816005015560c0820151816006019080519060200190611fc692919061292a565b5060e082015181600701556101008201518160080160006101000a81548160ff02191690831515021790555061012082015181600901908051906020019061200f92919061292a565b509050507fd026b265bb0b177ed7255a952d14e98f962ba88795c2f1e097247b121a2284888a828a8a8d8b8b8b8b8b6040516120549a99989796959493929190613800565b60405180910390a150505050505050505050565b60008054906101000a900473ffffffffffffffffffffffffffffffffffffffff1673ffffffffffffffffffffffffffffffffffffffff163373ffffffffffffffffffffffffffffffffffffffff16146120f6576040517f08c379a00000000000000000000000000000000000000000000000000000000081526004016120ed906132b1565b60405180910390fd5b806000806101000a81548173ffffffffffffffffffffffffffffffffffffffff021916908373ffffffffffffffffffffffffffffffffffffffff16021790555050565b600080600080858560011515600760008473ffffffffffffffffffffffffffffffffffffffff1673ffffffffffffffffffffffffffffffffffffffff168152602001908152602001600020600083815260200190815260200160002060040160019054906101000a900460ff161515146121e8576040517f08c379a00000000000000000000000000000000000000000000000000000000081526004016121df9061321f565b60405180910390fd5b600760008973ffffffffffffffffffffffffffffffffffffffff1673ffffffffffffffffffffffffffffffffffffffff168152602001908152602001600020600088815260200190815260200160002060000154600760008a73ffffffffffffffffffffffffffffffffffffffff1673ffffffffffffffffffffffffffffffffffffffff168152602001908152602001600020600089815260200190815260200160002060010160009054906101000a900473ffffffffffffffffffffffffffffffffffffffff16600760008b73ffffffffffffffffffffffffffffffffffffffff1673ffffffffffffffffffffffffffffffffffffffff16815260200190815260200160002060008a815260200190815260200160002060020160009054906101000a900473ffffffffffffffffffffffffffffffffffffffff16600760008c73ffffffffffffffffffffffffffffffffffffffff1673ffffffffffffffffffffffffffffffffffffffff16815260200190815260200160002060008b8152602001908152602001600020600301549550955095509550505092959194509250565b60008054906101000a900473ffffffffffffffffffffffffffffffffffffffff1673ffffffffffffffffffffffffffffffffffffffff163373ffffffffffffffffffffffffffffffffffffffff1614612419576040517f08c379a0000000000000000000000000000000000000000000000000000000008152600401612410906132b1565b60405180910390fd5b816000600460008373ffffffffffffffffffffffffffffffffffffffff1673ffffffffffffffffffffffffffffffffffffffff16815260200190815260200160002054141561249d576040517f08c379a0000000000000000000000000000000000000000000000000000000008152600401612494906130c0565b60405180910390fd5b60008373ffffffffffffffffffffffffffffffffffffffff16836040516124c390613302565b60006040518083038185875af1925050503d8060008114612500576040519150601f19603f3d011682016040523d82523d6000602084013e612505565b606091505b5050905080612549576040517f08c379a000000000000000000000000000000000000000000000000000000000815260040161254090613363565b60405180910390fd5b7fb513ce46aec727e4d32cc9b305fc53369326c8c65e4ab9b94bc5877c7add8290848460405161257a9291906133e2565b60405180910390a150505050565b818160011515600760008473ffffffffffffffffffffffffffffffffffffffff1673ffffffffffffffffffffffffffffffffffffffff168152602001908152602001600020600083815260200190815260200160002060040160019054906101000a900460ff16151514612631576040517f08c379a00000000000000000000000000000000000000000000000000000000081526004016126289061321f565b60405180910390fd5b83836000600760008473ffffffffffffffffffffffffffffffffffffffff1673ffffffffffffffffffffffffffffffffffffffff168152602001908152602001600020600083815260200190815260200160002060040160009054906101000a900460ff169050600160028111156126ac576126ab612c10565b5b8160028111156126bf576126be612c10565b5b14806126ee57506002808111156126d9576126d8612c10565b5b8160028111156126ec576126eb612c10565b5b145b1561272e576040517f08c379a000000000000000000000000000000000000000000000000000000000815260040161272590613904565b60405180910390fd5b8673ffffffffffffffffffffffffffffffffffffffff163373ffffffffffffffffffffffffffffffffffffffff161461279c576040517f08c379a0000000000000000000000000000000000000000000000000000000008152600401612793906139bc565b60405180910390fd5b6001600760008973ffffffffffffffffffffffffffffffffffffffff1673ffffffffffffffffffffffffffffffffffffffff168152602001908152602001600020600088815260200190815260200160002060040160006101000a81548160ff0219169083600281111561281357612812612c10565b5b02179055507f7aa644fa41c34822ba1ee2f1822620f973997f15c9e06bf2125442b1d4a765308787600160405161284c939291906139dc565b60405180910390a150505050505050565b828054612869906131a1565b90600052602060002090601f01602090048101928261288b57600085556128d9565b82601f1061289c57805485556128d9565b828001600101855582156128d957600052602060002091601f016020900482015b828111156128d85782548255916001019190600101906128bd565b5b5090506128e691906129b0565b5090565b5080546128f6906131a1565b6000825580601f106129085750612927565b601f01602090049060005260206000209081019061292691906129b0565b5b50565b828054612936906131a1565b90600052602060002090601f016020900481019282612958576000855561299f565b82601f1061297157805160ff191683800117855561299f565b8280016001018555821561299f579182015b8281111561299e578251825591602001919060010190612983565b5b5090506129ac91906129b0565b5090565b5b808211156129c95760008160009055506001016129b1565b5090565b6000604051905090565b600080fd5b600080fd5b600073ffffffffffffffffffffffffffffffffffffffff82169050919050565b6000612a0c826129e1565b9050919050565b612a1c81612a01565b8114612a2757600080fd5b50565b600081359050612a3981612a13565b92915050565b6000819050919050565b612a5281612a3f565b8114612a5d57600080fd5b50565b600081359050612a6f81612a49565b92915050565b60008060408385031215612a8c57612a8b6129d7565b5b6000612a9a85828601612a2a565b9250506020612aab85828601612a60565b9150509250929050565b600081519050919050565b600082825260208201905092915050565b60005b83811015612aef578082015181840152602081019050612ad4565b83811115612afe576000848401525b50505050565b6000601f19601f8301169050919050565b6000612b2082612ab5565b612b2a8185612ac0565b9350612b3a818560208601612ad1565b612b4381612b04565b840191505092915050565b612b5781612a3f565b82525050565b60006080820190508181036000830152612b778187612b15565b9050612b866020830186612b4e565b8181036040830152612b988185612b15565b90508181036060830152612bac8184612b15565b905095945050505050565b6000602082019050612bcc6000830184612b4e565b92915050565b60006060820190508181036000830152612bec8186612b15565b9050612bfb6020830185612b4e565b612c086040830184612b4e565b949350505050565b7f4e487b7100000000000000000000000000000000000000000000000000000000600052602160045260246000fd5b60038110612c5057612c4f612c10565b5b50565b6000819050612c6182612c3f565b919050565b6000612c7182612c53565b9050919050565b612c8181612c66565b82525050565b6000602082019050612c9c6000830184612c78565b92915050565b60008115159050919050565b612cb781612ca2565b82525050565b6000602082019050612cd26000830184612cae565b92915050565b600080600060608486031215612cf157612cf06129d7565b5b6000612cff86828701612a2a565b9350506020612d1086828701612a60565b9250506040612d2186828701612a2a565b9150509250925092565b6000612d36826129e1565b9050919050565b612d4681612d2b565b8114612d5157600080fd5b50565b600081359050612d6381612d3d565b92915050565b600060208284031215612d7f57612d7e6129d7565b5b6000612d8d84828501612d54565b91505092915050565b612d9f81612d2b565b82525050565b6000602082019050612dba6000830184612d96565b92915050565b600080fd5b600080fd5b7f4e487b7100000000000000000000000000000000000000000000000000000000600052604160045260246000fd5b612e0282612b04565b810181811067ffffffffffffffff82111715612e2157612e20612dca565b5b80604052505050565b6000612e346129cd565b9050612e408282612df9565b919050565b600067ffffffffffffffff821115612e6057612e5f612dca565b5b612e6982612b04565b9050602081019050919050565b82818337600083830152505050565b6000612e98612e9384612e45565b612e2a565b905082815260208101848484011115612eb457612eb3612dc5565b5b612ebf848285612e76565b509392505050565b600082601f830112612edc57612edb612dc0565b5b8135612eec848260208601612e85565b91505092915050565b60008060008060008060008060006101208a8c031215612f1857612f176129d7565b5b6000612f268c828d01612a2a565b99505060208a013567ffffffffffffffff811115612f4757612f466129dc565b5b612f538c828d01612ec7565b9850506040612f648c828d01612a60565b9750506060612f758c828d01612a60565b96505060808a013567ffffffffffffffff811115612f9657612f956129dc565b5b612fa28c828d01612ec7565b95505060a0612fb38c828d01612a60565b94505060c08a013567ffffffffffffffff811115612fd457612fd36129dc565b5b612fe08c828d01612ec7565b93505060e0612ff18c828d01612a60565b9250506101008a013567ffffffffffffffff811115613013576130126129dc565b5b61301f8c828d01612ec7565b9150509295985092959850929598565b60006080820190506130446000830187612b4e565b6130516020830186612d96565b61305e6040830185612d96565b61306b6060830184612b4e565b95945050505050565b7f4c616e646c6f726420646f6573206e6f742065786973742e0000000000000000600082015250565b60006130aa601883612ac0565b91506130b582613074565b602082019050919050565b600060208201905081810360008301526130d98161309d565b9050919050565b7f50726f706572747920646f6573206e6f7420657869737420666f72207468697360008201527f206c616e646c6f72642e00000000000000000000000000000000000000000000602082015250565b600061313c602a83612ac0565b9150613147826130e0565b604082019050919050565b6000602082019050818103600083015261316b8161312f565b9050919050565b7f4e487b7100000000000000000000000000000000000000000000000000000000600052602260045260246000fd5b600060028204905060018216806131b957607f821691505b602082108114156131cd576131cc613172565b5b50919050565b7f41677265656d656e7420646f6573206e6f742065786973742e00000000000000600082015250565b6000613209601983612ac0565b9150613214826131d3565b602082019050919050565b60006020820190508181036000830152613238816131fc565b9050919050565b7f4f6e6c7920746865206f776e65722063616e2072756e20746869732066756e6360008201527f74696f6e2e000000000000000000000000000000000000000000000000000000602082015250565b600061329b602583612ac0565b91506132a68261323f565b604082019050919050565b600060208201905081810360008301526132ca8161328e565b9050919050565b600081905092915050565b50565b60006132ec6000836132d1565b91506132f7826132dc565b600082019050919050565b600061330d826132df565b9150819050919050565b7f4661696c656420746f2073656e6420616d6f756e742100000000000000000000600082015250565b600061334d601683612ac0565b915061335882613317565b602082019050919050565b6000602082019050818103600083015261337c81613340565b9050919050565b6000819050919050565b60006133a86133a361339e846129e1565b613383565b6129e1565b9050919050565b60006133ba8261338d565b9050919050565b60006133cc826133af565b9050919050565b6133dc816133c1565b82525050565b60006040820190506133f760008301856133d3565b6134046020830184612b4e565b9392505050565b7f596f752063616e6e6f74207472616e73666572207468652070726f706572747960008201527f21204f6e6c7920746865206f776e65722063616e207472616e7366657220746860208201527f652070726f70657274792e000000000000000000000000000000000000000000604082015250565b600061348d604b83612ac0565b91506134988261340b565b606082019050919050565b600060208201905081810360008301526134bc81613480565b9050919050565b7f596f752063616e6e6f74207472616e73666572207468652070726f706572747960008201527f20746f207468652073616d6520616464726573732120427579657220616e642060208201527f4c616e646c6f726420416464726573732073686f756c6420626520646966666560408201527f72656e742e000000000000000000000000000000000000000000000000000000606082015250565b600061356b606583612ac0565b9150613576826134c3565b608082019050919050565b6000602082019050818103600083015261359a8161355e565b9050919050565b7f4e487b7100000000000000000000000000000000000000000000000000000000600052601160045260246000fd5b60006135db82612a3f565b91507fffffffffffffffffffffffffffffffffffffffffffffffffffffffffffffffff82141561360e5761360d6135a1565b5b600182019050919050565b600061362482612a3f565b91506000821415613638576136376135a1565b5b600182039050919050565b600060808201905061365860008301876133d3565b61366560208301866133d3565b6136726040830185612b4e565b61367f6060830184612b4e565b95945050505050565b7f41677265656d656e7420616c7265616479206578697374732e00000000000000600082015250565b60006136be601983612ac0565b91506136c982613688565b602082019050919050565b600060208201905081810360008301526136ed816136b1565b9050919050565b6136fd81612a01565b82525050565b600060808201905061371860008301876136f4565b61372560208301866136f4565b6137326040830185612b4e565b61373f6060830184612b4e565b95945050505050565b7f596f752063616e6e6f742063726561746520612070726f706572747920666f7260008201527f20746865207573657221204f6e6c7920746865206f776e65722063616e20637260208201527f65617465207468652070726f70657274792e0000000000000000000000000000604082015250565b60006137ca605283612ac0565b91506137d582613748565b606082019050919050565b600060208201905081810360008301526137f9816137bd565b9050919050565b600061014082019050613816600083018d6136f4565b613823602083018c612b4e565b613830604083018b612b4e565b61383d606083018a612b4e565b818103608083015261384f8189612b15565b905081810360a08301526138638188612b15565b905061387260c0830187612b4e565b81810360e08301526138848186612b15565b9050613894610100830185612b4e565b8181036101208301526138a78184612b15565b90509b9a5050505050505050505050565b7f41677265656d656e742063616e6e6f742062652063616e63656c6c65642e0000600082015250565b60006138ee601e83612ac0565b91506138f9826138b8565b602082019050919050565b6000602082019050818103600083015261391d816138e1565b9050919050565b7f596f752063616e6e6f742063616e63656c207468652061677265656d656e742160008201527f204f6e6c7920746865206f776e65722063616e2063616e63656c20746865206160208201527f677265656d656e742e0000000000000000000000000000000000000000000000604082015250565b60006139a6604983612ac0565b91506139b182613924565b606082019050919050565b600060208201905081810360008301526139d581613999565b9050919050565b60006060820190506139f160008301866136f4565b6139fe6020830185612b4e565b613a0b6040830184612c78565b94935050505056fea264697066735822122056e452799f41bd05f2727d62c2fb5046437b090f2c3e489a82bd26d56bc2d79264736f6c63430008090033",
  "linkReferences": {},
  "deployedLinkReferences": {}
}