{
  "_format": "hh-sol-artifact-1",
  "contractName": "realEstate",
  "sourceName": "contracts/realEstate.sol",
  "abi": [
    {
      "inputs": [],
      "stateMutability": "payable",
      "type": "constructor"
    },
    {
      "anonymous": false,
      "inputs": [
        {
          "indexed": false,
          "internalType": "address payable",
          "name": "_landlordAddress",
          "type": "address"
        },
        {
          "indexed": false,
          "internalType": "address payable",
          "name": "_buyerAddress",
          "type": "address"
        },
        {
          "indexed": false,
          "internalType": "uint256",
          "name": "_agreementId",
          "type": "uint256"
        },
        {
          "indexed": false,
          "internalType": "uint256",
          "name": "_propertyID",
          "type": "uint256"
        }
      ],
      "name": "agreementDraftSubmitted",
      "type": "event"
    },
    {
      "anonymous": false,
      "inputs": [
        {
          "indexed": false,
          "internalType": "address payable",
          "name": "_landlordAddress",
          "type": "address"
        },
        {
          "indexed": false,
          "internalType": "uint256",
          "name": "_propertyId",
          "type": "uint256"
        },
        {
          "indexed": false,
          "internalType": "enum realEstate.AgreementStatus",
          "name": "_status",
          "type": "uint8"
        }
      ],
      "name": "agreementStatusChanged",
      "type": "event"
    },
    {
      "anonymous": false,
      "inputs": [
        {
          "indexed": false,
          "internalType": "address",
          "name": "_to",
          "type": "address"
        },
        {
          "indexed": false,
          "internalType": "uint256",
          "name": "_amount",
          "type": "uint256"
        }
      ],
      "name": "amountTransfered",
      "type": "event"
    },
    {
      "anonymous": false,
      "inputs": [
        {
          "indexed": false,
          "internalType": "address payable",
          "name": "landlordAddress",
          "type": "address"
        },
        {
          "indexed": false,
          "internalType": "uint256",
          "name": "_propertyId",
          "type": "uint256"
        },
        {
          "indexed": false,
          "internalType": "uint256",
          "name": "titleDeedNo",
          "type": "uint256"
        },
        {
          "indexed": false,
          "internalType": "uint256",
          "name": "titleDeedYear",
          "type": "uint256"
        },
        {
          "indexed": false,
          "internalType": "string",
          "name": "propertyType",
          "type": "string"
        },
        {
          "indexed": false,
          "internalType": "string",
          "name": "streetName",
          "type": "string"
        },
        {
          "indexed": false,
          "internalType": "uint256",
          "name": "area",
          "type": "uint256"
        },
        {
          "indexed": false,
          "internalType": "string",
          "name": "apartmentNum",
          "type": "string"
        },
        {
          "indexed": false,
          "internalType": "uint256",
          "name": "listedPrice",
          "type": "uint256"
        },
        {
          "indexed": false,
          "internalType": "string",
          "name": "ipfsHash",
          "type": "string"
        }
      ],
      "name": "newPropertyAdded",
      "type": "event"
    },
    {
      "anonymous": false,
      "inputs": [
        {
          "indexed": false,
          "internalType": "address",
          "name": "_landlordAddress",
          "type": "address"
        },
        {
          "indexed": false,
          "internalType": "address",
          "name": "_buyerAddress",
          "type": "address"
        },
        {
          "indexed": false,
          "internalType": "uint256",
          "name": "_propertyID",
          "type": "uint256"
        },
        {
          "indexed": false,
          "internalType": "uint256",
          "name": "_price",
          "type": "uint256"
        }
      ],
      "name": "propertTransfered",
      "type": "event"
    },
    {
      "stateMutability": "payable",
      "type": "fallback"
    },
    {
      "inputs": [
        {
          "internalType": "address payable",
          "name": "_landlordAddress",
          "type": "address"
        },
        {
          "internalType": "uint256",
          "name": "_propertyId",
          "type": "uint256"
        }
      ],
      "name": "cancelAgreement",
      "outputs": [],
      "stateMutability": "nonpayable",
      "type": "function"
    },
    {
      "inputs": [
        {
          "internalType": "address",
          "name": "newOwner",
          "type": "address"
        }
      ],
      "name": "changeOwner",
      "outputs": [],
      "stateMutability": "nonpayable",
      "type": "function"
    },
    {
      "inputs": [
        {
          "internalType": "address payable",
          "name": "_landlordAddress",
          "type": "address"
        },
        {
          "internalType": "uint256",
          "name": "_propertyId",
          "type": "uint256"
        }
      ],
      "name": "checkPropertyExists",
      "outputs": [
        {
          "internalType": "bool",
          "name": "",
          "type": "bool"
        }
      ],
      "stateMutability": "view",
      "type": "function"
    },
    {
      "inputs": [
        {
          "internalType": "address payable",
          "name": "_landlordAddress",
          "type": "address"
        },
        {
          "internalType": "string",
          "name": "_propertyType",
          "type": "string"
        },
        {
          "internalType": "uint256",
          "name": "_titleDeedNo",
          "type": "uint256"
        },
        {
          "internalType": "uint256",
          "name": "_titleDeedYear",
          "type": "uint256"
        },
        {
          "internalType": "string",
          "name": "_streetName",
          "type": "string"
        },
        {
          "internalType": "uint256",
          "name": "_area",
          "type": "uint256"
        },
        {
          "internalType": "string",
          "name": "_apartmentNum",
          "type": "string"
        },
        {
          "internalType": "uint256",
          "name": "_listedPrice",
          "type": "uint256"
        },
        {
          "internalType": "string",
          "name": "_ipfsHash",
          "type": "string"
        }
      ],
      "name": "createPropertyListing",
      "outputs": [],
      "stateMutability": "payable",
      "type": "function"
    },
    {
      "inputs": [
        {
          "internalType": "address payable",
          "name": "_landlordAddress",
          "type": "address"
        },
        {
          "internalType": "uint256",
          "name": "_propertyId",
          "type": "uint256"
        }
      ],
      "name": "getAgreement",
      "outputs": [
        {
          "internalType": "uint256",
          "name": "",
          "type": "uint256"
        },
        {
          "internalType": "address",
          "name": "",
          "type": "address"
        },
        {
          "internalType": "address",
          "name": "",
          "type": "address"
        },
        {
          "internalType": "uint256",
          "name": "",
          "type": "uint256"
        }
      ],
      "stateMutability": "view",
      "type": "function"
    },
    {
      "inputs": [
        {
          "internalType": "address payable",
          "name": "_landlordAddress",
          "type": "address"
        },
        {
          "internalType": "uint256",
          "name": "_propertyId",
          "type": "uint256"
        }
      ],
      "name": "getAgreementStatus",
      "outputs": [
        {
          "internalType": "enum realEstate.AgreementStatus",
          "name": "",
          "type": "uint8"
        }
      ],
      "stateMutability": "view",
      "type": "function"
    },
    {
      "inputs": [],
      "name": "getBalance",
      "outputs": [
        {
          "internalType": "uint256",
          "name": "",
          "type": "uint256"
        }
      ],
      "stateMutability": "view",
      "type": "function"
    },
    {
      "inputs": [
        {
          "internalType": "address",
          "name": "_landlordAddress",
          "type": "address"
        }
      ],
      "name": "getLandlordCounter",
      "outputs": [
        {
          "internalType": "uint256",
          "name": "",
          "type": "uint256"
        }
      ],
      "stateMutability": "view",
      "type": "function"
    },
    {
      "inputs": [
        {
          "internalType": "address payable",
          "name": "_landlordAddress",
          "type": "address"
        },
        {
          "internalType": "uint256",
          "name": "_propertyID",
          "type": "uint256"
        }
      ],
      "name": "getPropertyDetails",
      "outputs": [
        {
          "internalType": "string",
          "name": "",
          "type": "string"
        },
        {
          "internalType": "uint256",
          "name": "",
          "type": "uint256"
        },
        {
          "internalType": "uint256",
          "name": "",
          "type": "uint256"
        }
      ],
      "stateMutability": "view",
      "type": "function"
    },
    {
      "inputs": [
        {
          "internalType": "address payable",
          "name": "_landlordAddress",
          "type": "address"
        },
        {
          "internalType": "uint256",
          "name": "_propertyID",
          "type": "uint256"
        }
      ],
      "name": "getPropertyListedPrice",
      "outputs": [
        {
          "internalType": "uint256",
          "name": "",
          "type": "uint256"
        }
      ],
      "stateMutability": "view",
      "type": "function"
    },
    {
      "inputs": [
        {
          "internalType": "address payable",
          "name": "_landlordAddress",
          "type": "address"
        },
        {
          "internalType": "uint256",
          "name": "_propertyID",
          "type": "uint256"
        }
      ],
      "name": "getPropertyLocationDetails",
      "outputs": [
        {
          "internalType": "string",
          "name": "",
          "type": "string"
        },
        {
          "internalType": "uint256",
          "name": "",
          "type": "uint256"
        },
        {
          "internalType": "string",
          "name": "",
          "type": "string"
        },
        {
          "internalType": "string",
          "name": "",
          "type": "string"
        }
      ],
      "stateMutability": "view",
      "type": "function"
    },
    {
      "inputs": [],
      "name": "owner",
      "outputs": [
        {
          "internalType": "address",
          "name": "",
          "type": "address"
        }
      ],
      "stateMutability": "view",
      "type": "function"
    },
    {
      "inputs": [
        {
          "internalType": "address payable",
          "name": "_landlordAddress",
          "type": "address"
        },
        {
          "internalType": "uint256",
          "name": "_propertyId",
          "type": "uint256"
        },
        {
          "internalType": "address payable",
          "name": "_buyerAddress",
          "type": "address"
        }
      ],
      "name": "submitDraft",
      "outputs": [],
      "stateMutability": "payable",
      "type": "function"
    },
    {
      "inputs": [
        {
          "internalType": "address payable",
          "name": "_landlordAddress",
          "type": "address"
        },
        {
          "internalType": "uint256",
          "name": "_amount",
          "type": "uint256"
        }
      ],
      "name": "transferAmount",
      "outputs": [],
      "stateMutability": "payable",
      "type": "function"
    },
    {
      "inputs": [
        {
          "internalType": "address payable",
          "name": "_landlordAddress",
          "type": "address"
        },
        {
          "internalType": "uint256",
          "name": "_propertyID",
          "type": "uint256"
        }
      ],
      "name": "transferAmountUsingPropertyID",
      "outputs": [],
      "stateMutability": "payable",
      "type": "function"
    },
    {
      "inputs": [
        {
          "internalType": "address payable",
          "name": "_landlordAddress",
          "type": "address"
        },
        {
          "internalType": "uint256",
          "name": "_propertyID",
          "type": "uint256"
        },
        {
          "internalType": "address payable",
          "name": "_buyerAddress",
          "type": "address"
        }
      ],
      "name": "transferProperty",
      "outputs": [],
      "stateMutability": "payable",
      "type": "function"
    },
    {
      "stateMutability": "payable",
      "type": "receive"
    }
  ],
  "bytecode": "0x6080604052336000806101000a81548173ffffffffffffffffffffffffffffffffffffffff021916908373ffffffffffffffffffffffffffffffffffffffff16021790555060006002819055506000600381905550613886806100636000396000f3fe6080604052600436106100f75760003560e01c80638da5cb5b1161008a578063a6f9dae111610059578063a6f9dae114610339578063b0a5ec2414610362578063d7081e03146103a2578063f32e47e1146103be576100fe565b80638da5cb5b146102995780638e7fb856146102c4578063948f3c7f14610301578063a25281481461031d576100fe565b806357184c9c116100c657806357184c9c146101e7578063574600091461022457806361352d5e14610240578063843258371461025c576100fe565b80630a59daec1461010057806312065fe0146101405780634844f4901461016b5780634b59654a146101aa576100fe565b366100fe57005b005b34801561010c57600080fd5b5061012760048036038101906101229190612994565b6103e7565b6040516101379493929190612a7c565b60405180910390f35b34801561014c57600080fd5b50610155610820565b6040516101629190612ad6565b60405180910390f35b34801561017757600080fd5b50610192600480360381019061018d9190612994565b610828565b6040516101a193929190612af1565b60405180910390f35b3480156101b657600080fd5b506101d160048036038101906101cc9190612994565b610af1565b6040516101de9190612ba6565b60405180910390f35b3480156101f357600080fd5b5061020e60048036038101906102099190612994565b610c07565b60405161021b9190612bdc565b60405180910390f35b61023e60048036038101906102399190612994565b610c72565b005b61025a60048036038101906102559190612bf7565b610f73565b005b34801561026857600080fd5b50610283600480360381019061027e9190612c88565b61157e565b6040516102909190612ad6565b60405180910390f35b3480156102a557600080fd5b506102ae6115c7565b6040516102bb9190612cc4565b60405180910390f35b3480156102d057600080fd5b506102eb60048036038101906102e69190612994565b6115f0565b6040516102f89190612ad6565b60405180910390f35b61031b60048036038101906103169190612bf7565b61177e565b005b61033760048036038101906103329190612e14565b611c60565b005b34801561034557600080fd5b50610360600480360381019061035b9190612c88565b61200c565b005b34801561036e57600080fd5b5061038960048036038101906103849190612994565b6120dd565b6040516103999493929190612f4e565b60405180910390f35b6103bc60048036038101906103b79190612994565b61232f565b005b3480156103ca57600080fd5b506103e560048036038101906103e09190612994565b6124a7565b005b60606000606080856000600460008373ffffffffffffffffffffffffffffffffffffffff1673ffffffffffffffffffffffffffffffffffffffff168152602001908152602001600020541415610472576040517f08c379a000000000000000000000000000000000000000000000000000000000815260040161046990612fdf565b60405180910390fd5b868660011515600660008473ffffffffffffffffffffffffffffffffffffffff1673ffffffffffffffffffffffffffffffffffffffff168152602001908152602001600020600083815260200190815260200160002060080160009054906101000a900460ff1615151461051b576040517f08c379a000000000000000000000000000000000000000000000000000000000815260040161051290613071565b60405180910390fd5b600660008a73ffffffffffffffffffffffffffffffffffffffff1673ffffffffffffffffffffffffffffffffffffffff1681526020019081526020016000206000898152602001908152602001600020600401600660008b73ffffffffffffffffffffffffffffffffffffffff1673ffffffffffffffffffffffffffffffffffffffff16815260200190815260200160002060008a815260200190815260200160002060050154600660008c73ffffffffffffffffffffffffffffffffffffffff1673ffffffffffffffffffffffffffffffffffffffff16815260200190815260200160002060008b8152602001908152602001600020600601600660008d73ffffffffffffffffffffffffffffffffffffffff1673ffffffffffffffffffffffffffffffffffffffff16815260200190815260200160002060008c8152602001908152602001600020600901838054610674906130c0565b80601f01602080910402602001604051908101604052809291908181526020018280546106a0906130c0565b80156106ed5780601f106106c2576101008083540402835291602001916106ed565b820191906000526020600020905b8154815290600101906020018083116106d057829003601f168201915b50505050509350818054610700906130c0565b80601f016020809104026020016040519081016040528092919081815260200182805461072c906130c0565b80156107795780601f1061074e57610100808354040283529160200191610779565b820191906000526020600020905b81548152906001019060200180831161075c57829003601f168201915b5050505050915080805461078c906130c0565b80601f01602080910402602001604051908101604052809291908181526020018280546107b8906130c0565b80156108055780601f106107da57610100808354040283529160200191610805565b820191906000526020600020905b8154815290600101906020018083116107e857829003601f168201915b50505050509050965096509650965050505092959194509250565b600047905090565b6060600080846000600460008373ffffffffffffffffffffffffffffffffffffffff1673ffffffffffffffffffffffffffffffffffffffff1681526020019081526020016000205414156108b1576040517f08c379a00000000000000000000000000000000000000000000000000000000081526004016108a890612fdf565b60405180910390fd5b858560011515600660008473ffffffffffffffffffffffffffffffffffffffff1673ffffffffffffffffffffffffffffffffffffffff168152602001908152602001600020600083815260200190815260200160002060080160009054906101000a900460ff1615151461095a576040517f08c379a000000000000000000000000000000000000000000000000000000000815260040161095190613071565b60405180910390fd5b600660008973ffffffffffffffffffffffffffffffffffffffff1673ffffffffffffffffffffffffffffffffffffffff1681526020019081526020016000206000888152602001908152602001600020600101600660008a73ffffffffffffffffffffffffffffffffffffffff1673ffffffffffffffffffffffffffffffffffffffff168152602001908152602001600020600089815260200190815260200160002060030154600660008b73ffffffffffffffffffffffffffffffffffffffff1673ffffffffffffffffffffffffffffffffffffffff16815260200190815260200160002060008a815260200190815260200160002060070154828054610a61906130c0565b80601f0160208091040260200160405190810160405280929190818152602001828054610a8d906130c0565b8015610ada5780601f10610aaf57610100808354040283529160200191610ada565b820191906000526020600020905b815481529060010190602001808311610abd57829003601f168201915b505050505092509550955095505050509250925092565b6000828260011515600760008473ffffffffffffffffffffffffffffffffffffffff1673ffffffffffffffffffffffffffffffffffffffff168152602001908152602001600020600083815260200190815260200160002060040160019054906101000a900460ff16151514610b9c576040517f08c379a0000000000000000000000000000000000000000000000000000000008152600401610b939061313e565b60405180910390fd5b600760008673ffffffffffffffffffffffffffffffffffffffff1673ffffffffffffffffffffffffffffffffffffffff168152602001908152602001600020600085815260200190815260200160002060040160009054906101000a900460ff169250505092915050565b6000600660008473ffffffffffffffffffffffffffffffffffffffff1673ffffffffffffffffffffffffffffffffffffffff168152602001908152602001600020600083815260200190815260200160002060080160009054906101000a900460ff16905092915050565b60008054906101000a900473ffffffffffffffffffffffffffffffffffffffff1673ffffffffffffffffffffffffffffffffffffffff163373ffffffffffffffffffffffffffffffffffffffff1614610d00576040517f08c379a0000000000000000000000000000000000000000000000000000000008152600401610cf7906131d0565b60405180910390fd5b816000600460008373ffffffffffffffffffffffffffffffffffffffff1673ffffffffffffffffffffffffffffffffffffffff168152602001908152602001600020541415610d84576040517f08c379a0000000000000000000000000000000000000000000000000000000008152600401610d7b90612fdf565b60405180910390fd5b828260011515600660008473ffffffffffffffffffffffffffffffffffffffff1673ffffffffffffffffffffffffffffffffffffffff168152602001908152602001600020600083815260200190815260200160002060080160009054906101000a900460ff16151514610e2d576040517f08c379a0000000000000000000000000000000000000000000000000000000008152600401610e2490613071565b60405180910390fd5b6000600660008773ffffffffffffffffffffffffffffffffffffffff1673ffffffffffffffffffffffffffffffffffffffff168152602001908152602001600020600086815260200190815260200160002060070154905060008673ffffffffffffffffffffffffffffffffffffffff1682604051610eab90613221565b60006040518083038185875af1925050503d8060008114610ee8576040519150601f19603f3d011682016040523d82523d6000602084013e610eed565b606091505b5050905080610f31576040517f08c379a0000000000000000000000000000000000000000000000000000000008152600401610f2890613282565b60405180910390fd5b7fb513ce46aec727e4d32cc9b305fc53369326c8c65e4ab9b94bc5877c7add82908783604051610f62929190613301565b60405180910390a150505050505050565b826000600460008373ffffffffffffffffffffffffffffffffffffffff1673ffffffffffffffffffffffffffffffffffffffff168152602001908152602001600020541415610ff7576040517f08c379a0000000000000000000000000000000000000000000000000000000008152600401610fee90612fdf565b60405180910390fd5b838360011515600660008473ffffffffffffffffffffffffffffffffffffffff1673ffffffffffffffffffffffffffffffffffffffff168152602001908152602001600020600083815260200190815260200160002060080160009054906101000a900460ff161515146110a0576040517f08c379a000000000000000000000000000000000000000000000000000000000815260040161109790613071565b60405180910390fd5b6000600460008673ffffffffffffffffffffffffffffffffffffffff1673ffffffffffffffffffffffffffffffffffffffff16815260200190815260200160002054141561118c576000600560008673ffffffffffffffffffffffffffffffffffffffff1673ffffffffffffffffffffffffffffffffffffffff168152602001908152602001600020819055506002600081548092919061114090613359565b9190505550600254600460008673ffffffffffffffffffffffffffffffffffffffff1673ffffffffffffffffffffffffffffffffffffffff168152602001908152602001600020819055505b8373ffffffffffffffffffffffffffffffffffffffff168673ffffffffffffffffffffffffffffffffffffffff1614156111fb576040517f08c379a00000000000000000000000000000000000000000000000000000000081526004016111f290613460565b60405180910390fd5b600560008573ffffffffffffffffffffffffffffffffffffffff1673ffffffffffffffffffffffffffffffffffffffff168152602001908152602001600020600081548092919061124b90613359565b91905055506000600560008673ffffffffffffffffffffffffffffffffffffffff1673ffffffffffffffffffffffffffffffffffffffff168152602001908152602001600020549050600660008873ffffffffffffffffffffffffffffffffffffffff1673ffffffffffffffffffffffffffffffffffffffff1681526020019081526020016000206000878152602001908152602001600020600660008773ffffffffffffffffffffffffffffffffffffffff1673ffffffffffffffffffffffffffffffffffffffff1681526020019081526020016000206000838152602001908152602001600020600082015481600001556001820181600101908054611352906130c0565b61135d92919061277c565b5060028201548160020155600382015481600301556004820181600401908054611386906130c0565b61139192919061277c565b506005820154816005015560068201816006019080546113b0906130c0565b6113bb92919061277c565b50600782015481600701556008820160009054906101000a900460ff168160080160006101000a81548160ff0219169083151502179055506009820181600901908054611407906130c0565b61141292919061277c565b50905050600660008873ffffffffffffffffffffffffffffffffffffffff1673ffffffffffffffffffffffffffffffffffffffff168152602001908152602001600020600087815260200190815260200160002060008082016000905560018201600061147f9190612809565b6002820160009055600382016000905560048201600061149f9190612809565b60058201600090556006820160006114b79190612809565b60078201600090556008820160006101000a81549060ff02191690556009820160006114e39190612809565b50507f8bea23a38d8f27c2a4ececcbb2e39dd389c7371d71f1d3d21345fa25d5665abb878688600660008a73ffffffffffffffffffffffffffffffffffffffff1673ffffffffffffffffffffffffffffffffffffffff16815260200190815260200160002060008681526020019081526020016000206007015460405161156d9493929190613480565b60405180910390a150505050505050565b6000600560008373ffffffffffffffffffffffffffffffffffffffff1673ffffffffffffffffffffffffffffffffffffffff168152602001908152602001600020549050919050565b60008060009054906101000a900473ffffffffffffffffffffffffffffffffffffffff16905090565b6000826000600460008373ffffffffffffffffffffffffffffffffffffffff1673ffffffffffffffffffffffffffffffffffffffff168152602001908152602001600020541415611676576040517f08c379a000000000000000000000000000000000000000000000000000000000815260040161166d90612fdf565b60405180910390fd5b838360011515600660008473ffffffffffffffffffffffffffffffffffffffff1673ffffffffffffffffffffffffffffffffffffffff168152602001908152602001600020600083815260200190815260200160002060080160009054906101000a900460ff1615151461171f576040517f08c379a000000000000000000000000000000000000000000000000000000000815260040161171690613071565b60405180910390fd5b600660008773ffffffffffffffffffffffffffffffffffffffff1673ffffffffffffffffffffffffffffffffffffffff168152602001908152602001600020600086815260200190815260200160002060070154935050505092915050565b826000600460008373ffffffffffffffffffffffffffffffffffffffff1673ffffffffffffffffffffffffffffffffffffffff168152602001908152602001600020541415611802576040517f08c379a00000000000000000000000000000000000000000000000000000000081526004016117f990612fdf565b60405180910390fd5b838360011515600660008473ffffffffffffffffffffffffffffffffffffffff1673ffffffffffffffffffffffffffffffffffffffff168152602001908152602001600020600083815260200190815260200160002060080160009054906101000a900460ff161515146118ab576040517f08c379a00000000000000000000000000000000000000000000000000000000081526004016118a290613071565b60405180910390fd5b858560001515600760008473ffffffffffffffffffffffffffffffffffffffff1673ffffffffffffffffffffffffffffffffffffffff168152602001908152602001600020600083815260200190815260200160002060040160019054906101000a900460ff16151514611954576040517f08c379a000000000000000000000000000000000000000000000000000000000815260040161194b90613511565b60405180910390fd5b6000600460008873ffffffffffffffffffffffffffffffffffffffff1673ffffffffffffffffffffffffffffffffffffffff168152602001908152602001600020541415611a40576000600560008873ffffffffffffffffffffffffffffffffffffffff1673ffffffffffffffffffffffffffffffffffffffff16815260200190815260200160002081905550600260008154809291906119f490613359565b9190505550600254600460008873ffffffffffffffffffffffffffffffffffffffff1673ffffffffffffffffffffffffffffffffffffffff168152602001908152602001600020819055505b60036000815480929190611a5390613359565b91905055506040518060c0016040528060035481526020018973ffffffffffffffffffffffffffffffffffffffff1681526020018773ffffffffffffffffffffffffffffffffffffffff168152602001611aad8a8a6115f0565b815260200160006002811115611ac657611ac5612b2f565b5b815260200160011515815250600760008a73ffffffffffffffffffffffffffffffffffffffff1673ffffffffffffffffffffffffffffffffffffffff16815260200190815260200160002060008981526020019081526020016000206000820151816000015560208201518160010160006101000a81548173ffffffffffffffffffffffffffffffffffffffff021916908373ffffffffffffffffffffffffffffffffffffffff16021790555060408201518160020160006101000a81548173ffffffffffffffffffffffffffffffffffffffff021916908373ffffffffffffffffffffffffffffffffffffffff1602179055506060820151816003015560808201518160040160006101000a81548160ff02191690836002811115611bef57611bee612b2f565b5b021790555060a08201518160040160016101000a81548160ff0219169083151502179055509050507fe42073240d6159ea89d9b22dcb029a8f621bf9508949b85e09e3f1e70c41c0e588876003548a604051611c4e9493929190613540565b60405180910390a15050505050505050565b8873ffffffffffffffffffffffffffffffffffffffff163373ffffffffffffffffffffffffffffffffffffffff1614611cce576040517f08c379a0000000000000000000000000000000000000000000000000000000008152600401611cc59061361d565b60405180910390fd5b6000600460008b73ffffffffffffffffffffffffffffffffffffffff1673ffffffffffffffffffffffffffffffffffffffff168152602001908152602001600020541415611dba576000600560008b73ffffffffffffffffffffffffffffffffffffffff1673ffffffffffffffffffffffffffffffffffffffff1681526020019081526020016000208190555060026000815480929190611d6e90613359565b9190505550600254600460008b73ffffffffffffffffffffffffffffffffffffffff1673ffffffffffffffffffffffffffffffffffffffff168152602001908152602001600020819055505b600560008a73ffffffffffffffffffffffffffffffffffffffff1673ffffffffffffffffffffffffffffffffffffffff1681526020019081526020016000206000815480929190611e0a90613359565b91905055506000600560008b73ffffffffffffffffffffffffffffffffffffffff1673ffffffffffffffffffffffffffffffffffffffff1681526020019081526020016000205490506040518061014001604052808281526020018a815260200189815260200188815260200187815260200186815260200185815260200184815260200160011515815260200183815250600660008c73ffffffffffffffffffffffffffffffffffffffff1673ffffffffffffffffffffffffffffffffffffffff1681526020019081526020016000206000838152602001908152602001600020600082015181600001556020820151816001019080519060200190611f12929190612849565b5060408201518160020155606082015181600301556080820151816004019080519060200190611f43929190612849565b5060a0820151816005015560c0820151816006019080519060200190611f6a929190612849565b5060e082015181600701556101008201518160080160006101000a81548160ff021916908315150217905550610120820151816009019080519060200190611fb3929190612849565b509050507fd026b265bb0b177ed7255a952d14e98f962ba88795c2f1e097247b121a2284888a828a8a8d8b8b8b8b8b604051611ff89a9998979695949392919061363d565b60405180910390a150505050505050505050565b60008054906101000a900473ffffffffffffffffffffffffffffffffffffffff1673ffffffffffffffffffffffffffffffffffffffff163373ffffffffffffffffffffffffffffffffffffffff161461209a576040517f08c379a0000000000000000000000000000000000000000000000000000000008152600401612091906131d0565b60405180910390fd5b806000806101000a81548173ffffffffffffffffffffffffffffffffffffffff021916908373ffffffffffffffffffffffffffffffffffffffff16021790555050565b600080600080858560011515600760008473ffffffffffffffffffffffffffffffffffffffff1673ffffffffffffffffffffffffffffffffffffffff168152602001908152602001600020600083815260200190815260200160002060040160019054906101000a900460ff1615151461218c576040517f08c379a00000000000000000000000000000000000000000000000000000000081526004016121839061313e565b60405180910390fd5b600760008973ffffffffffffffffffffffffffffffffffffffff1673ffffffffffffffffffffffffffffffffffffffff168152602001908152602001600020600088815260200190815260200160002060000154600760008a73ffffffffffffffffffffffffffffffffffffffff1673ffffffffffffffffffffffffffffffffffffffff168152602001908152602001600020600089815260200190815260200160002060010160009054906101000a900473ffffffffffffffffffffffffffffffffffffffff16600760008b73ffffffffffffffffffffffffffffffffffffffff1673ffffffffffffffffffffffffffffffffffffffff16815260200190815260200160002060008a815260200190815260200160002060020160009054906101000a900473ffffffffffffffffffffffffffffffffffffffff16600760008c73ffffffffffffffffffffffffffffffffffffffff1673ffffffffffffffffffffffffffffffffffffffff16815260200190815260200160002060008b8152602001908152602001600020600301549550955095509550505092959194509250565b60008054906101000a900473ffffffffffffffffffffffffffffffffffffffff1673ffffffffffffffffffffffffffffffffffffffff163373ffffffffffffffffffffffffffffffffffffffff16146123bd576040517f08c379a00000000000000000000000000000000000000000000000000000000081526004016123b4906131d0565b60405180910390fd5b60008273ffffffffffffffffffffffffffffffffffffffff16826040516123e390613221565b60006040518083038185875af1925050503d8060008114612420576040519150601f19603f3d011682016040523d82523d6000602084013e612425565b606091505b5050905080612469576040517f08c379a000000000000000000000000000000000000000000000000000000000815260040161246090613282565b60405180910390fd5b7fb513ce46aec727e4d32cc9b305fc53369326c8c65e4ab9b94bc5877c7add8290838360405161249a929190613301565b60405180910390a1505050565b818160011515600760008473ffffffffffffffffffffffffffffffffffffffff1673ffffffffffffffffffffffffffffffffffffffff168152602001908152602001600020600083815260200190815260200160002060040160019054906101000a900460ff16151514612550576040517f08c379a00000000000000000000000000000000000000000000000000000000081526004016125479061313e565b60405180910390fd5b83836000600760008473ffffffffffffffffffffffffffffffffffffffff1673ffffffffffffffffffffffffffffffffffffffff168152602001908152602001600020600083815260200190815260200160002060040160009054906101000a900460ff169050600160028111156125cb576125ca612b2f565b5b8160028111156125de576125dd612b2f565b5b148061260d57506002808111156125f8576125f7612b2f565b5b81600281111561260b5761260a612b2f565b5b145b1561264d576040517f08c379a000000000000000000000000000000000000000000000000000000000815260040161264490613741565b60405180910390fd5b8673ffffffffffffffffffffffffffffffffffffffff163373ffffffffffffffffffffffffffffffffffffffff16146126bb576040517f08c379a00000000000000000000000000000000000000000000000000000000081526004016126b2906137f9565b60405180910390fd5b6001600760008973ffffffffffffffffffffffffffffffffffffffff1673ffffffffffffffffffffffffffffffffffffffff168152602001908152602001600020600088815260200190815260200160002060040160006101000a81548160ff0219169083600281111561273257612731612b2f565b5b02179055507f7aa644fa41c34822ba1ee2f1822620f973997f15c9e06bf2125442b1d4a765308787600160405161276b93929190613819565b60405180910390a150505050505050565b828054612788906130c0565b90600052602060002090601f0160209004810192826127aa57600085556127f8565b82601f106127bb57805485556127f8565b828001600101855582156127f857600052602060002091601f016020900482015b828111156127f75782548255916001019190600101906127dc565b5b50905061280591906128cf565b5090565b508054612815906130c0565b6000825580601f106128275750612846565b601f01602090049060005260206000209081019061284591906128cf565b5b50565b828054612855906130c0565b90600052602060002090601f01602090048101928261287757600085556128be565b82601f1061289057805160ff19168380011785556128be565b828001600101855582156128be579182015b828111156128bd5782518255916020019190600101906128a2565b5b5090506128cb91906128cf565b5090565b5b808211156128e85760008160009055506001016128d0565b5090565b6000604051905090565b600080fd5b600080fd5b600073ffffffffffffffffffffffffffffffffffffffff82169050919050565b600061292b82612900565b9050919050565b61293b81612920565b811461294657600080fd5b50565b60008135905061295881612932565b92915050565b6000819050919050565b6129718161295e565b811461297c57600080fd5b50565b60008135905061298e81612968565b92915050565b600080604083850312156129ab576129aa6128f6565b5b60006129b985828601612949565b92505060206129ca8582860161297f565b9150509250929050565b600081519050919050565b600082825260208201905092915050565b60005b83811015612a0e5780820151818401526020810190506129f3565b83811115612a1d576000848401525b50505050565b6000601f19601f8301169050919050565b6000612a3f826129d4565b612a4981856129df565b9350612a598185602086016129f0565b612a6281612a23565b840191505092915050565b612a768161295e565b82525050565b60006080820190508181036000830152612a968187612a34565b9050612aa56020830186612a6d565b8181036040830152612ab78185612a34565b90508181036060830152612acb8184612a34565b905095945050505050565b6000602082019050612aeb6000830184612a6d565b92915050565b60006060820190508181036000830152612b0b8186612a34565b9050612b1a6020830185612a6d565b612b276040830184612a6d565b949350505050565b7f4e487b7100000000000000000000000000000000000000000000000000000000600052602160045260246000fd5b60038110612b6f57612b6e612b2f565b5b50565b6000819050612b8082612b5e565b919050565b6000612b9082612b72565b9050919050565b612ba081612b85565b82525050565b6000602082019050612bbb6000830184612b97565b92915050565b60008115159050919050565b612bd681612bc1565b82525050565b6000602082019050612bf16000830184612bcd565b92915050565b600080600060608486031215612c1057612c0f6128f6565b5b6000612c1e86828701612949565b9350506020612c2f8682870161297f565b9250506040612c4086828701612949565b9150509250925092565b6000612c5582612900565b9050919050565b612c6581612c4a565b8114612c7057600080fd5b50565b600081359050612c8281612c5c565b92915050565b600060208284031215612c9e57612c9d6128f6565b5b6000612cac84828501612c73565b91505092915050565b612cbe81612c4a565b82525050565b6000602082019050612cd96000830184612cb5565b92915050565b600080fd5b600080fd5b7f4e487b7100000000000000000000000000000000000000000000000000000000600052604160045260246000fd5b612d2182612a23565b810181811067ffffffffffffffff82111715612d4057612d3f612ce9565b5b80604052505050565b6000612d536128ec565b9050612d5f8282612d18565b919050565b600067ffffffffffffffff821115612d7f57612d7e612ce9565b5b612d8882612a23565b9050602081019050919050565b82818337600083830152505050565b6000612db7612db284612d64565b612d49565b905082815260208101848484011115612dd357612dd2612ce4565b5b612dde848285612d95565b509392505050565b600082601f830112612dfb57612dfa612cdf565b5b8135612e0b848260208601612da4565b91505092915050565b60008060008060008060008060006101208a8c031215612e3757612e366128f6565b5b6000612e458c828d01612949565b99505060208a013567ffffffffffffffff811115612e6657612e656128fb565b5b612e728c828d01612de6565b9850506040612e838c828d0161297f565b9750506060612e948c828d0161297f565b96505060808a013567ffffffffffffffff811115612eb557612eb46128fb565b5b612ec18c828d01612de6565b95505060a0612ed28c828d0161297f565b94505060c08a013567ffffffffffffffff811115612ef357612ef26128fb565b5b612eff8c828d01612de6565b93505060e0612f108c828d0161297f565b9250506101008a013567ffffffffffffffff811115612f3257612f316128fb565b5b612f3e8c828d01612de6565b9150509295985092959850929598565b6000608082019050612f636000830187612a6d565b612f706020830186612cb5565b612f7d6040830185612cb5565b612f8a6060830184612a6d565b95945050505050565b7f4c616e646c6f726420646f6573206e6f742065786973742e0000000000000000600082015250565b6000612fc96018836129df565b9150612fd482612f93565b602082019050919050565b60006020820190508181036000830152612ff881612fbc565b9050919050565b7f50726f706572747920646f6573206e6f7420657869737420666f72207468697360008201527f206c616e646c6f72642e00000000000000000000000000000000000000000000602082015250565b600061305b602a836129df565b915061306682612fff565b604082019050919050565b6000602082019050818103600083015261308a8161304e565b9050919050565b7f4e487b7100000000000000000000000000000000000000000000000000000000600052602260045260246000fd5b600060028204905060018216806130d857607f821691505b602082108114156130ec576130eb613091565b5b50919050565b7f41677265656d656e7420646f6573206e6f742065786973742e00000000000000600082015250565b60006131286019836129df565b9150613133826130f2565b602082019050919050565b600060208201905081810360008301526131578161311b565b9050919050565b7f4f6e6c7920746865206f776e65722063616e2072756e20746869732066756e6360008201527f74696f6e2e000000000000000000000000000000000000000000000000000000602082015250565b60006131ba6025836129df565b91506131c58261315e565b604082019050919050565b600060208201905081810360008301526131e9816131ad565b9050919050565b600081905092915050565b50565b600061320b6000836131f0565b9150613216826131fb565b600082019050919050565b600061322c826131fe565b9150819050919050565b7f4661696c656420746f2073656e6420616d6f756e742100000000000000000000600082015250565b600061326c6016836129df565b915061327782613236565b602082019050919050565b6000602082019050818103600083015261329b8161325f565b9050919050565b6000819050919050565b60006132c76132c26132bd84612900565b6132a2565b612900565b9050919050565b60006132d9826132ac565b9050919050565b60006132eb826132ce565b9050919050565b6132fb816132e0565b82525050565b600060408201905061331660008301856132f2565b6133236020830184612a6d565b9392505050565b7f4e487b7100000000000000000000000000000000000000000000000000000000600052601160045260246000fd5b60006133648261295e565b91507fffffffffffffffffffffffffffffffffffffffffffffffffffffffffffffffff8214156133975761339661332a565b5b600182019050919050565b7f596f752063616e6e6f74207472616e73666572207468652070726f706572747960008201527f20746f207468652073616d6520616464726573732120427579657220616e642060208201527f4c616e646c6f726420416464726573732073686f756c6420626520646966666560408201527f72656e742e000000000000000000000000000000000000000000000000000000606082015250565b600061344a6065836129df565b9150613455826133a2565b608082019050919050565b600060208201905081810360008301526134798161343d565b9050919050565b600060808201905061349560008301876132f2565b6134a260208301866132f2565b6134af6040830185612a6d565b6134bc6060830184612a6d565b95945050505050565b7f41677265656d656e7420616c7265616479206578697374732e00000000000000600082015250565b60006134fb6019836129df565b9150613506826134c5565b602082019050919050565b6000602082019050818103600083015261352a816134ee565b9050919050565b61353a81612920565b82525050565b60006080820190506135556000830187613531565b6135626020830186613531565b61356f6040830185612a6d565b61357c6060830184612a6d565b95945050505050565b7f596f752063616e6e6f742063726561746520612070726f706572747920666f7260008201527f20746865207573657221204f6e6c7920746865206f776e65722063616e20637260208201527f65617465207468652070726f70657274792e0000000000000000000000000000604082015250565b60006136076052836129df565b915061361282613585565b606082019050919050565b60006020820190508181036000830152613636816135fa565b9050919050565b600061014082019050613653600083018d613531565b613660602083018c612a6d565b61366d604083018b612a6d565b61367a606083018a612a6d565b818103608083015261368c8189612a34565b905081810360a08301526136a08188612a34565b90506136af60c0830187612a6d565b81810360e08301526136c18186612a34565b90506136d1610100830185612a6d565b8181036101208301526136e48184612a34565b90509b9a5050505050505050505050565b7f41677265656d656e742063616e6e6f742062652063616e63656c6c65642e0000600082015250565b600061372b601e836129df565b9150613736826136f5565b602082019050919050565b6000602082019050818103600083015261375a8161371e565b9050919050565b7f596f752063616e6e6f742063616e63656c207468652061677265656d656e742160008201527f204f6e6c7920746865206f776e65722063616e2063616e63656c20746865206160208201527f677265656d656e742e0000000000000000000000000000000000000000000000604082015250565b60006137e36049836129df565b91506137ee82613761565b606082019050919050565b60006020820190508181036000830152613812816137d6565b9050919050565b600060608201905061382e6000830186613531565b61383b6020830185612a6d565b6138486040830184612b97565b94935050505056fea2646970667358221220f23dc0e2ab3ccc03626c3fd6c20b7ebc35faeb3202828c655288175b6529cc3d64736f6c63430008090033",
  "linkReferences": {},
  "deployedLinkReferences": {}
}