{
  "_format": "hh-sol-artifact-1",
  "contractName": "realEstate",
  "sourceName": "contracts/realEstate.sol",
  "abi": [
    {
      "inputs": [],
      "stateMutability": "payable",
      "type": "constructor"
    },
    {
      "anonymous": false,
      "inputs": [
        {
          "indexed": false,
          "internalType": "address payable",
          "name": "_landlordAddress",
          "type": "address"
        },
        {
          "indexed": false,
          "internalType": "address payable",
          "name": "_buyerAddress",
          "type": "address"
        },
        {
          "indexed": false,
          "internalType": "uint256",
          "name": "_agreementId",
          "type": "uint256"
        },
        {
          "indexed": false,
          "internalType": "uint256",
          "name": "_propertyID",
          "type": "uint256"
        }
      ],
      "name": "agreementDraftSubmitted",
      "type": "event"
    },
    {
      "anonymous": false,
      "inputs": [
        {
          "indexed": false,
          "internalType": "address payable",
          "name": "_landlordAddress",
          "type": "address"
        },
        {
          "indexed": false,
          "internalType": "uint256",
          "name": "_propertyId",
          "type": "uint256"
        },
        {
          "indexed": false,
          "internalType": "enum realEstate.AgreementStatus",
          "name": "_status",
          "type": "uint8"
        }
      ],
      "name": "agreementStatusChanged",
      "type": "event"
    },
    {
      "anonymous": false,
      "inputs": [
        {
          "indexed": false,
          "internalType": "address",
          "name": "_to",
          "type": "address"
        },
        {
          "indexed": false,
          "internalType": "uint256",
          "name": "_amount",
          "type": "uint256"
        }
      ],
      "name": "amountTransfered",
      "type": "event"
    },
    {
      "anonymous": false,
      "inputs": [
        {
          "indexed": false,
          "internalType": "address",
          "name": "_landlordAddress",
          "type": "address"
        },
        {
          "indexed": false,
          "internalType": "uint256",
          "name": "_landlordId",
          "type": "uint256"
        }
      ],
      "name": "newLandlordAdded",
      "type": "event"
    },
    {
      "anonymous": false,
      "inputs": [
        {
          "indexed": false,
          "internalType": "address payable",
          "name": "landlordAddress",
          "type": "address"
        },
        {
          "indexed": false,
          "internalType": "uint256",
          "name": "_propertyId",
          "type": "uint256"
        },
        {
          "indexed": false,
          "internalType": "uint256",
          "name": "titleDeedNo",
          "type": "uint256"
        },
        {
          "indexed": false,
          "internalType": "uint256",
          "name": "titleDeedYear",
          "type": "uint256"
        },
        {
          "indexed": false,
          "internalType": "string",
          "name": "streetName",
          "type": "string"
        },
        {
          "indexed": false,
          "internalType": "uint256",
          "name": "area",
          "type": "uint256"
        },
        {
          "indexed": false,
          "internalType": "string",
          "name": "apartmentNum",
          "type": "string"
        },
        {
          "indexed": false,
          "internalType": "uint256",
          "name": "listedPrice",
          "type": "uint256"
        },
        {
          "indexed": false,
          "internalType": "enum realEstate.properyStatus",
          "name": "propStatus",
          "type": "uint8"
        },
        {
          "indexed": false,
          "internalType": "string",
          "name": "ipfsHash",
          "type": "string"
        },
        {
          "indexed": false,
          "internalType": "uint256",
          "name": "facilities",
          "type": "uint256"
        }
      ],
      "name": "newPropertyAdded",
      "type": "event"
    },
    {
      "anonymous": false,
      "inputs": [
        {
          "indexed": false,
          "internalType": "address",
          "name": "_landlordAddress",
          "type": "address"
        },
        {
          "indexed": false,
          "internalType": "address",
          "name": "_buyerAddress",
          "type": "address"
        },
        {
          "indexed": false,
          "internalType": "uint256",
          "name": "_propertyID",
          "type": "uint256"
        },
        {
          "indexed": false,
          "internalType": "uint256",
          "name": "_price",
          "type": "uint256"
        }
      ],
      "name": "propertTransfered",
      "type": "event"
    },
    {
      "anonymous": false,
      "inputs": [
        {
          "indexed": false,
          "internalType": "address payable",
          "name": "_landlordAddress",
          "type": "address"
        },
        {
          "indexed": false,
          "internalType": "uint256",
          "name": "_propertyId",
          "type": "uint256"
        },
        {
          "indexed": false,
          "internalType": "enum realEstate.properyStatus",
          "name": "_status",
          "type": "uint8"
        }
      ],
      "name": "propertyStatusChanged",
      "type": "event"
    },
    {
      "stateMutability": "payable",
      "type": "fallback"
    },
    {
      "inputs": [
        {
          "internalType": "address payable",
          "name": "_landlordAddress",
          "type": "address"
        }
      ],
      "name": "addLandlord",
      "outputs": [],
      "stateMutability": "nonpayable",
      "type": "function"
    },
    {
      "inputs": [
        {
          "internalType": "address payable",
          "name": "_landlordAddress",
          "type": "address"
        },
        {
          "internalType": "uint256",
          "name": "_propertyId",
          "type": "uint256"
        },
        {
          "internalType": "bool",
          "name": "decision",
          "type": "bool"
        }
      ],
      "name": "agreementDecision",
      "outputs": [],
      "stateMutability": "nonpayable",
      "type": "function"
    },
    {
      "inputs": [
        {
          "internalType": "address payable",
          "name": "_landlordAddress",
          "type": "address"
        },
        {
          "internalType": "address payable",
          "name": "_buyerAddress",
          "type": "address"
        },
        {
          "internalType": "uint256",
          "name": "_propertyId",
          "type": "uint256"
        },
        {
          "internalType": "string",
          "name": "_buyerSignedHash",
          "type": "string"
        }
      ],
      "name": "buyerSignedAgreement",
      "outputs": [],
      "stateMutability": "nonpayable",
      "type": "function"
    },
    {
      "inputs": [
        {
          "internalType": "address payable",
          "name": "_landlordAddress",
          "type": "address"
        },
        {
          "internalType": "uint256",
          "name": "_propertyId",
          "type": "uint256"
        }
      ],
      "name": "cancelAgreement",
      "outputs": [],
      "stateMutability": "nonpayable",
      "type": "function"
    },
    {
      "inputs": [
        {
          "internalType": "address",
          "name": "newOwner",
          "type": "address"
        }
      ],
      "name": "changeOwner",
      "outputs": [],
      "stateMutability": "nonpayable",
      "type": "function"
    },
    {
      "inputs": [
        {
          "internalType": "address payable",
          "name": "_landlordAddress",
          "type": "address"
        },
        {
          "internalType": "uint256",
          "name": "_propertyId",
          "type": "uint256"
        }
      ],
      "name": "checkPropertyExists",
      "outputs": [
        {
          "internalType": "bool",
          "name": "",
          "type": "bool"
        }
      ],
      "stateMutability": "view",
      "type": "function"
    },
    {
      "inputs": [
        {
          "internalType": "address payable",
          "name": "_landlordAddress",
          "type": "address"
        },
        {
          "internalType": "address payable",
          "name": "_buyerAddress",
          "type": "address"
        },
        {
          "internalType": "uint256",
          "name": "_propertyId",
          "type": "uint256"
        }
      ],
      "name": "completeAgreement",
      "outputs": [],
      "stateMutability": "payable",
      "type": "function"
    },
    {
      "inputs": [
        {
          "internalType": "address payable",
          "name": "_landlordAddress",
          "type": "address"
        },
        {
          "internalType": "string",
          "name": "_propertyType",
          "type": "string"
        },
        {
          "internalType": "uint256",
          "name": "_titleDeedNo",
          "type": "uint256"
        },
        {
          "internalType": "uint256",
          "name": "_titleDeedYear",
          "type": "uint256"
        },
        {
          "internalType": "string",
          "name": "_streetName",
          "type": "string"
        },
        {
          "internalType": "uint256",
          "name": "_area",
          "type": "uint256"
        },
        {
          "internalType": "string",
          "name": "_apartmentNum",
          "type": "string"
        },
        {
          "internalType": "uint256",
          "name": "_listedPrice",
          "type": "uint256"
        },
        {
          "internalType": "string",
          "name": "_ipfsHash",
          "type": "string"
        },
        {
          "internalType": "uint256",
          "name": "_facilities",
          "type": "uint256"
        }
      ],
      "name": "createPropertyListing",
      "outputs": [],
      "stateMutability": "payable",
      "type": "function"
    },
    {
      "inputs": [
        {
          "internalType": "address payable",
          "name": "_landlordAddress",
          "type": "address"
        },
        {
          "internalType": "uint256",
          "name": "_propertyId",
          "type": "uint256"
        }
      ],
      "name": "getAgreement",
      "outputs": [
        {
          "internalType": "uint256",
          "name": "",
          "type": "uint256"
        },
        {
          "internalType": "address",
          "name": "",
          "type": "address"
        },
        {
          "internalType": "address",
          "name": "",
          "type": "address"
        },
        {
          "internalType": "uint256",
          "name": "",
          "type": "uint256"
        },
        {
          "internalType": "string",
          "name": "",
          "type": "string"
        }
      ],
      "stateMutability": "view",
      "type": "function"
    },
    {
      "inputs": [
        {
          "internalType": "address payable",
          "name": "_landlordAddress",
          "type": "address"
        },
        {
          "internalType": "uint256",
          "name": "_propertyId",
          "type": "uint256"
        }
      ],
      "name": "getAgreementStatus",
      "outputs": [
        {
          "internalType": "enum realEstate.AgreementStatus",
          "name": "",
          "type": "uint8"
        }
      ],
      "stateMutability": "view",
      "type": "function"
    },
    {
      "inputs": [],
      "name": "getBalance",
      "outputs": [
        {
          "internalType": "uint256",
          "name": "",
          "type": "uint256"
        }
      ],
      "stateMutability": "view",
      "type": "function"
    },
    {
      "inputs": [
        {
          "internalType": "address",
          "name": "_landlordAddress",
          "type": "address"
        }
      ],
      "name": "getLandlordCounter",
      "outputs": [
        {
          "internalType": "uint256",
          "name": "",
          "type": "uint256"
        }
      ],
      "stateMutability": "view",
      "type": "function"
    },
    {
      "inputs": [
        {
          "internalType": "address payable",
          "name": "_landlordAddress",
          "type": "address"
        },
        {
          "internalType": "uint256",
          "name": "_propertyID",
          "type": "uint256"
        }
      ],
      "name": "getPropertyDetails",
      "outputs": [
        {
          "internalType": "string",
          "name": "",
          "type": "string"
        },
        {
          "internalType": "uint256",
          "name": "",
          "type": "uint256"
        },
        {
          "internalType": "uint256",
          "name": "",
          "type": "uint256"
        },
        {
          "internalType": "uint256",
          "name": "",
          "type": "uint256"
        }
      ],
      "stateMutability": "view",
      "type": "function"
    },
    {
      "inputs": [
        {
          "internalType": "address payable",
          "name": "_landlordAddress",
          "type": "address"
        },
        {
          "internalType": "uint256",
          "name": "_propertyID",
          "type": "uint256"
        }
      ],
      "name": "getPropertyListedPrice",
      "outputs": [
        {
          "internalType": "uint256",
          "name": "",
          "type": "uint256"
        }
      ],
      "stateMutability": "view",
      "type": "function"
    },
    {
      "inputs": [
        {
          "internalType": "address payable",
          "name": "_landlordAddress",
          "type": "address"
        },
        {
          "internalType": "uint256",
          "name": "_propertyID",
          "type": "uint256"
        }
      ],
      "name": "getPropertyLocationDetails",
      "outputs": [
        {
          "internalType": "string",
          "name": "",
          "type": "string"
        },
        {
          "internalType": "uint256",
          "name": "",
          "type": "uint256"
        },
        {
          "internalType": "string",
          "name": "",
          "type": "string"
        },
        {
          "internalType": "string",
          "name": "",
          "type": "string"
        }
      ],
      "stateMutability": "view",
      "type": "function"
    },
    {
      "inputs": [
        {
          "internalType": "address payable",
          "name": "_landlordAddress",
          "type": "address"
        },
        {
          "internalType": "uint256",
          "name": "_propertyId",
          "type": "uint256"
        }
      ],
      "name": "getPropertyStatus",
      "outputs": [
        {
          "internalType": "enum realEstate.properyStatus",
          "name": "",
          "type": "uint8"
        }
      ],
      "stateMutability": "view",
      "type": "function"
    },
    {
      "inputs": [
        {
          "internalType": "address payable",
          "name": "_landlordAddress",
          "type": "address"
        },
        {
          "internalType": "uint256",
          "name": "_propertyId",
          "type": "uint256"
        },
        {
          "internalType": "string",
          "name": "_landlordSignedHash",
          "type": "string"
        }
      ],
      "name": "landlordSignedAgreement",
      "outputs": [],
      "stateMutability": "nonpayable",
      "type": "function"
    },
    {
      "inputs": [],
      "name": "owner",
      "outputs": [
        {
          "internalType": "address",
          "name": "",
          "type": "address"
        }
      ],
      "stateMutability": "view",
      "type": "function"
    },
    {
      "inputs": [
        {
          "internalType": "address payable",
          "name": "_landlordAddress",
          "type": "address"
        },
        {
          "internalType": "uint256",
          "name": "_propertyId",
          "type": "uint256"
        },
        {
          "internalType": "address payable",
          "name": "_buyerAddress",
          "type": "address"
        },
        {
          "internalType": "string",
          "name": "otherTerms",
          "type": "string"
        }
      ],
      "name": "submitDraft",
      "outputs": [],
      "stateMutability": "payable",
      "type": "function"
    },
    {
      "inputs": [
        {
          "internalType": "address payable",
          "name": "_landlordAddress",
          "type": "address"
        },
        {
          "internalType": "uint256",
          "name": "_amount",
          "type": "uint256"
        }
      ],
      "name": "transferAmount",
      "outputs": [],
      "stateMutability": "payable",
      "type": "function"
    },
    {
      "inputs": [
        {
          "internalType": "address payable",
          "name": "_landlordAddress",
          "type": "address"
        },
        {
          "internalType": "uint256",
          "name": "_propertyID",
          "type": "uint256"
        }
      ],
      "name": "transferAmountUsingPropertyID",
      "outputs": [],
      "stateMutability": "payable",
      "type": "function"
    },
    {
      "inputs": [
        {
          "internalType": "address payable",
          "name": "_landlordAddress",
          "type": "address"
        },
        {
          "internalType": "uint256",
          "name": "_propertyID",
          "type": "uint256"
        },
        {
          "internalType": "address payable",
          "name": "_buyerAddress",
          "type": "address"
        }
      ],
      "name": "transferProperty",
      "outputs": [],
      "stateMutability": "payable",
      "type": "function"
    },
    {
      "stateMutability": "payable",
      "type": "receive"
    }
  ],
  "bytecode": "0x6080604052336000806101000a81548173ffffffffffffffffffffffffffffffffffffffff021916908373ffffffffffffffffffffffffffffffffffffffff160217905550600060028190555060006003819055506155fd806100636000396000f3fe6080604052600436106101395760003560e01c806369326796116100ab5780638e7fb8561161006f5780638e7fb85614610420578063a6f9dae11461045d578063b0a5ec2414610486578063d7081e03146104c7578063f32e47e1146104e3578063fc3beec51461050c57610140565b80636932679614610336578063753ccc8e14610352578063843258371461037b5780638b3a8703146103b85780638da5cb5b146103f557610140565b806330f3c3e8116100fd57806330f3c3e81461021b5780634844f490146102445780634b59654a1461028457806357184c9c146102c157806357460009146102fe57806361352d5e1461031a57610140565b806301c9a259146101425780630a59daec1461016b57806312065fe0146101ab5780631ea42f9f146101d657806320efab55146101ff57610140565b3661014057005b005b34801561014e57600080fd5b5061016960048036038101906101649190614037565b610528565b005b34801561017757600080fd5b50610192600480360381019061018d919061409a565b61068d565b6040516101a29493929190614182565b60405180910390f35b3480156101b757600080fd5b506101c0610ac6565b6040516101cd91906141dc565b60405180910390f35b3480156101e257600080fd5b506101fd60048036038101906101f8919061432c565b610ace565b005b6102196004803603810190610214919061439b565b610dd9565b005b34801561022757600080fd5b50610242600480360381019061023d9190614522565b61125b565b005b34801561025057600080fd5b5061026b6004803603810190610266919061409a565b61167a565b60405161027b9493929190614575565b60405180910390f35b34801561029057600080fd5b506102ab60048036038101906102a6919061409a565b61199d565b6040516102b89190614638565b60405180910390f35b3480156102cd57600080fd5b506102e860048036038101906102e3919061409a565b611ab3565b6040516102f59190614662565b60405180910390f35b6103186004803603810190610313919061409a565b611b1e565b005b610334600480360381019061032f919061467d565b611e1f565b005b610350600480360381019061034b91906146d0565b6124e9565b005b34801561035e57600080fd5b5061037960048036038101906103749190614723565b6128aa565b005b34801561038757600080fd5b506103a2600480360381019061039d91906147e4565b612bb6565b6040516103af91906141dc565b60405180910390f35b3480156103c457600080fd5b506103df60048036038101906103da919061409a565b612bff565b6040516103ec9190614859565b60405180910390f35b34801561040157600080fd5b5061040a612d15565b6040516104179190614883565b60405180910390f35b34801561042c57600080fd5b506104476004803603810190610442919061409a565b612d3e565b60405161045491906141dc565b60405180910390f35b34801561046957600080fd5b50610484600480360381019061047f91906147e4565b612ecc565b005b34801561049257600080fd5b506104ad60048036038101906104a8919061409a565b612f9d565b6040516104be95949392919061489e565b60405180910390f35b6104e160048036038101906104dc919061409a565b6132d3565b005b3480156104ef57600080fd5b5061050a6004803603810190610505919061409a565b6134d0565b005b610526600480360381019061052191906148f8565b613803565b005b806000600460008373ffffffffffffffffffffffffffffffffffffffff1673ffffffffffffffffffffffffffffffffffffffff16815260200190815260200160002054146105ab576040517f08c379a00000000000000000000000000000000000000000000000000000000081526004016105a2906149c7565b60405180910390fd5b6000600560008473ffffffffffffffffffffffffffffffffffffffff1673ffffffffffffffffffffffffffffffffffffffff168152602001908152602001600020819055506002600081548092919061060390614a16565b9190505550600254600460008473ffffffffffffffffffffffffffffffffffffffff1673ffffffffffffffffffffffffffffffffffffffff168152602001908152602001600020819055507f4b8a2c1adb48c4fb8ef27deeb62aad4916e397585148ca87fc9970a648aea42f82600254604051610681929190614abe565b60405180910390a15050565b60606000606080856000600460008373ffffffffffffffffffffffffffffffffffffffff1673ffffffffffffffffffffffffffffffffffffffff168152602001908152602001600020541415610718576040517f08c379a000000000000000000000000000000000000000000000000000000000815260040161070f90614b33565b60405180910390fd5b868660011515600660008473ffffffffffffffffffffffffffffffffffffffff1673ffffffffffffffffffffffffffffffffffffffff168152602001908152602001600020600083815260200190815260200160002060080160009054906101000a900460ff161515146107c1576040517f08c379a00000000000000000000000000000000000000000000000000000000081526004016107b890614bc5565b60405180910390fd5b600660008a73ffffffffffffffffffffffffffffffffffffffff1673ffffffffffffffffffffffffffffffffffffffff1681526020019081526020016000206000898152602001908152602001600020600401600660008b73ffffffffffffffffffffffffffffffffffffffff1673ffffffffffffffffffffffffffffffffffffffff16815260200190815260200160002060008a815260200190815260200160002060050154600660008c73ffffffffffffffffffffffffffffffffffffffff1673ffffffffffffffffffffffffffffffffffffffff16815260200190815260200160002060008b8152602001908152602001600020600601600660008d73ffffffffffffffffffffffffffffffffffffffff1673ffffffffffffffffffffffffffffffffffffffff16815260200190815260200160002060008c815260200190815260200160002060090183805461091a90614c14565b80601f016020809104026020016040519081016040528092919081815260200182805461094690614c14565b80156109935780601f1061096857610100808354040283529160200191610993565b820191906000526020600020905b81548152906001019060200180831161097657829003601f168201915b505050505093508180546109a690614c14565b80601f01602080910402602001604051908101604052809291908181526020018280546109d290614c14565b8015610a1f5780601f106109f457610100808354040283529160200191610a1f565b820191906000526020600020905b815481529060010190602001808311610a0257829003601f168201915b50505050509150808054610a3290614c14565b80601f0160208091040260200160405190810160405280929190818152602001828054610a5e90614c14565b8015610aab5780601f10610a8057610100808354040283529160200191610aab565b820191906000526020600020905b815481529060010190602001808311610a8e57829003601f168201915b50505050509050965096509650965050505092959194509250565b600047905090565b828260011515600760008473ffffffffffffffffffffffffffffffffffffffff1673ffffffffffffffffffffffffffffffffffffffff168152602001908152602001600020600083815260200190815260200160002060070160019054906101000a900460ff16151514610b77576040517f08c379a0000000000000000000000000000000000000000000000000000000008152600401610b6e90614c92565b60405180910390fd5b84846001806006811115610b8e57610b8d6145c1565b5b600760008573ffffffffffffffffffffffffffffffffffffffff1673ffffffffffffffffffffffffffffffffffffffff168152602001908152602001600020600084815260200190815260200160002060070160009054906101000a900460ff166006811115610c0157610c006145c1565b5b14610c41576040517f08c379a0000000000000000000000000000000000000000000000000000000008152600401610c3890614cfe565b60405180910390fd5b8773ffffffffffffffffffffffffffffffffffffffff163373ffffffffffffffffffffffffffffffffffffffff1614610caf576040517f08c379a0000000000000000000000000000000000000000000000000000000008152600401610ca690614db6565b60405180910390fd5b85600760008a73ffffffffffffffffffffffffffffffffffffffff1673ffffffffffffffffffffffffffffffffffffffff16815260200190815260200160002060008981526020019081526020016000206005019080519060200190610d16929190613e55565b506003600760008a73ffffffffffffffffffffffffffffffffffffffff1673ffffffffffffffffffffffffffffffffffffffff168152602001908152602001600020600089815260200190815260200160002060070160006101000a81548160ff02191690836006811115610d8e57610d8d6145c1565b5b02179055507f7aa644fa41c34822ba1ee2f1822620f973997f15c9e06bf2125442b1d4a7653088886003604051610dc793929190614de5565b60405180910390a15050505050505050565b8973ffffffffffffffffffffffffffffffffffffffff163373ffffffffffffffffffffffffffffffffffffffff1614610e47576040517f08c379a0000000000000000000000000000000000000000000000000000000008152600401610e3e90614eb4565b60405180910390fd5b6000600460008c73ffffffffffffffffffffffffffffffffffffffff1673ffffffffffffffffffffffffffffffffffffffff168152602001908152602001600020541415610f6e576000600560008c73ffffffffffffffffffffffffffffffffffffffff1673ffffffffffffffffffffffffffffffffffffffff1681526020019081526020016000208190555060026000815480929190610ee790614a16565b9190505550600254600460008c73ffffffffffffffffffffffffffffffffffffffff1673ffffffffffffffffffffffffffffffffffffffff168152602001908152602001600020819055507f4b8a2c1adb48c4fb8ef27deeb62aad4916e397585148ca87fc9970a648aea42f8a600254604051610f65929190614abe565b60405180910390a15b600560008b73ffffffffffffffffffffffffffffffffffffffff1673ffffffffffffffffffffffffffffffffffffffff1681526020019081526020016000206000815480929190610fbe90614a16565b91905055506000600560008c73ffffffffffffffffffffffffffffffffffffffff1673ffffffffffffffffffffffffffffffffffffffff1681526020019081526020016000205490506040518061018001604052808281526020018b81526020018a8152602001898152602001888152602001878152602001868152602001858152602001600115158152602001600060038111156110605761105f6145c1565b5b815260200184815260200183815250600660008d73ffffffffffffffffffffffffffffffffffffffff1673ffffffffffffffffffffffffffffffffffffffff16815260200190815260200160002060008381526020019081526020016000206000820151816000015560208201518160010190805190602001906110e5929190613e55565b5060408201518160020155606082015181600301556080820151816004019080519060200190611116929190613e55565b5060a0820151816005015560c082015181600601908051906020019061113d929190613e55565b5060e082015181600701556101008201518160080160006101000a81548160ff0219169083151502179055506101208201518160080160016101000a81548160ff02191690836003811115611195576111946145c1565b5b02179055506101408201518160090190805190602001906111b7929190613e55565b5061016082015181600a01559050507f775a814133db64b272f053cebe7e3f81af7fbc555cb07ee614a9303eb06c8ee58b8260006040516111fa93929190614ed4565b60405180910390a17fdd5d37fa99bb14eb8b2f075c5b075235a3a391d6c20562b6a0c6e8f048c3242a8b828b8b8b8b8b8b60008c8c6040516112469b9a99989796959493929190614f0b565b60405180910390a15050505050505050505050565b828260011515600760008473ffffffffffffffffffffffffffffffffffffffff1673ffffffffffffffffffffffffffffffffffffffff168152602001908152602001600020600083815260200190815260200160002060070160019054906101000a900460ff16151514611304576040517f08c379a00000000000000000000000000000000000000000000000000000000081526004016112fb90614c92565b60405180910390fd5b8484600080600681111561131b5761131a6145c1565b5b600760008573ffffffffffffffffffffffffffffffffffffffff1673ffffffffffffffffffffffffffffffffffffffff168152602001908152602001600020600084815260200190815260200160002060070160009054906101000a900460ff16600681111561138e5761138d6145c1565b5b146113ce576040517f08c379a00000000000000000000000000000000000000000000000000000000081526004016113c590614cfe565b60405180910390fd5b8773ffffffffffffffffffffffffffffffffffffffff163373ffffffffffffffffffffffffffffffffffffffff161461143c576040517f08c379a000000000000000000000000000000000000000000000000000000000815260040161143390615089565b60405180910390fd5b85156115b7576001600760008a73ffffffffffffffffffffffffffffffffffffffff1673ffffffffffffffffffffffffffffffffffffffff168152602001908152602001600020600089815260200190815260200160002060070160006101000a81548160ff021916908360068111156114b9576114b86145c1565b5b02179055506002600660008a73ffffffffffffffffffffffffffffffffffffffff1673ffffffffffffffffffffffffffffffffffffffff168152602001908152602001600020600089815260200190815260200160002060080160016101000a81548160ff02191690836003811115611535576115346145c1565b5b02179055507f775a814133db64b272f053cebe7e3f81af7fbc555cb07ee614a9303eb06c8ee58888600260405161156e93929190614ed4565b60405180910390a17f7aa644fa41c34822ba1ee2f1822620f973997f15c9e06bf2125442b1d4a76530888860016040516115aa93929190614de5565b60405180910390a1611670565b6005600760008a73ffffffffffffffffffffffffffffffffffffffff1673ffffffffffffffffffffffffffffffffffffffff168152602001908152602001600020600089815260200190815260200160002060070160006101000a81548160ff0219169083600681111561162e5761162d6145c1565b5b02179055507f7aa644fa41c34822ba1ee2f1822620f973997f15c9e06bf2125442b1d4a765308888600560405161166793929190614de5565b60405180910390a15b5050505050505050565b60606000806000856000600460008373ffffffffffffffffffffffffffffffffffffffff1673ffffffffffffffffffffffffffffffffffffffff168152602001908152602001600020541415611705576040517f08c379a00000000000000000000000000000000000000000000000000000000081526004016116fc90614b33565b60405180910390fd5b868660011515600660008473ffffffffffffffffffffffffffffffffffffffff1673ffffffffffffffffffffffffffffffffffffffff168152602001908152602001600020600083815260200190815260200160002060080160009054906101000a900460ff161515146117ae576040517f08c379a00000000000000000000000000000000000000000000000000000000081526004016117a590614bc5565b60405180910390fd5b600660008a73ffffffffffffffffffffffffffffffffffffffff1673ffffffffffffffffffffffffffffffffffffffff1681526020019081526020016000206000898152602001908152602001600020600101600660008b73ffffffffffffffffffffffffffffffffffffffff1673ffffffffffffffffffffffffffffffffffffffff16815260200190815260200160002060008a815260200190815260200160002060030154600660008c73ffffffffffffffffffffffffffffffffffffffff1673ffffffffffffffffffffffffffffffffffffffff16815260200190815260200160002060008b815260200190815260200160002060070154600660008d73ffffffffffffffffffffffffffffffffffffffff1673ffffffffffffffffffffffffffffffffffffffff16815260200190815260200160002060008c8152602001908152602001600020600a015483805461190990614c14565b80601f016020809104026020016040519081016040528092919081815260200182805461193590614c14565b80156119825780601f1061195757610100808354040283529160200191611982565b820191906000526020600020905b81548152906001019060200180831161196557829003601f168201915b50505050509350965096509650965050505092959194509250565b6000828260011515600760008473ffffffffffffffffffffffffffffffffffffffff1673ffffffffffffffffffffffffffffffffffffffff168152602001908152602001600020600083815260200190815260200160002060070160019054906101000a900460ff16151514611a48576040517f08c379a0000000000000000000000000000000000000000000000000000000008152600401611a3f90614c92565b60405180910390fd5b600760008673ffffffffffffffffffffffffffffffffffffffff1673ffffffffffffffffffffffffffffffffffffffff168152602001908152602001600020600085815260200190815260200160002060070160009054906101000a900460ff169250505092915050565b6000600660008473ffffffffffffffffffffffffffffffffffffffff1673ffffffffffffffffffffffffffffffffffffffff168152602001908152602001600020600083815260200190815260200160002060080160009054906101000a900460ff16905092915050565b60008054906101000a900473ffffffffffffffffffffffffffffffffffffffff1673ffffffffffffffffffffffffffffffffffffffff163373ffffffffffffffffffffffffffffffffffffffff1614611bac576040517f08c379a0000000000000000000000000000000000000000000000000000000008152600401611ba39061511b565b60405180910390fd5b816000600460008373ffffffffffffffffffffffffffffffffffffffff1673ffffffffffffffffffffffffffffffffffffffff168152602001908152602001600020541415611c30576040517f08c379a0000000000000000000000000000000000000000000000000000000008152600401611c2790614b33565b60405180910390fd5b828260011515600660008473ffffffffffffffffffffffffffffffffffffffff1673ffffffffffffffffffffffffffffffffffffffff168152602001908152602001600020600083815260200190815260200160002060080160009054906101000a900460ff16151514611cd9576040517f08c379a0000000000000000000000000000000000000000000000000000000008152600401611cd090614bc5565b60405180910390fd5b6000600660008773ffffffffffffffffffffffffffffffffffffffff1673ffffffffffffffffffffffffffffffffffffffff168152602001908152602001600020600086815260200190815260200160002060070154905060008673ffffffffffffffffffffffffffffffffffffffff1682604051611d579061516c565b60006040518083038185875af1925050503d8060008114611d94576040519150601f19603f3d011682016040523d82523d6000602084013e611d99565b606091505b5050905080611ddd576040517f08c379a0000000000000000000000000000000000000000000000000000000008152600401611dd4906151cd565b60405180910390fd5b7fb513ce46aec727e4d32cc9b305fc53369326c8c65e4ab9b94bc5877c7add82908783604051611e0e929190614abe565b60405180910390a150505050505050565b826000600460008373ffffffffffffffffffffffffffffffffffffffff1673ffffffffffffffffffffffffffffffffffffffff168152602001908152602001600020541415611ea3576040517f08c379a0000000000000000000000000000000000000000000000000000000008152600401611e9a90614b33565b60405180910390fd5b816000600460008373ffffffffffffffffffffffffffffffffffffffff1673ffffffffffffffffffffffffffffffffffffffff168152602001908152602001600020541415611f27576040517f08c379a0000000000000000000000000000000000000000000000000000000008152600401611f1e90614b33565b60405180910390fd5b848460011515600660008473ffffffffffffffffffffffffffffffffffffffff1673ffffffffffffffffffffffffffffffffffffffff168152602001908152602001600020600083815260200190815260200160002060080160009054906101000a900460ff16151514611fd0576040517f08c379a0000000000000000000000000000000000000000000000000000000008152600401611fc790614bc5565b60405180910390fd5b8673ffffffffffffffffffffffffffffffffffffffff163373ffffffffffffffffffffffffffffffffffffffff161461203e576040517f08c379a000000000000000000000000000000000000000000000000000000000815260040161203590615285565b60405180910390fd5b8473ffffffffffffffffffffffffffffffffffffffff168773ffffffffffffffffffffffffffffffffffffffff1614156120ad576040517f08c379a00000000000000000000000000000000000000000000000000000000081526004016120a490615363565b60405180910390fd5b600560008673ffffffffffffffffffffffffffffffffffffffff1673ffffffffffffffffffffffffffffffffffffffff16815260200190815260200160002060008154809291906120fd90614a16565b91905055506000600560008773ffffffffffffffffffffffffffffffffffffffff1673ffffffffffffffffffffffffffffffffffffffff168152602001908152602001600020549050600660008973ffffffffffffffffffffffffffffffffffffffff1673ffffffffffffffffffffffffffffffffffffffff1681526020019081526020016000206000888152602001908152602001600020600660008873ffffffffffffffffffffffffffffffffffffffff1673ffffffffffffffffffffffffffffffffffffffff168152602001908152602001600020600083815260200190815260200160002060008201548160000155600182018160010190805461220490614c14565b61220f929190613edb565b506002820154816002015560038201548160030155600482018160040190805461223890614c14565b612243929190613edb565b5060058201548160050155600682018160060190805461226290614c14565b61226d929190613edb565b50600782015481600701556008820160009054906101000a900460ff168160080160006101000a81548160ff0219169083151502179055506008820160019054906101000a900460ff168160080160016101000a81548160ff021916908360038111156122dd576122dc6145c1565b5b021790555060098201816009019080546122f690614c14565b612301929190613edb565b50600a82015481600a0155905050600660008973ffffffffffffffffffffffffffffffffffffffff1673ffffffffffffffffffffffffffffffffffffffff16815260200190815260200160002060008881526020019081526020016000206000808201600090556001820160006123789190613f68565b600282016000905560038201600090556004820160006123989190613f68565b60058201600090556006820160006123b09190613f68565b60078201600090556008820160006101000a81549060ff02191690556008820160016101000a81549060ff02191690556009820160006123f09190613f68565b600a8201600090555050600560008973ffffffffffffffffffffffffffffffffffffffff1673ffffffffffffffffffffffffffffffffffffffff168152602001908152602001600020600081548092919061244a90615383565b91905055507f8bea23a38d8f27c2a4ececcbb2e39dd389c7371d71f1d3d21345fa25d5665abb888789600660008b73ffffffffffffffffffffffffffffffffffffffff1673ffffffffffffffffffffffffffffffffffffffff1681526020019081526020016000206000868152602001908152602001600020600701546040516124d794939291906153ad565b60405180910390a15050505050505050565b60008054906101000a900473ffffffffffffffffffffffffffffffffffffffff1673ffffffffffffffffffffffffffffffffffffffff163373ffffffffffffffffffffffffffffffffffffffff1614612577576040517f08c379a000000000000000000000000000000000000000000000000000000000815260040161256e9061511b565b60405180910390fd5b828160011515600760008473ffffffffffffffffffffffffffffffffffffffff1673ffffffffffffffffffffffffffffffffffffffff168152602001908152602001600020600083815260200190815260200160002060070160019054906101000a900460ff16151514612620576040517f08c379a000000000000000000000000000000000000000000000000000000000815260040161261790614c92565b60405180910390fd5b84836002806006811115612637576126366145c1565b5b600760008573ffffffffffffffffffffffffffffffffffffffff1673ffffffffffffffffffffffffffffffffffffffff168152602001908152602001600020600084815260200190815260200160002060070160009054906101000a900460ff1660068111156126aa576126a96145c1565b5b146126ea576040517f08c379a00000000000000000000000000000000000000000000000000000000081526004016126e190614cfe565b60405180910390fd5b6006600760008a73ffffffffffffffffffffffffffffffffffffffff1673ffffffffffffffffffffffffffffffffffffffff168152602001908152602001600020600088815260200190815260200160002060070160006101000a81548160ff02191690836006811115612761576127606145c1565b5b02179055506003600660008a73ffffffffffffffffffffffffffffffffffffffff1673ffffffffffffffffffffffffffffffffffffffff168152602001908152602001600020600088815260200190815260200160002060080160016101000a81548160ff021916908360038111156127dd576127dc6145c1565b5b02179055507f775a814133db64b272f053cebe7e3f81af7fbc555cb07ee614a9303eb06c8ee58887600360405161281693929190614ed4565b60405180910390a17f7aa644fa41c34822ba1ee2f1822620f973997f15c9e06bf2125442b1d4a765308887600660405161285293929190614de5565b60405180910390a17f8bea23a38d8f27c2a4ececcbb2e39dd389c7371d71f1d3d21345fa25d5665abb8888886128888c8b612d3e565b60405161289894939291906153ad565b60405180910390a15050505050505050565b838260011515600760008473ffffffffffffffffffffffffffffffffffffffff1673ffffffffffffffffffffffffffffffffffffffff168152602001908152602001600020600083815260200190815260200160002060070160019054906101000a900460ff16151514612953576040517f08c379a000000000000000000000000000000000000000000000000000000000815260040161294a90614c92565b60405180910390fd5b8584600380600681111561296a576129696145c1565b5b600760008573ffffffffffffffffffffffffffffffffffffffff1673ffffffffffffffffffffffffffffffffffffffff168152602001908152602001600020600084815260200190815260200160002060070160009054906101000a900460ff1660068111156129dd576129dc6145c1565b5b14612a1d576040517f08c379a0000000000000000000000000000000000000000000000000000000008152600401612a1490614cfe565b60405180910390fd5b8773ffffffffffffffffffffffffffffffffffffffff163373ffffffffffffffffffffffffffffffffffffffff1614612a8b576040517f08c379a0000000000000000000000000000000000000000000000000000000008152600401612a8290614db6565b60405180910390fd5b85600760008b73ffffffffffffffffffffffffffffffffffffffff1673ffffffffffffffffffffffffffffffffffffffff16815260200190815260200160002060008981526020019081526020016000206006019080519060200190612af2929190613e55565b506002600760008b73ffffffffffffffffffffffffffffffffffffffff1673ffffffffffffffffffffffffffffffffffffffff168152602001908152602001600020600089815260200190815260200160002060070160006101000a81548160ff02191690836006811115612b6a57612b696145c1565b5b02179055507f7aa644fa41c34822ba1ee2f1822620f973997f15c9e06bf2125442b1d4a7653089886002604051612ba393929190614de5565b60405180910390a1505050505050505050565b6000600560008373ffffffffffffffffffffffffffffffffffffffff1673ffffffffffffffffffffffffffffffffffffffff168152602001908152602001600020549050919050565b6000828260011515600660008473ffffffffffffffffffffffffffffffffffffffff1673ffffffffffffffffffffffffffffffffffffffff168152602001908152602001600020600083815260200190815260200160002060080160009054906101000a900460ff16151514612caa576040517f08c379a0000000000000000000000000000000000000000000000000000000008152600401612ca190614bc5565b60405180910390fd5b600660008673ffffffffffffffffffffffffffffffffffffffff1673ffffffffffffffffffffffffffffffffffffffff168152602001908152602001600020600085815260200190815260200160002060080160019054906101000a900460ff169250505092915050565b60008060009054906101000a900473ffffffffffffffffffffffffffffffffffffffff16905090565b6000826000600460008373ffffffffffffffffffffffffffffffffffffffff1673ffffffffffffffffffffffffffffffffffffffff168152602001908152602001600020541415612dc4576040517f08c379a0000000000000000000000000000000000000000000000000000000008152600401612dbb90614b33565b60405180910390fd5b838360011515600660008473ffffffffffffffffffffffffffffffffffffffff1673ffffffffffffffffffffffffffffffffffffffff168152602001908152602001600020600083815260200190815260200160002060080160009054906101000a900460ff16151514612e6d576040517f08c379a0000000000000000000000000000000000000000000000000000000008152600401612e6490614bc5565b60405180910390fd5b600660008773ffffffffffffffffffffffffffffffffffffffff1673ffffffffffffffffffffffffffffffffffffffff168152602001908152602001600020600086815260200190815260200160002060070154935050505092915050565b60008054906101000a900473ffffffffffffffffffffffffffffffffffffffff1673ffffffffffffffffffffffffffffffffffffffff163373ffffffffffffffffffffffffffffffffffffffff1614612f5a576040517f08c379a0000000000000000000000000000000000000000000000000000000008152600401612f519061511b565b60405180910390fd5b806000806101000a81548173ffffffffffffffffffffffffffffffffffffffff021916908373ffffffffffffffffffffffffffffffffffffffff16021790555050565b6000806000806060868660011515600760008473ffffffffffffffffffffffffffffffffffffffff1673ffffffffffffffffffffffffffffffffffffffff168152602001908152602001600020600083815260200190815260200160002060070160019054906101000a900460ff1615151461304e576040517f08c379a000000000000000000000000000000000000000000000000000000000815260040161304590614c92565b60405180910390fd5b600760008a73ffffffffffffffffffffffffffffffffffffffff1673ffffffffffffffffffffffffffffffffffffffff168152602001908152602001600020600089815260200190815260200160002060000154600760008b73ffffffffffffffffffffffffffffffffffffffff1673ffffffffffffffffffffffffffffffffffffffff16815260200190815260200160002060008a815260200190815260200160002060010160009054906101000a900473ffffffffffffffffffffffffffffffffffffffff16600760008c73ffffffffffffffffffffffffffffffffffffffff1673ffffffffffffffffffffffffffffffffffffffff16815260200190815260200160002060008b815260200190815260200160002060020160009054906101000a900473ffffffffffffffffffffffffffffffffffffffff16600760008d73ffffffffffffffffffffffffffffffffffffffff1673ffffffffffffffffffffffffffffffffffffffff16815260200190815260200160002060008c815260200190815260200160002060030154600760008e73ffffffffffffffffffffffffffffffffffffffff1673ffffffffffffffffffffffffffffffffffffffff16815260200190815260200160002060008d815260200190815260200160002060040180805461323d90614c14565b80601f016020809104026020016040519081016040528092919081815260200182805461326990614c14565b80156132b65780601f1061328b576101008083540402835291602001916132b6565b820191906000526020600020905b81548152906001019060200180831161329957829003601f168201915b505050505090509650965096509650965050509295509295909350565b60008054906101000a900473ffffffffffffffffffffffffffffffffffffffff1673ffffffffffffffffffffffffffffffffffffffff163373ffffffffffffffffffffffffffffffffffffffff1614613361576040517f08c379a00000000000000000000000000000000000000000000000000000000081526004016133589061511b565b60405180910390fd5b816000600460008373ffffffffffffffffffffffffffffffffffffffff1673ffffffffffffffffffffffffffffffffffffffff1681526020019081526020016000205414156133e5576040517f08c379a00000000000000000000000000000000000000000000000000000000081526004016133dc90614b33565b60405180910390fd5b60008373ffffffffffffffffffffffffffffffffffffffff168360405161340b9061516c565b60006040518083038185875af1925050503d8060008114613448576040519150601f19603f3d011682016040523d82523d6000602084013e61344d565b606091505b5050905080613491576040517f08c379a0000000000000000000000000000000000000000000000000000000008152600401613488906151cd565b60405180910390fd5b7fb513ce46aec727e4d32cc9b305fc53369326c8c65e4ab9b94bc5877c7add829084846040516134c2929190614abe565b60405180910390a150505050565b818160011515600760008473ffffffffffffffffffffffffffffffffffffffff1673ffffffffffffffffffffffffffffffffffffffff168152602001908152602001600020600083815260200190815260200160002060070160019054906101000a900460ff16151514613579576040517f08c379a000000000000000000000000000000000000000000000000000000000815260040161357090614c92565b60405180910390fd5b83836000600760008473ffffffffffffffffffffffffffffffffffffffff1673ffffffffffffffffffffffffffffffffffffffff168152602001908152602001600020600083815260200190815260200160002060070160009054906101000a900460ff169050600460068111156135f4576135f36145c1565b5b816006811115613607576136066145c1565b5b14806136365750600680811115613621576136206145c1565b5b816006811115613634576136336145c1565b5b145b806136655750600260068111156136505761364f6145c1565b5b816006811115613663576136626145c1565b5b145b8061369457506005600681111561367f5761367e6145c1565b5b816006811115613692576136916145c1565b5b145b156136d4576040517f08c379a00000000000000000000000000000000000000000000000000000000081526004016136cb9061543e565b60405180910390fd5b8673ffffffffffffffffffffffffffffffffffffffff163373ffffffffffffffffffffffffffffffffffffffff1614613742576040517f08c379a0000000000000000000000000000000000000000000000000000000008152600401613739906154f6565b60405180910390fd5b6004600760008973ffffffffffffffffffffffffffffffffffffffff1673ffffffffffffffffffffffffffffffffffffffff168152602001908152602001600020600088815260200190815260200160002060070160006101000a81548160ff021916908360068111156137b9576137b86145c1565b5b02179055507f7aa644fa41c34822ba1ee2f1822620f973997f15c9e06bf2125442b1d4a76530878760046040516137f293929190614de5565b60405180910390a150505050505050565b836000600460008373ffffffffffffffffffffffffffffffffffffffff1673ffffffffffffffffffffffffffffffffffffffff168152602001908152602001600020541415613887576040517f08c379a000000000000000000000000000000000000000000000000000000000815260040161387e90614b33565b60405180910390fd5b826000600460008373ffffffffffffffffffffffffffffffffffffffff1673ffffffffffffffffffffffffffffffffffffffff16815260200190815260200160002054141561390b576040517f08c379a000000000000000000000000000000000000000000000000000000000815260040161390290614b33565b60405180910390fd5b858560011515600660008473ffffffffffffffffffffffffffffffffffffffff1673ffffffffffffffffffffffffffffffffffffffff168152602001908152602001600020600083815260200190815260200160002060080160009054906101000a900460ff161515146139b4576040517f08c379a00000000000000000000000000000000000000000000000000000000081526004016139ab90614bc5565b60405180910390fd5b8787600060038111156139ca576139c96145c1565b5b600660008473ffffffffffffffffffffffffffffffffffffffff1673ffffffffffffffffffffffffffffffffffffffff168152602001908152602001600020600083815260200190815260200160002060080160019054906101000a900460ff166003811115613a3d57613a3c6145c1565b5b14613a4757600080fd5b898960001515600760008473ffffffffffffffffffffffffffffffffffffffff1673ffffffffffffffffffffffffffffffffffffffff168152602001908152602001600020600083815260200190815260200160002060070160019054906101000a900460ff16151514613af0576040517f08c379a0000000000000000000000000000000000000000000000000000000008152600401613ae790615562565b60405180910390fd5b60036000815480929190613b0390614a16565b919050555060405180610120016040528060035481526020018d73ffffffffffffffffffffffffffffffffffffffff1681526020018b73ffffffffffffffffffffffffffffffffffffffff168152602001613b5e8e8e612d3e565b81526020018a815260200160405180602001604052806000815250815260200160405180602001604052806000815250815260200160006006811115613ba757613ba66145c1565b5b815260200160011515815250600760008e73ffffffffffffffffffffffffffffffffffffffff1673ffffffffffffffffffffffffffffffffffffffff16815260200190815260200160002060008d81526020019081526020016000206000820151816000015560208201518160010160006101000a81548173ffffffffffffffffffffffffffffffffffffffff021916908373ffffffffffffffffffffffffffffffffffffffff16021790555060408201518160020160006101000a81548173ffffffffffffffffffffffffffffffffffffffff021916908373ffffffffffffffffffffffffffffffffffffffff160217905550606082015181600301556080820151816004019080519060200190613cc1929190613e55565b5060a0820151816005019080519060200190613cde929190613e55565b5060c0820151816006019080519060200190613cfb929190613e55565b5060e08201518160070160006101000a81548160ff02191690836006811115613d2757613d266145c1565b5b02179055506101008201518160070160016101000a81548160ff0219169083151502179055509050506001600660008e73ffffffffffffffffffffffffffffffffffffffff1673ffffffffffffffffffffffffffffffffffffffff16815260200190815260200160002060008d815260200190815260200160002060080160016101000a81548160ff02191690836003811115613dc757613dc66145c1565b5b02179055507f775a814133db64b272f053cebe7e3f81af7fbc555cb07ee614a9303eb06c8ee58c8c6001604051613e0093929190614ed4565b60405180910390a17fe42073240d6159ea89d9b22dcb029a8f621bf9508949b85e09e3f1e70c41c0e58c8b6003548e604051613e3f9493929190615582565b60405180910390a1505050505050505050505050565b828054613e6190614c14565b90600052602060002090601f016020900481019282613e835760008555613eca565b82601f10613e9c57805160ff1916838001178555613eca565b82800160010185558215613eca579182015b82811115613ec9578251825591602001919060010190613eae565b5b509050613ed79190613fa8565b5090565b828054613ee790614c14565b90600052602060002090601f016020900481019282613f095760008555613f57565b82601f10613f1a5780548555613f57565b82800160010185558215613f5757600052602060002091601f016020900482015b82811115613f56578254825591600101919060010190613f3b565b5b509050613f649190613fa8565b5090565b508054613f7490614c14565b6000825580601f10613f865750613fa5565b601f016020900490600052602060002090810190613fa49190613fa8565b5b50565b5b80821115613fc1576000816000905550600101613fa9565b5090565b6000604051905090565b600080fd5b600080fd5b600073ffffffffffffffffffffffffffffffffffffffff82169050919050565b600061400482613fd9565b9050919050565b61401481613ff9565b811461401f57600080fd5b50565b6000813590506140318161400b565b92915050565b60006020828403121561404d5761404c613fcf565b5b600061405b84828501614022565b91505092915050565b6000819050919050565b61407781614064565b811461408257600080fd5b50565b6000813590506140948161406e565b92915050565b600080604083850312156140b1576140b0613fcf565b5b60006140bf85828601614022565b92505060206140d085828601614085565b9150509250929050565b600081519050919050565b600082825260208201905092915050565b60005b838110156141145780820151818401526020810190506140f9565b83811115614123576000848401525b50505050565b6000601f19601f8301169050919050565b6000614145826140da565b61414f81856140e5565b935061415f8185602086016140f6565b61416881614129565b840191505092915050565b61417c81614064565b82525050565b6000608082019050818103600083015261419c818761413a565b90506141ab6020830186614173565b81810360408301526141bd818561413a565b905081810360608301526141d1818461413a565b905095945050505050565b60006020820190506141f16000830184614173565b92915050565b600080fd5b600080fd5b7f4e487b7100000000000000000000000000000000000000000000000000000000600052604160045260246000fd5b61423982614129565b810181811067ffffffffffffffff8211171561425857614257614201565b5b80604052505050565b600061426b613fc5565b90506142778282614230565b919050565b600067ffffffffffffffff82111561429757614296614201565b5b6142a082614129565b9050602081019050919050565b82818337600083830152505050565b60006142cf6142ca8461427c565b614261565b9050828152602081018484840111156142eb576142ea6141fc565b5b6142f68482856142ad565b509392505050565b600082601f830112614313576143126141f7565b5b81356143238482602086016142bc565b91505092915050565b60008060006060848603121561434557614344613fcf565b5b600061435386828701614022565b935050602061436486828701614085565b925050604084013567ffffffffffffffff81111561438557614384613fd4565b5b614391868287016142fe565b9150509250925092565b6000806000806000806000806000806101408b8d0312156143bf576143be613fcf565b5b60006143cd8d828e01614022565b9a505060208b013567ffffffffffffffff8111156143ee576143ed613fd4565b5b6143fa8d828e016142fe565b995050604061440b8d828e01614085565b985050606061441c8d828e01614085565b97505060808b013567ffffffffffffffff81111561443d5761443c613fd4565b5b6144498d828e016142fe565b96505060a061445a8d828e01614085565b95505060c08b013567ffffffffffffffff81111561447b5761447a613fd4565b5b6144878d828e016142fe565b94505060e06144988d828e01614085565b9350506101008b013567ffffffffffffffff8111156144ba576144b9613fd4565b5b6144c68d828e016142fe565b9250506101206144d88d828e01614085565b9150509295989b9194979a5092959850565b60008115159050919050565b6144ff816144ea565b811461450a57600080fd5b50565b60008135905061451c816144f6565b92915050565b60008060006060848603121561453b5761453a613fcf565b5b600061454986828701614022565b935050602061455a86828701614085565b925050604061456b8682870161450d565b9150509250925092565b6000608082019050818103600083015261458f818761413a565b905061459e6020830186614173565b6145ab6040830185614173565b6145b86060830184614173565b95945050505050565b7f4e487b7100000000000000000000000000000000000000000000000000000000600052602160045260246000fd5b60078110614601576146006145c1565b5b50565b6000819050614612826145f0565b919050565b600061462282614604565b9050919050565b61463281614617565b82525050565b600060208201905061464d6000830184614629565b92915050565b61465c816144ea565b82525050565b60006020820190506146776000830184614653565b92915050565b60008060006060848603121561469657614695613fcf565b5b60006146a486828701614022565b93505060206146b586828701614085565b92505060406146c686828701614022565b9150509250925092565b6000806000606084860312156146e9576146e8613fcf565b5b60006146f786828701614022565b935050602061470886828701614022565b925050604061471986828701614085565b9150509250925092565b6000806000806080858703121561473d5761473c613fcf565b5b600061474b87828801614022565b945050602061475c87828801614022565b935050604061476d87828801614085565b925050606085013567ffffffffffffffff81111561478e5761478d613fd4565b5b61479a878288016142fe565b91505092959194509250565b60006147b182613fd9565b9050919050565b6147c1816147a6565b81146147cc57600080fd5b50565b6000813590506147de816147b8565b92915050565b6000602082840312156147fa576147f9613fcf565b5b6000614808848285016147cf565b91505092915050565b60048110614822576148216145c1565b5b50565b600081905061483382614811565b919050565b600061484382614825565b9050919050565b61485381614838565b82525050565b600060208201905061486e600083018461484a565b92915050565b61487d816147a6565b82525050565b60006020820190506148986000830184614874565b92915050565b600060a0820190506148b36000830188614173565b6148c06020830187614874565b6148cd6040830186614874565b6148da6060830185614173565b81810360808301526148ec818461413a565b90509695505050505050565b6000806000806080858703121561491257614911613fcf565b5b600061492087828801614022565b945050602061493187828801614085565b935050604061494287828801614022565b925050606085013567ffffffffffffffff81111561496357614962613fd4565b5b61496f878288016142fe565b91505092959194509250565b7f4c616e646c6f726420616c7265616479206578697374732e0000000000000000600082015250565b60006149b16018836140e5565b91506149bc8261497b565b602082019050919050565b600060208201905081810360008301526149e0816149a4565b9050919050565b7f4e487b7100000000000000000000000000000000000000000000000000000000600052601160045260246000fd5b6000614a2182614064565b91507fffffffffffffffffffffffffffffffffffffffffffffffffffffffffffffffff821415614a5457614a536149e7565b5b600182019050919050565b6000819050919050565b6000614a84614a7f614a7a84613fd9565b614a5f565b613fd9565b9050919050565b6000614a9682614a69565b9050919050565b6000614aa882614a8b565b9050919050565b614ab881614a9d565b82525050565b6000604082019050614ad36000830185614aaf565b614ae06020830184614173565b9392505050565b7f4c616e646c6f726420646f6573206e6f742065786973742e0000000000000000600082015250565b6000614b1d6018836140e5565b9150614b2882614ae7565b602082019050919050565b60006020820190508181036000830152614b4c81614b10565b9050919050565b7f50726f706572747920646f6573206e6f7420657869737420666f72207468697360008201527f206c616e646c6f72642e00000000000000000000000000000000000000000000602082015250565b6000614baf602a836140e5565b9150614bba82614b53565b604082019050919050565b60006020820190508181036000830152614bde81614ba2565b9050919050565b7f4e487b7100000000000000000000000000000000000000000000000000000000600052602260045260246000fd5b60006002820490506001821680614c2c57607f821691505b60208210811415614c4057614c3f614be5565b5b50919050565b7f41677265656d656e7420646f6573206e6f742065786973742e00000000000000600082015250565b6000614c7c6019836140e5565b9150614c8782614c46565b602082019050919050565b60006020820190508181036000830152614cab81614c6f565b9050919050565b7f41677265656d656e742073746174757320696e76616c69642e00000000000000600082015250565b6000614ce86019836140e5565b9150614cf382614cb2565b602082019050919050565b60006020820190508181036000830152614d1781614cdb565b9050919050565b7f596f752063616e6e6f74207369676e207468652061677265656d656e7421204f60008201527f6e6c7920746865206f776e65722063616e207369676e2074686520616772656560208201527f6d656e742e000000000000000000000000000000000000000000000000000000604082015250565b6000614da06045836140e5565b9150614dab82614d1e565b606082019050919050565b60006020820190508181036000830152614dcf81614d93565b9050919050565b614ddf81613ff9565b82525050565b6000606082019050614dfa6000830186614dd6565b614e076020830185614173565b614e146040830184614629565b949350505050565b7f596f752063616e6e6f742063726561746520612070726f706572747920666f7260008201527f20746865207573657221204f6e6c7920746865206f776e65722063616e20637260208201527f65617465207468652070726f70657274792e0000000000000000000000000000604082015250565b6000614e9e6052836140e5565b9150614ea982614e1c565b606082019050919050565b60006020820190508181036000830152614ecd81614e91565b9050919050565b6000606082019050614ee96000830186614dd6565b614ef66020830185614173565b614f03604083018461484a565b949350505050565b600061016082019050614f21600083018e614dd6565b614f2e602083018d614173565b614f3b604083018c614173565b614f48606083018b614173565b8181036080830152614f5a818a61413a565b9050614f6960a0830189614173565b81810360c0830152614f7b818861413a565b9050614f8a60e0830187614173565b614f9861010083018661484a565b818103610120830152614fab818561413a565b9050614fbb610140830184614173565b9c9b505050505050505050505050565b7f596f752063616e6e6f74206d616b652061206465636973696f6e206f6e20746860008201527f652061677265656d656e7421204f6e6c7920746865206f776e65722063616e2060208201527f6d616b652061206465636973696f6e206f6e207468652061677265656d656e7460408201527f2e00000000000000000000000000000000000000000000000000000000000000606082015250565b60006150736061836140e5565b915061507e82614fcb565b608082019050919050565b600060208201905081810360008301526150a281615066565b9050919050565b7f4f6e6c7920746865206f776e65722063616e2072756e20746869732066756e6360008201527f74696f6e2e000000000000000000000000000000000000000000000000000000602082015250565b60006151056025836140e5565b9150615110826150a9565b604082019050919050565b60006020820190508181036000830152615134816150f8565b9050919050565b600081905092915050565b50565b600061515660008361513b565b915061516182615146565b600082019050919050565b600061517782615149565b9150819050919050565b7f4661696c656420746f2073656e6420616d6f756e742100000000000000000000600082015250565b60006151b76016836140e5565b91506151c282615181565b602082019050919050565b600060208201905081810360008301526151e6816151aa565b9050919050565b7f596f752063616e6e6f74207472616e73666572207468652070726f706572747960008201527f21204f6e6c7920746865206f776e65722063616e207472616e7366657220746860208201527f652070726f70657274792e000000000000000000000000000000000000000000604082015250565b600061526f604b836140e5565b915061527a826151ed565b606082019050919050565b6000602082019050818103600083015261529e81615262565b9050919050565b7f596f752063616e6e6f74207472616e73666572207468652070726f706572747960008201527f20746f207468652073616d6520616464726573732120427579657220616e642060208201527f4c616e646c6f726420416464726573732073686f756c6420626520646966666560408201527f72656e742e000000000000000000000000000000000000000000000000000000606082015250565b600061534d6065836140e5565b9150615358826152a5565b608082019050919050565b6000602082019050818103600083015261537c81615340565b9050919050565b600061538e82614064565b915060008214156153a2576153a16149e7565b5b600182039050919050565b60006080820190506153c26000830187614aaf565b6153cf6020830186614aaf565b6153dc6040830185614173565b6153e96060830184614173565b95945050505050565b7f41677265656d656e742063616e6e6f742062652063616e63656c6c65642e0000600082015250565b6000615428601e836140e5565b9150615433826153f2565b602082019050919050565b600060208201905081810360008301526154578161541b565b9050919050565b7f596f752063616e6e6f742063616e63656c207468652061677265656d656e742160008201527f204f6e6c7920746865206f776e65722063616e2063616e63656c20746865206160208201527f677265656d656e742e0000000000000000000000000000000000000000000000604082015250565b60006154e06049836140e5565b91506154eb8261545e565b606082019050919050565b6000602082019050818103600083015261550f816154d3565b9050919050565b7f41677265656d656e7420616c7265616479206578697374732e00000000000000600082015250565b600061554c6019836140e5565b915061555782615516565b602082019050919050565b6000602082019050818103600083015261557b8161553f565b9050919050565b60006080820190506155976000830187614dd6565b6155a46020830186614dd6565b6155b16040830185614173565b6155be6060830184614173565b9594505050505056fea2646970667358221220be61670013e088847698f21e5030cc900f958beba92a9adaebda4b1bde9935e464736f6c63430008090033",
  "linkReferences": {},
  "deployedLinkReferences": {}
}